:020000040000FA
:1000000010290020150400001D0400001F0400003A
:10001000210400002304000025040000000000006B
:1000200000000000000000000000000027040000A5
:1000300029040000000000002B0400002D04000033
:100040002F040000CD0500001D0900002F04000052
:100050002F0400002F0400002F0400002F040000D4
:100060002F0400002F0400002F0400002F040000C4
:100070002F0400002F0400002F0400002F040000B4
:100080002F0400002F0400002F0400002F040000A4
:10009000290600002F0400002F0400002F04000098
:1000A0002F0400002F0400002F0400002F04000084
:1000B0002F0400002F0400000000000000000000DA
:1000C0002F0400002F0400002F0400002F04000064
:1000D0002F0400002F0400002F0400000000000087
:1000E0000000000000000000000000000000000010
:1000F0000000000000000000000000000000000000
:1001000000000000000000000000000000000000EF
:1001100000000000000000000000000000000000DF
:10040000DFF80CD000F074F80048004789100000B5
:10041000102900200648804706480047FEE7FEE70F
:10042000FEE7FEE7FEE7FEE7FEE7FEE7FEE7FEE7A4
:10043000810600000104000040EA01039B0703D08D
:1004400009E008C9121F08C0042AFAD203E011F813
:10045000013B00F8013B521EF9D27047D2B201E0D5
:1004600000F8012B491EFBD270470022F6E710B5B9
:1004700013460A4604461946FFF7F0FF204610BD12
:10048000421C10F8011B0029FBD1801A70472DE98E
:10049000F05F0546002092469B4688460646814608
:1004A00040241BE0284641464746224600F041F8DA
:1004B00053465A46C01A914110D311461846224657
:1004C00000F028F82D1A67EB01084F46224601205C
:1004D000002100F01FF817EB00094E41201EA4F187
:1004E0000104DFDC484631462A464346BDE8F09F1A
:1004F000064C074D06E0E06840F0010394E8070071
:1005000098471034AC42F6D3FFF77EFF182700005F
:1005100038270000202A04DB203A00FA02F10020EC
:1005200070479140C2F1200320FA03F31943904031
:100530007047202A04DB203A21FA02F0002170479C
:1005400021FA02F3D040C2F120029140084319463B
:10055000704700F01F02012191404009800000F126
:10056000E020C0F88012704700F01F020121914086
:100570004009800000F1E020C0F88011704700F0D1
:100580001F02012191404009800000F1E020C0F8E5
:100590000011704700F01F020121914040098000C6
:1005A00000F1E020C0F8001270474907090E00284A
:1005B00006DA00F00F0000F1E02080F8141D70470B
:1005C00000F1E02080F800147047000070B5144C72
:1005D000D4F80001002628B1D4F80403C00701D0E4
:1005E000C4F80061D4F80C010E4D40B1D4F80403F6
:1005F000000704D5C4F80C61E86800B18047D4F85E
:10060000100100280BD0D4F80403C00607D5C4F8A5
:100610001061A868002802D0BDE87040004770BD96
:10062000001000403C0000207CB5144C206A019072
:100630002078002821D00120FFF796FF656800266A
:1006400066600120FFF79BFFA169002915D0E8072C
:1006500003D08DF8006068468847A80705D50120BB
:100660008DF80000A16968468847680705D5022013
:100670008DF80000A169684688477CBD3C000020D9
:10068000F0B598480023021D01780125101D4FF098
:100690008056062907D11478240704D10478C4F3BE
:1006A0000314032C02D0062904D00FE08F4F8E4C88
:1006B0007C670EE01478240708D10478C4F303148F
:1006C000032C06D0042C04D0052C02D0062907D018
:1006D0000EE0D6F84442864FC4F342343C6002E058
:1006E0001478240704D10478C4F30314032C02D033
:1006F000062906D011E07F4C276827F08077276015
:100700000EE01478240708D10478C4F30314032CF2
:1007100006D0042C04D0052C02D006290AD011E002
:100720004FF08044C4F80C31C4F81031704C241FD1
:10073000236002E01478240704D10478C4F303147E
:10074000032C02D0062905D00CE0694F032464373E
:100750003C600AE01478240704D10478C4F303143D
:10076000032C02D006290DD014E0634F05243C6011
:10077000614C78342560604C083423603F243F1D71
:100780003C6002E01478240704D10478C4F3031415
:10079000052C02D0062957D068E058490968584A04
:1007A00011605649091D0968121D1160534908312D
:1007B0000968121D116051490C310968121D116040
:1007C0004E4910310968121D11604C4914310968F5
:1007D000121D1160494918310968494A20321160D7
:1007E00046491C310968121D1160444920310968CD
:1007F000121D1160414924310968121D11603F49E1
:1008000028310968121D11603C492C310968121DFC
:1008100011603A4930310968394A4032116037492C
:1008200034310968121D1160344938310968121DCC
:10083000116032493C310968121D11602F49403165
:100840000968121D116002E0117809070ED10078C5
:10085000C0F30310032803D0042801D0052805D1D4
:10086000D6F85802274900F04F0008602148743834
:10087000016841F470010160BFF34F8FBFF36F8FC8
:100880004FF01021D1F80002002803DBD1F8040258
:10089000002822DA1C4A15601C480468002CFCD091
:1008A0001524C1F800420568002DFCD0C1F80442AF
:1008B00001680029FCD0136001680029FCD0BFF357
:1008C0004F8F0C48F0380168114A01F4E061114380
:1008D0000160BFF34F8F00BFFDE70F490D4808606F
:1008E000F0BD0000E00F00F00DF0ADBA00C0074011
:1008F0003C050040FCED00E01056004004040010F0
:1009000020C50040E40E004004E5014000E4014041
:100910000400FA050090D003780000200448017F0D
:1009200004480029024901D001F0A5BD01F014BD21
:10093000A4000020002000400FB4084B10B504A90B
:1009400002AA039800F01CF8044602A9002000F057
:1009500048FA204610BC5DF814FB0000E30D0000CF
:1009600002E008C8121F08C1002AFAD17047704778
:10097000002001E001C1121F002AFBD170470000D6
:100980002DE9FF4F8DB00F460546002606E02528CD
:100990000BD0DDE90F1290476D1C761C28780028DB
:1009A000F5D111B03046BDE8F08F0024A246A14633
:1009B0000122EC4900E0044315F8013F203B02FA14
:1009C00003F00842F7D128782A2810D06FF02F02C0
:1009D0002878A0F13001092914D80AEB8A0102EB2A
:1009E000410144F0020400EB010A6D1CF0E701CF65
:1009F0005FEA000A03D544F40054CAF1000A44F047
:100A000002046D1C28782E2817D115F8010F44F028
:100A100004042A280ED06FF02F022878A0F13001AC
:100A200009290AD809EB890102EB410100EB010910
:100A30006D1CF2E757F8049B6D1C28786C280FD0CA
:100A400006DC4C2817D068280DD06A2814D104E0A1
:100A5000742810D07A280FD10DE044F400140AE075
:100A600044F4801401E044F440146978814202D1D6
:100A700004F580146D1C6D1C2A786E2A1FD00CDCC6
:100A8000632A31D004DC002A8BD0582A11D1A3E08C
:100A9000642A68D0692A0CD165E0732A2ED004DC60
:100AA0006F2A73D0702A04D19BE0752A6FD0782A00
:100AB0006ED01046DDE90F129047761C50E1C4F36A
:100AC0000250022806D0032809D0042801CF09D0FB
:100AD000066045E101CFF117C0E9006140E101CFB7
:100AE00006803DE106703BE117F8040B8DF800002D
:100AF00000208DF80100EB46012003E057F804BB0D
:100B00004FF0FF3061074FF0000102D40DE008F113
:100B10000101884649450FDA8045F8DB1BF80810CB
:100B20000029F4D108E008F1010188468142FADB8E
:100B30001BF808100029F6D1DDE90F23AAEB080005
:100B40008146214600F036F9304400EB080604E007
:100B5000DDE90F121BF8010B9047B8F10108F7D23D
:100B600021464846F7E00A21C4F302534FF0000B38
:100B70000891022B04D001CFC117032B09D00AE042
:100B8000FF1D27F00707F7E8020108E032E01FE049
:100B900020E000B2C117042B01D140B2C117031EDF
:100BA00071F1000307DA4FF0000CD0EB0C006CEB96
:100BB00001012D2302E0230504D52B238DF82430D9
:100BC000012303E0E30701D02023F7E7984658E02C
:100BD0000A2110E010210EE010204FF0000B0890C9
:100BE0000CE010214FF0000B44F004044FF0080912
:100BF000089103E008214FF0000B0891C4F3025361
:100C0000022B04D001CF0021032B06D006E0FF1DEC
:100C100027F00707F7E8020103E080B2042B00D1B8
:100C2000C0B24FF0000823072BD5702A07D0DDF89B
:100C300020C08CF0100C5CEA0B0C05D00EE04023B9
:100C40008DF82430012308E050EA010306D0302358
:100C50008DF824308DF8252002239846DDF820C039
:100C60008CF0080C5CEA0B0C0BD150EA010301D1AB
:100C7000630706D530238DF824304FF00108A9F121
:100C80000109582A04D038A20B9208AA0A920BE054
:100C90003AA2F9E75B46089AFFF7F9FB0B9B9B5CCE
:100CA0000A9A521E0A92137050EA0102F2D10A986F
:100CB000ADEB000000F1200B600702D524F4803476
:100CC00001E04FF00109D94502DDA9EB0B0000E07E
:100CD000002000EB0B0141440890AAEB010AE0035D
:100CE00006D4DDE90F232146504600F063F80644A0
:100CF0004FF0000908E009A911F80900DDE90F1219
:100D0000904709F10109761CC145F4DBE0030CD5DD
:100D1000DDE90F232146504600F04CF8064404E07C
:100D2000DDE90F1230209047761C0899481E089084
:100D30000029F5DC08E00A980A990078491C0A9114
:100D4000DDE90F129047761CBBF10001ABF1010BFE
:100D5000F1DC21465046DDE90F2300F019F8064486
:100D60006D1C1BE60928010030313233343536372B
:100D700038396162636465660000000030313233E7
:100D80003435363738394142434445460000000087
:100D90002DE9F041044600251E461746880404D478
:100DA00005E039462020B0476D1C641EF9D5284661
:100DB000BDE8F0812DE9F041044600251E4690462D
:100DC000C80301D5302700E02027880404D505E0BA
:100DD00041463846B0476D1C641EF9D52846BDE82B
:100DE000F0810A68531C0B6010707047006890FA1D
:100DF000A0F000BA00BA704700F002B800F008B8DE
:100E000072B602480168491C016070472800002042
:100E100003490868401E086000D162B670470000B0
:100E2000280000202DE9F04105460878214F0126D1
:100E300006FA00F00C463860086800F0CDFD00218D
:100E4000606800F0B9FD28791B4901EB4010A169E9
:100E5000007F00282868C0F8241519D0607D217D06
:100E60002A680843C2F86C0518E00021A06800F069
:100E7000A3FD207B86403E60E06800F0ADFDD4E934
:100E800002122868C0F80825C0F81015BDE8F081E6
:100E9000607D227D29681043C1F86C05D4E90012F9
:100EA0002868C0F80C15C0F81425207D0128DCD076
:100EB000ECE7000008050050A4000020002901DA3A
:100EC0000020704702681144016001207047000053
:100ED0002DE9F041461C01250020FFF78DFF114947
:100EE000741CD1E900208F68101A3B1A5B1C9C42CD
:100EF0000FD963B10C480D4B3A4000681B6801EBF9
:100F0000820263F39F20D0600868401C08600025BF
:100F100001E0901908600020FFF770FF2846BDE847
:100F2000F0810000C4010020E82600003800002005
:100F3000006890FAA0F000BA704700004FF08040BF
:100F40000021C0F800110121C0F80010D0F80011F4
:100F50000029FBD07047000000B51BA08BB00068D3
:100F600008901AA01AA100680990D1E90001CDE902
:100F70000601182218496846FFF75EFA01208DF82D
:100F800000008DF808001548019000208DF8010040
:100F90004FF416718DF81400ADF80C10684600F08F
:100FA0006DFB00280DD108A800F034FC002808D102
:100FB00009A800F041FC002803D1082106A800F090
:100FC0004DFC0BB000BD0000E7E7E7E7C2C2C2C2BC
:100FD000E7C2C3C4C5C6C7C8B02600006515000077
:100FE00070B508240F25204600F0EFFC641CAC42CD
:100FF000F9D900245FF0010505FA04F010F4F01FA0
:1010000002D0204600F0E1FC641C202CF4D370BD1B
:1010100070B50E460446007918494FF4A27501EBED
:101020004010017F2068A1B14FF4887100F0F8FEF4
:101030004FF49071206800F0F3FE4FF49271206835
:1010400000F0EEFE2946206800F0EAFE0C49206818
:1010500009E04FF48E7100F0D2FE2946206800F0BE
:10106000CEFE08492068C0F80413206800F02FF96C
:101070003146BDE8704000F00EB90000A400002029
:101080001003020080000200FFF7AAFF002000F01A
:101090009FFE08B1872105E0FFF750FFFFF75CFFD7
:1010A00010B18C2100F028FA0024012505FA04F083
:1010B00010F4F01F02D0204600F087FC641C202CA6
:1010C000F4D328A1042000F0F1FD364C00254CF2A9
:1010D0005036A27934A1042000F00EFEE5703148AC
:1010E00000F0F4FB38B13AA1022000F0DFFD3046F9
:1010F00000F080F8EDE7A079410703D000F0070089
:10110000042801D9012100E00021112000F06EFC2B
:10111000A07900F00700012801D9052801D9012193
:1011200000E00021122000F061FCA07900F007002F
:10113000022801D9062801D9012100E0002113204D
:1011400000F054FCA07900F00700032801D8012129
:1011500000E00021142000F049FCA079401CA0719F
:10116000C5E700004150503A44454255473A456E64
:1011700068616E6365642053686F636B4275727358
:1011800074205472616E736D697474657220457851
:10119000616D706C652072756E6E696E672E0D0ADA
:1011A00000000000000000204150503A44454255E4
:1011B000473A5472616E736D697474696E6720701A
:1011C00061636B657420253032780D0A00000000E1
:1011D0004150503A5741524E494E473A53656E641A
:1011E000696E67207061636B6574206661696C6508
:1011F000640D0A0000283ED01F49204A096800BF3C
:1012000000BF00BF00BF00BF00BF00BF00BF9142D2
:101210002FD000BF00BF00BF00BF00BF00BF00BF96
:1012200000BF00BF00BF00BF00BF00BF00BF00BFC6
:1012300000BF00BF00BF00BF00BF00BF00BF00BFB6
:1012400000BF00BF00BF00BF00BF00BF00BF00BFA6
:1012500000BF00BF00BF00BF00BF00BF00BF00BF96
:1012600000BF00BF00BF00BF00BF00BF00BF00BF86
:1012700000BF401EC3D17047780000200024F40056
:1012800000F01F02012191404009800000F1E020A0
:10129000C0F8801170474907090E002806DA00F0EF
:1012A0000F0202F1E02282F8141D03E000F1E022B7
:1012B00082F8001400F01F020121914040098000D3
:1012C00000F1E020C0F88012C0F800117047000B58
:1012D00040B270472DE9F04105460079164F90461F
:1012E00007EB40140E46E07E10B10820BDE8F08107
:1012F000707F20772846FFF795FD5FEA0800606061
:101300003169216003D0317F2846FFF781FE2879BB
:1013100007EB4010007F0028286801D0082100E07A
:101320000421C0F800150020E0752076A075012189
:10133000E176A076DAE70000A40000202DE9F0476E
:10134000054600793E4C0E4604EB4013187F38B139
:101350004FF40050B0EB164F02D01020BDE8F087DC
:10136000284600F06FF808B11120F7E79A750027BA
:101370009E609F8228794FF0010804EB40143E469E
:10138000207F0028286825D04FF49079494600F046
:1013900047FD4FF4AC7A5146286800F041FD2868BB
:1013A000A17DA268C0F84425C0F848152868C0F897
:1013B00008806068F0B94946286800F02CFD804636
:1013C0005146286800F027FD58EA0001F3D058BBC9
:1013D000A7750FE04FF48E7A514600F010FD286893
:1013E000C0F808802146286800F076FF61684FF455
:1013F000807089B13046B1E75146286800F0FAFCA8
:1014000010B9A08A4845F7D1A08A484505D02146A1
:10141000286800F061FF00E08146A08AA17D884233
:10142000EAD3A08A484501D10F26D1E75146286862
:1014300000F0E0FC0028F9D02868C0F80C80C7E76D
:10144000A40000200079044901EB4010807D0028B1
:1014500000D0012070470000A400002070B50446B1
:1014600000791149002601EB401520682A7FC0F859
:101470000065686888B1207901EB4010007F002882
:10148000206801D0094901E008498C39C0F80813E7
:101490002068FFF71CFFFFF7F3FE204600F0BCFDBD
:1014A000EE766E6070BD0000A40000201003020004
:1014B0000D4910B54FF4705008600C490020487079
:1014C00000F0D4FD24210A48FEF7CFFF0848092187
:1014D0000A38FEF7CAFF1420FFF746F80549032033
:1014E000C1F80002002010BD08F501403C000020BA
:1014F000EA0800200010004003460A4608A1012027
:1015000000F028FCBFF34F8F14480168144A01F41F
:10151000E06111430160BFF34F8F00BFFDE70000A2
:101520004150503A4552524F523A417070206661D4
:10153000696C6564206174206C696E652025642087
:1015400077697468206572726F7220636F64653AA0
:10155000203078253038780D0A0000000CED00E0CE
:101560000400FA0570B50446007820B1012807D0C0
:1015700002281FD10DE014A1042000F097FB19E010
:1015800019A1042000F092FB00F060F800F08AF945
:1015900010E01CA1042000F089FB224D05E0287812
:1015A00018B121A1042000F081FB1E4800F0F6F8DC
:1015B0000028F4D024494FF47040086020790007D7
:1015C000000C091F086070BD4150503A4445425517
:1015D000473A5458205355434345535320455645A5
:1015E0004E540D0A000000004150503A4445425507
:1015F000473A5458204641494C4544204556454EAB
:10160000540D0A004150503A44454255473A525809
:10161000205245434549564544204556454E540DB4
:101620000A0000007C0000204150503A44454255D9
:10163000473A525820524543454956454420504167
:10164000594C4F41440D0A000C050050094810B593
:10165000007860B10120FEF787FF07480021816212
:10166000016241620120FEF78AFF002010BD0820C0
:1016700010BD00003C0000201C07002070B50500D4
:1016800076D03C4C207818B1FFF712FF00286DD1BE
:101690006868A061182229463748FEF7CDFE00256C
:1016A000656024213548FEF7E0FE344809210A38F8
:1016B000FEF7DBFE00F080FF00F0D8FC2E49002092
:1016C000183101F5947200BF00EB800303EB401367
:1016D0000B4442F82030401C0828F5DB2849002044
:1016E00001F5947200EB800303EB40130B4442F8C6
:1016F0002030401C0828F5DB2249042008602148DE
:1017000008380560204840F20221C0F80012204A43
:101710001E491160111D08601C48001D091D08604C
:101720001948001D091D0860091D1A48086017485E
:10173000F038091D08601748001D091D0860091DC3
:10174000154808600C4E707C00F003010120FEF784
:101750002CFFB07C00F003011420FEF726FF1420BC
:10176000FEF70DFF657001202070002070BDFFE7BF
:101770000E20FBE73C000020DC050020EA080020EA
:101780004807002010A5004000A0004000110040C4
:1017900060F5014040A100400010004070B50546D2
:1017A0001A48007860B36DB3194CA06A60B3012089
:1017B000FEF7DAFE606A54F820100A782A7054F8AE
:1017C00020104978697054F820108978A97054F86D
:1017D00020100979297154F82010681D491DFEF761
:1017E0002BFE606A401C6062082801D30020606202
:1017F000A06A401EA0620120FEF7C1FE002070BD5D
:10180000082070BD0E2070BD052070BD3C0000207A
:1018100070080020074910B54A780AB1112010BDA0
:1018200030B100688862012000F09EFE002010BDEB
:101830000E2010BD3C000020074910B54A780AB1BF
:10184000112010BD30B10068C862022000F08CFE8B
:10185000002010BD0E2010BD3C00002010B50C462D
:101860000F49497809B1112010BD18B1092C03D3D3
:10187000072010BD0E2010BD014609482246303019
:10188000FEF7DAFD0648C4F108022830FF2104748F
:10189000D1408174042000F067FE002010BD0000DC
:1018A0003C000020074810B5407808B1112010BD59
:1018B0000548806A18B100F06DFC002010BD4FF49F
:1018C000807010BD3C0000201C0700202DE9F04175
:1018D000284F0646387840B156B1307868B1202894
:1018E0000BD8254D297829B109E00820BDE8F08101
:1018F0000E20FBE7E97C884201D90920F6E71F4C5E
:10190000A06A082801D30420F0E7687818B9F078B5
:1019100008B1287D18B30120FEF726FE206A252293
:10192000314654F82000FEF787FD72781448815C38
:10193000491C01F003018154206A54F82020401C06
:1019400008281171206201D300202062A06A401C87
:10195000A0620120FEF713FE687810B107E00620B0
:10196000C4E7287C18B9787808B900F013FC002087
:10197000BCE700003C000020DC0500201C07002024
:10198000E008002030B541EA4201DDE9034541EAC3
:101990008301800041EA042100F1A04041EA0541B1
:1019A000C0F8001730BD1CB5002100910B46012284
:1019B0000191FFF7E7FF1CBD1CB500220B4600920A
:1019C00011460192FFF7DEFF1CBD0321800000F1EC
:1019D000A040C0F8001770471CB5002100910B46CD
:1019E000012201911146FFF7CDFF1CBD012282406B
:1019F00011B10348026070470148001DFAE700007A
:101A000008050050004870477D1A000030B5184C9A
:101A1000054689B0207828B16078854202D100203F
:101A200009B030BD202213496846FEF705FD0020AD
:101A30008DF81400062000900820019005200390E6
:101A4000072002904FF0EB7006900948001DFFF749
:101A500005FD0DB1002200E0074A05486946001D5A
:101A6000FFF738FC0028DBD1012020706570D6E735
:101A70002C000020C8260000492300002DE9F04F6B
:101A8000C1B00D00DDF82CB14D984FF000011C469F
:101A900090460BEB000A409101D00A2600E0002698
:101AA00000F05CFB002873D16F46BCB9409840AA97
:101AB0003918284600F0F8FB002869D04046FEF7A8
:101AC000DFFCC22800D9C220054640982A46384487
:101AD0004146FEF7B1FC4098284440904FF0200961
:101AE0004098821931320DEB02016844002202E075
:101AF00000F8019B521CB242FAD30027544508D388
:101B000000F8019B00F8019B00F8019B01F8019B84
:101B100026E05C4502D24A9A125D03E04C9AA4EB9F
:101B20000B03D25C84460125AB0022FA03F808F0CF
:101B30000F03092B01D9373300E03033C5F1010819
:101B40006D1E0CF80830EFD20CF10200A2F1200358
:101B500000F8019B5E2B00D92E2201F8012B641C9A
:101B60007F1C102FCAD30D220A700A224A7080F8F7
:101B700000904098811943316846409100F0F4FA92
:101B800030B100F0EBFA18B9002040905445A7D3CB
:101B900041B02046BDE8F08F2DE9F043C5B00025E7
:101BA0001C46904689464C9F449500F0D7FAB0BB3E
:101BB000449804AE311844AA484600F075FB00284A
:101BC0002ED0072F22D2DFE807F00412192E384456
:101BD00051004046FEF754FC054644982918FF2959
:101BE00014D830442A464146FEF726FC0EE04498BD
:101BF000226830444146FEF79FFE06E0D4E9002308
:101C0000449841463044FEF797FE0546294644A8CD
:101C1000FFF754F918B14499B1F5807F33D900200A
:101C200045B0BDE8F083A0680090D4E90023449853
:101C300041463044FEF780FEE7E7D4E90201CDE9F2
:101C40000001D4E90023449841463044FEF774FE75
:101C5000DBE704F1080007C88DE80700D4E900239A
:101C6000449841463044FEF767FECEE704F1080091
:101C70000FC88DE80F00D4E9002344984146304452
:101C8000FEF75AFEC1E704A800F06EFAC8E70000AC
:101C900000487047991B0000034AFF23936000230C
:101CA0001360536000F08CB8C40100202DE9F047A8
:101CB000DFF83C800446002689463046D8F8087094
:101CC000D8F80050FFF704F900280ED00948002189
:101CD0003D40406861F3820064F3C50066F38910FB
:101CE00008EB850169F39F20C860BDE8F08700001C
:101CF000C4010020E82600002DE9F047DFF84C8001
:101D000005460127924689463846D8F80860D8F833
:101D10000040FFF7DDF8002815D00D48002104EA47
:101D200006028068641C61F3820065F3C50067F3F6
:101D3000891008EB8202344069F39F2008EB84018C
:101D4000D060C1F80CA0BDE8F0870000C4010020FD
:101D5000E82600002DE9F05FDFF85C8006460227E8
:101D60009B46924689463846D8F80850D8F8004035
:101D7000FFF7AEF800281CD01048002104EA050245
:101D8000C06808EB820261F3820066F3C50067F366
:101D9000891069F39F20641CD06004EA0502641C6A
:101DA00008EB82022C4008EB8401C2F80CA0C1F8B9
:101DB0000CB0BDE8F09F0000C4010020E826000040
:101DC000024A02F5826203C270470000C40100208B
:101DD00070B506460020FFF719FE040008D1FFF792
:101DE00011FE0546FFF754FF32462946FFF754FF20
:101DF000204670BD4058002800D00120704708B52B
:101E0000002242504058009008BDD0F8040308401A
:101E100000D0012070474058002800D001207047B2
:101E200008B5002242504058009008BD70B5164ACF
:101E300040F21310C2F80002144C606A14490860A2
:101E4000144B091D9889823808601348012140F815
:101E50000C1F0021C0F83411C0F838110F4D4FF499
:101E6000E050286050142D1D2860C2F80C1118781D
:101E700010B92169002088470A49094808600A48C2
:101E8000A0600320607070BD001000403C00002086
:101E900040A50040DC05002000A0004004F5014002
:101EA000BE08002004150040E91E000010B50C4CCF
:101EB000606840F00100606000F02CFA0948806A18
:101EC00030B11420FEF766FBBDE8104000F062B9A7
:101ED00000206070BDE810401420FEF75BBB0000DE
:101EE0003C0000201C0700202DE9F04740494FF43A
:101EF000E05008603F4AD2F80C31DFF8FC90002730
:101F00003E4CB9F80E004E14DFF8F4800125DBB327
:101F10003C4B1B68C3B365600E60D8F8041041F0F9
:101F20000101C8F80410D8F81C10401A401CC8F869
:101F3000200000F0EFF999F8000080B109F2E220EA
:101F4000007860B1304800680021C0B200F0C2F8EB
:101F500028B1D8F8040040F00400C8F804002B4869
:101F6000806A50B199F81000012806D01420FEF7BD
:101F700011FBBDE8F04700F00DB988F80170BDE82D
:101F8000F0471420FEF706BBD8F81CC0BCF1010CCA
:101F9000C8F81CC00BD265600E60401CC8F8200059
:101FA000D8F8040040F00200C8F80400E5E740F269
:101FB0001B111746C2F80012D8F81400D8F81010F8
:101FC0000078884710491248283908601148C8F835
:101FD0000800022088F8010025600548001F0660FF
:101FE000D4F84401002800D03D60BDE8F08700002F
:101FF00008F5014000100040DC05002000A0004072
:102000003C000020001400402C1500401C0700205C
:102010009C0800202D1E000070B502464FF0FF30D6
:102020001168D1F80C35D1F81465D1F80855D1F8FC
:102030001045C1F80C05C1F814051168C1F8080570
:10204000C1F810051846FFF7AEFC3046FFF7ABFCB1
:10205000601C02D02046FFF7A6FC681C04D028466E
:10206000BDE87040FFF79FBC70BD0000054900202F
:1020700008624862886201F5AA7108624862886253
:10208000704700001C07002070B50546C87D0C464F
:1020900000284FF4847128460AD0FFF7B0FED5F827
:1020A0001805627EE1688854607E401C607670BDD1
:1020B000FFF7A5FED5F8180570BD1FB501238DF8F3
:1020C00000308DF808100192D0E900126846904760
:1020D0001FBD00002DE9F0411E4C07460E46A06AC8
:1020E000082835D2A4F52572204613780025006A09
:1020F00002F2E221012B03D0537843B1D27C02E0FB
:102100000A78202A24D854F820301A7002E054F8B3
:102110002020157054F82000891C10F8052BFEF7BC
:102120008BF9206A54F820104F700B49096854F855
:102130002020917054F82010401C08280E71206255
:1021400000D32562A06A401CA0620120BDE8F08196
:102150000020FBE770080020481500400148FFF709
:1021600071B900003000002070B50D460A460146E6
:1021700001240648FEF760F9EAB204490448FFF773
:10218000DDF800B10024204670BD0000C40000202E
:10219000300000202DE9F05F3D4C4FF00109C4F8FC
:1021A00020903C48DFF8F0B0A0F5A076416A3B4DA6
:1021B0004FF0110A50F821106161307806F530783F
:1021C00010B1012841D110E0087821698847616980
:1021D00008F102000A7988F80020002288F801201E
:1021E00011F8052BFEF728F915E0C87800B3307D0B
:1021F000F0B100270A7888F800200A7987F00103F7
:1022000043EA420288F8012011F8052B08F1020088
:10221000FEF712F977B140F21B10C5F80002C5F8BD
:1022200004A3F089E0610220C4F808B060700CE0FB
:102230000127DFE740F21310C5F800021020C5F8AF
:1022400004031748A06084F801906069154A41783A
:10225000116040784C4609FA00F0111D08600C48E6
:10226000104928302439C07C0860091FC1F800805B
:102270000120FEF76EF90120FEF781F90020C5F874
:102280000401C5F80801C5F810012C60BDE8F09FF5
:102290003C0000201C0700202D1E00000010004004
:1022A000AD1E00002C15004010B5144602004FF082
:1022B00001000AD00846126805A1FEF73DFB014661
:1022C0002046BDE81040FEF7F9BD0021216010BD99
:1022D0005B253038645D000070B50C4605464FF450
:1022E0008E71FFF78CFDA18AA068415CA08A401C1A
:1022F000A082C5F81C1570BD1FB500228DF8002006
:102300008DF80810816801918275D0E90012684645
:1023100090471FBD10B50B4CA06A002811D00120BA
:10232000FEF722F9A06A401EA062606A401C60624B
:10233000082801D300206062BDE810400120FEF7AC
:102340001EB910BD1C0700200078012801D10149E9
:10235000887070472C0000202DE9FF470C46054689
:102360004FF40071FFF751FD01274FF4017800266B
:1023700018B34FF4927949462846FFF73BFDE0B188
:1023800049462846FFF73BFDC5F80883A07E00B903
:102390006F6002208DF80000D5F88004C5F8800435
:1023A0000390E07D8DF80800E0680190E6752676E0
:1023B000D4E900126846904727E004212846FFF739
:1023C00024FD10B34FF484712846FFF713FDE0B1EC
:1023D00021462846FFF758FEE07D617E884214D1F1
:1023E000207E38B1617EE268E0752069E060267683
:1023F000667607E0A07E00B96F60C5F80883E675D1
:10240000617EE2682046FFF758FE4FF48E78414621
:102410002846FFF7EFFC88B1A08AA17D884204D24C
:1024200021462846FFF758FF08E041462846FFF7B7
:10243000E6FCA17D11B12046FFF75EFF4FF4A278C4
:1024400041462846FFF7D6FC002812D041462846D0
:10245000FFF7D5FCA07E00B12F60E07D002808D0FA
:10246000E675617EE26804B02046BDE8F047FFF7FC
:1024700024BEBDE8FF872DE9FF410C464FF492775B
:1024800005463946FFF7C7FC0026C0B13946284645
:10249000FFF7C6FC02208DF80000D5F88004C5F8CF
:1024A00080040390D5F83C058DF80800E0680190A1
:1024B000E6752676D4E900126846904724E04FF48A
:1024C000887739462846FFF7A6FCE8B13946284602
:1024D000FFF7A6FCD5F83C05C1B2E07D884213D1D8
:1024E000207E60B1E268D5F8000220F02000C5F837
:1024F0000002207EE0752069E060267601E0E67546
:10250000E2682046FFF7D9FD4FF4A2773946284606
:10251000FFF781FC68B139462846FFF781FCE07D72
:1025200038B1E675D5F83C05E268C1B22046FFF740
:10253000C4FD4FF4907631462846FFF76CFC002826
:102540000FD031462846FFF76BFCA07D002808D04D
:10255000D5F84C0504B0C1B22046BDE8F041FFF704
:10256000CBBEBDE8FF81000010B50446C00704D013
:102570000F48FEF73BFC0F490860A00706D50C4842
:10258000001DFEF733FC0B49091D086060070DD5DF
:1025900007480830FEF7CCFC0649083108600448BB
:1025A0000C30FEF7C5FC03490C31086010BD00007B
:1025B000640000201C15004010B500F043F81B48D3
:1025C0001B49027A0A601B4940235AB1012A04D0F0
:1025D000022A04D0032A06D104E0302200E0FA22C5
:1025E0004A6200E04B6202781AB1012A03D1124A12
:1025F00000E0124A0A610E4B427A24331A600C4BF7
:102600002C331C1F022A02D0012A05D009E04FF604
:10261000FF721A600A4A03E0FF221A6040F20712B2
:102620002260C07C0969BDE810400847DC05002035
:10263000101500403C0000208526000059260000AF
:102640002110010002480349807A086070470000A9
:10265000DC0500200C150040084A074911600849B4
:10266000497C491E090441EA0021014341F0807080
:10267000111D0860704700000001010014150040A2
:102680006400002007490648086007480749407C65
:10269000401E41EA00400349091D086070470000E0
:1026A0000600030014150040640000202000000113
:1026B000010000000000000001020000FA00030019
:1026C0000001022000000000FFFFFFFFFFFFFFFFEF
:1026D000FFFFFFFFFFFFFFFF000000000000000002
:1026E0000000D601060100002900000001000000E2
:1026F00001000000010000000100000001000000D6
:102700000100000001000000020000004F76657229
:10271000666C6F770D0A000038270000000000206B
:102720007C00000060090000B42700007C0000204D
:10273000942800007009000008000000000100005B
:102740000011000000000000000000000000000078
:102750000000000000000000000000000000000079
:102760000000000000000000002000400000000009
:102770000C27000000000000000000000000000026
:102780000000000000000000000000000000000049
:10279000000000000000000000000000E7E7E7E79D
:1027A000C2C2C2C2E7C2C3C4C5C6C7C80805FF02C9
:0427B0000090D003C2
:0400000500000401F2
:00000001FF
