:020000040001F9
:10F00000D84F002015F401001DF401001FF4010089
:10F0100021F4010023F4010025F4010000000000A8
:10F0200000000000000000000000000027F40100C4
:10F0300029F40100000000002BF401002DF4010070
:10F04000F5F601002FF40100D5FB0100C9F801001D
:10F050002FF401002FF4010019F5010071F70100F0
:10F060002FF401002FF401002FF401002FF4010010
:10F070002FF401002FF401002FF401002FF4010000
:10F080002FF401004DF701002FF401002FF40100CF
:10F0900011F901002FF4010015F901002FF401000E
:10F0A0002FF401002FF401002FF401002FF40100D0
:10F0B0002FF401002FF40100000000000000000008
:10F0C0002FF401002FF401002FF401002FF40100B0
:10F0D0002FF401002FF401002FF4010000000000C4
:10F0E0000000000000000000000000000000000020
:10F0F0000000000000000000000000000000000010
:10F1000000000000000000000000000000000000FF
:10F1100000000000000000000000000000000000EF
:10F40000DFF80CD000F04AF800480047053602004B
:10F41000D84F00200648804706480047FEE7FEE731
:10F42000FEE7FEE7FEE7FEE7FEE7FEE7FEE7FEE7B4
:10F4300039F9010001F4010040EA01039B0703D000
:10F4400009E008C9121F08C0042AFAD203E011F823
:10F45000013B00F8013B521EF9D27047D2B201E0E5
:10F4600000F8012B491EFBD270470022F6E710B5C9
:10F4700013460A4604461946FFF7F0FF204610BD22
:10F4800030B504460020034600E05B1C934203D2E3
:10F49000E05CCD5C401BF8D030BD0000064C074D51
:10F4A00006E0E06840F0010394E807009847103454
:10F4B000AC42F6D3FFF7A8FF50750200707502004A
:10F4C00070B58C1810F8015B15F0070301D110F826
:10F4D000013B2A1106D110F8012B03E010F8016B53
:10F4E00001F8016B5B1EF9D12B0705D40023521ED6
:10F4F0000DD401F8013BFAE710F8013BCB1A921C3E
:10F5000003E013F8015B01F8015B521EF9D5A1423B
:10F51000D8D3002070BD00002DE9FC5F0025DFF886
:10F520003891A8464FF4807601242F46304604F0E7
:10F530001FFD38B1D9F80403204203D0304604F04F
:10F540000DFD2543361D64007F1CB6B2082FEDD398
:10F550004FF4BE74204604F00BFD38B1204604F091
:10F56000FDFC3E4845F00045D0F800803C4E15F0CB
:10F57000FF0F15D0012700242F420DD009EB840185
:10F58000D1F81005D1F81015C0F3042056F8242046
:10F59000C1F3014102B190477F00641C082CEBD3FA
:10F5A000002D56DA00200190401E4CE0701910F832
:10F5B000501F90F9000021F0C004401C38D00120F9
:10F5C00000FA04FA1AEA090F32D04FEA911B2046DA
:10F5D00002F0D2F856F82000009010B9BBF1030FEA
:10F5E00026D15146BBF1030F02D101980843019087
:10F5F000A00000F1A040D0F800071AEA080FC0F3FD
:10F60000014002D0022802D012E0032810D1BBF141
:10F61000030F07D102281AD00221204604F088FCEB
:10F620007F1CFFB2009818B1009A594620469047B7
:10F630006D1C042DBAD3002F0BD00848006840453C
:10F6400007D080460198002781463D46AEE703215A
:10F65000E3E7BDE8FC9F000000600040100500509B
:10F66000602D002000F01F02012191404009800020
:10F6700000F1E020C0F88012704700F01F02012165
:10F6800091404009800000F1E020C0F880117047EF
:10F6900000F01F02012191404009800000F1E020AC
:10F6A000C0F80011704700F01F020121914040098D
:10F6B000800000F1E020C0F80011704700F01F0248
:10F6C000012191404009800000F1E020C0F80012C3
:10F6D00070474907090E002806DA00F00F0000F114
:10F6E000E02080F8141D704700F1E02080F800143D
:10F6F000704700002DE9F0414FF48077384604F060
:10F70000F5F80124104EA50748B1384604F0F5F885
:10F710000120C5F808037470002002F08FF84FF440
:10F720008277384604F0E2F800280BD0384604F01F
:10F73000E4F80220C5F80803B470BDE8F0410120E8
:10F7400002F07CB8BDE8F0814C2D00200748002174
:10F75000C0F84011C0F84411C0F84811C0F84C116D
:10F76000C0F80011C0F8041107F05CBA00100140A5
:10F770002DE9FE434FF48278404604F047FC504F99
:10F780000025504C012600B3404604F047FC94F895
:10F790002B0010B194F82C10D1B18DF80050616895
:10F7A00001912189ADF80810E16829B16160A18A51
:10F7B0002181E56018B103E084F8295000E03E6043
:10F7C00021686846884784F82C5094F82B0098B339
:10F7D0004FF48077384604F019FC68B3384604F0DB
:10F7E0001DFCE28A72B194F82A108A4210D9A2EB69
:10F7F000010080B2E0822289A2EB0000626802EB85
:10F8000040000BE0208994F82A10A0EB0100F0E7FB
:10F8100007D1E06828B184F82C60E58204F0B0FBE1
:10F8200004E08A4202D184F82C60E582404604F06C
:10F83000F5FB2348001D06604FF48877384604F036
:10F84000E5FB50B1384604F0E9FB84F8295002206A
:10F850008DF800002168684688474FF48A7738465B
:10F8600004F0D4FB30B1384604F0D8FB84F82950BA
:10F87000BDE8FE834FF000484FF48C7927691CE007
:10F88000B7FA87F028FA00F109EB80058F43284684
:10F8900004F0BCFB88B1284604F0C0FBA5F58C75CC
:10F8A000E8088DF8040045F38000401C8DF80060E6
:10F8B0008DF80500216868468847002FE0D1D7E71A
:10F8C00000700040B82D0020F8B510480E4D0446D9
:10F8D0004FF48C7104F0ACFB002813D00026C4F860
:10F8E0001861D4F818010090A87E2C46FF2801D09A
:10F8F00004F02CFB66762671216801B0201DBDE85E
:10F90000F0400847F8BD0000082E002000300040FD
:10F9100007F000B9074810B5406830B180470028AB
:10F9200007D0BDE8104000F011BCBDE8104003F066
:10F930001BBB10BD50220020F0B598480023021DCB
:10F9400001780125101D4FF08056062907D1147843
:10F95000240704D10478C4F30314032C02D006292D
:10F9600004D00FE08F4F8E4C7C670EE01478240794
:10F9700008D10478C4F30314032C06D0042C04D05B
:10F98000052C02D0062907D00EE0D6F84442864F57
:10F99000C4F342343C6002E01478240704D10478B4
:10F9A000C4F30314032C02D0062906D011E07F4CC7
:10F9B000276827F0807727600EE01478240708D1A5
:10F9C0000478C4F30314032C06D0042C04D0052CB3
:10F9D00002D006290AD011E04FF08044C4F80C315F
:10F9E000C4F81031704C241F236002E014782407FF
:10F9F00004D10478C4F30314032C02D0062905D0E3
:10FA00000CE0694F032464373C600AE01478240753
:10FA100004D10478C4F30314032C02D006290DD0BA
:10FA200014E0634F05243C60614C78342560604CE1
:10FA3000083423603F243F1D3C6002E01478240713
:10FA400004D10478C4F30314052C02D0062957D03E
:10FA500068E058490968584A11605649091D096803
:10FA6000121D1160534908310968121D1160514976
:10FA70000C310968121D11604E4910310968121DC0
:10FA800011604C4914310968121D1160494918313F
:10FA90000968494A2032116046491C310968121D23
:10FAA0001160444920310968121D11604149243117
:10FAB0000968121D11603F4928310968121D116043
:10FAC0003C492C310968121D11603A4930310968EE
:10FAD000394A40321160374934310968121D1160CA
:10FAE000344938310968121D116032493C310968C6
:10FAF000121D11602F4940310968121D116002E08A
:10FB0000117809070ED10078C0F30310032803D041
:10FB1000042801D0052805D1D6F85802274900F05D
:10FB20004F00086021487438016841F47001016099
:10FB3000BFF34F8FBFF36F8F4FF01021D1F800024A
:10FB4000002803DBD1F80402002822DA1C4A1560E1
:10FB50001C480468002CFCD01524C1F8004205683C
:10FB6000002DFCD0C1F8044201680029FCD01360CC
:10FB700001680029FCD0BFF34F8F0C48F0380168B2
:10FB8000114A01F4E06111430160BFF34F8F00BFE0
:10FB9000FDE70F490D480860F0BD0000E00F00F0E0
:10FBA0000DF0ADBA00C007403C050040FCED00E0A0
:10FBB000105600400404001020C50040E40E004030
:10FBC00004E5014000E401400400FA050090D00380
:10FBD000642200200448017F04480029024901D022
:10FBE00007F054B907F0C3B8E82D0020002000400A
:10FBF00002E008C8121F08C1002AFAD170477047F6
:10FC0000002001E001C1121F002AFBD17047000053
:10FC10000121202803DA81400548014003E0402803
:10FC200002DA2038814009B1012070470020704776
:10FC3000FC06FFBC0EB51149002004F067F808B1BE
:10FC400000F084FA0E4A07CA8DE8070069460020D2
:10FC500004F03AF808B100F079FA0121094803F0FC
:10FC6000E1FF08B100F072FA06480121801C03F0A0
:10FC7000D9FF002801D000F069FA0EBD195E02001C
:10FC8000447402002C21002010B560B159B10278F3
:10FC90000B785208B2EB530F05D10622401C491CC9
:10FCA000FFF7EEFB08B1002010BD012010BD2DE9CB
:10FCB000FC47002517880646158090F82D0014464D
:10FCC000894630B13A462146484601F079F80500A8
:10FCD00009D1B0784FF00C0A18B32088C846001D2F
:10FCE000B84202D95046BDE8FC87684679DF002853
:10FCF000F9D12088032108F8001020881921401C20
:10FD000080B2208008F800102088401C80B220803B
:10FD100000EB0801BDF8000007F030F92188084425
:10FD20002080F0780222C8B1218896F9033001F1D1
:10FD3000030C4846BC45D5D8425421884FF0010CED
:10FD4000491C89B2218000F801C02188491C89B270
:10FD5000218009F801302088401C20807068B8B1EB
:10FD6000218890F9003001F1030C4846BC45B9D810
:10FD7000425421880A22491C89B221804254218898
:10FD8000491C89B2218009F801302088401C20805C
:10FD9000308950B1CDE900474B460622022106F1D9
:10FDA000080007F045F905009DD1308A50B1CDE932
:10FDB00000474B460722032106F1100007F038F9EF
:10FDC000050090D1308B50B1CDE900474B4615224C
:10FDD000142106F1180007F02BF9050083D1306AD1
:10FDE00030B13B462246494601F092FD0500DBD189
:10FDF000706A30B13B462246494603F0B3FC050029
:10FE0000D2D196F82C0038B13B46224649463046BE
:10FE100006F0B8FA0500C7D1307838B13B46224623
:10FE20004946304603F0D0FC0500BDD128465AE7CC
:10FE3000134A0021535C0BB1012203E0491C06293F
:10FE4000F8D300220F49012806D0022809D0032840
:10FE50000CD0042812D10DE0487810B10AB101206D
:10FE60007047887810B10AB102207047C87808B18D
:10FE700003207047087908B10420704700207047BC
:10FE8000792100200826002010B50122022100203F
:10FE900001F08CFA08B1072810D1072202210120B5
:10FEA00001F084FA08B1072808D100210A22084687
:10FEB00001F07CFA08B1072800D1002010BD10B570
:10FEC000032000F07BFC002803D0BDE8104000F0C8
:10FED0003DB910BD70B58CB015460E4600236C467A
:10FEE000C3F10F01415CE1545B1C102BF8D30D21D1
:10FEF00004F11000FFF7B9FA0020C0F10F02315CE5
:10FF00002244401C11740328F7D3684643DF0020C5
:10FF1000C0F10F01214491F820102954401C0328FE
:10FF2000F6D30CB070BD70B590B005461C21684684
:10FF3000FFF79BFA9DF80000002440F004008DF8C4
:10FF40000000039401268DF8366042F60620ADF8D5
:10FF500034000C949DF83000019420F0FF008DF8DF
:10FF600030009DF83100049420F00F00401C20F078
:10FF7000F00020308DF831009DF83200059420F01B
:10FF80000600801C20F019008DF832000694142120
:10FF900007A8FFF76AFA0DA807900CA88DF838405B
:10FFA0000890ADF824600EA8ADF82640ADF82860A2
:10FFB0000B90A888AB1D07AA6946A2DF10B070BDE0
:10FFC000F0B58FB00D4606461C216846FFF74DFA86
:10FFD00000249DF80000039440F00A008DF8000012
:10FFE000012701948DF8367042F60620049405949A
:10FFF0000694ADF834000C94687A8DF83000A87A35
:020000040002F8
:100000008DF831009DF83200142120F00600801C8C
:1000100020F019008DF8320007A8FFF726FA287A99
:100020008DF838000DA807900CA80890ADF8247042
:100030000EA8ADF82640ADF828700B90308906F177
:100040000A0307AA6946A2DF0FB0F0BD10B528B1B8
:10005000012805D002280CD1102002E0112000E078
:100060000D2001F0C5F9002803D0BDE8104000F0D4
:100070006DB810BD064800684FF40021044A814362
:10008000121D1160111D00F400200860704700006F
:100090000405005070B50024064D06E06868012193
:1000A00010F8340003F0CEFC641C28788442F5D3A9
:1000B000002070BD00220020F8B515460C4606460B
:1000C000052A01D20720F8BD03F0A2FD18B903F0FC
:1000D00071FD0028F7D1104900204E600C70C1E975
:1000E00002500E4D08610DE006EBC40069680091F6
:1000F00081788DF801100078094A694603F0F4FC14
:100100000028E0D1641EE4B2EED2BDE8F840054A12
:100110000021024800F026B80022002034750200B9
:10012000652902002D1B0200BFF34F8F05480168AF
:10013000054A01F4E06111430160BFF34F8F00BF36
:10014000FDE700000CED00E00400FA050EB500210B
:100150000091CDE901106A4644F20100FFF7E4FF87
:100160000EBD0000074B5B6823B12AB120B10068C7
:10017000037C1BB10820704707207047417442611F
:1001800000207047242200202DE9F04707469846BA
:100190001446894690074FF0000526D12CB305F090
:1001A000F7FD134E06F11000C6F80C80057045707F
:1001B00080F8029044607560357075701420FFF708
:1001C00051FA06211420FFF784FA1420FFF760FA91
:1001D0000848076006211120FFF77BFA0548001F39
:1001E0000068B0600020BDE8F0870720FBE7000052
:1001F00014220020081501402DE9FC47DFF8789013
:10020000D9F8043073B368B3052902D20720BDE8DA
:10021000FC87436933B3437C012B25D00027044678
:100220000025884616468DF80050684600F038F8DC
:1002300001A806F0E5FEC8B1012101700F49446034
:100240000968C0E90218C0E904769DF8040089F83D
:1002500001009DF8000000F047F81420FFF72EFA87
:100260002846D4E70820D2E70F46D8E704259DF8B2
:10027000000000F039F8F3E72422002004150140C3
:100280000649496839B130B1416921B10021017491
:10029000022106F0A3BC08207047000024220020A1
:1002A00030B5EFF3108172B60D4A9468012324B182
:1002B0000370002900D162B630BD93604FF0E02397
:1002C000D3F88051074C25401560C3F88041D3F81E
:1002D000844154605A17C3F8842100220270E8E771
:1002E000482E0020FC06FFBC0B498A68002A11D06A
:1002F00000280FD1EFF3108072B60B684FF0E022A8
:10030000C2F800314B68C2F8043100228A6000282C
:1003100000D162B670470000482E00202DE9F0435E
:10032000044687B0008800F067FC8146208802F010
:100330008DFD214F8046667A208800223978A56895
:1003400000F0A8FCB9F1000F33D06079400711D557
:100350000721404604F0D4FBA0B108218DF80C1011
:1003600021880590ADF80E10ADF8108003A801F0BB
:100370003BFD07E02088B97800F078FC10B14046DA
:1003800002F050FD03208DF800002088ADF8020037
:100390006079C0F380008DF80400A079C0F380007C
:1003A0008DF805008DF806508DF80760684601F05D
:1003B0001BFD07B0BDE8F083E421002000B585B047
:1003C00014216846FFF751F81B48009001208DF872
:1003D00004000020029064208DF80C009DF80D00B0
:1003E000694620F00F00401C20F0F00010308DF81E
:1003F0000D009DF80E0020F00F00401C20F0F000D2
:1004000010308DF80E009DF80F0020F0FF008DF8E1
:100410000F009DF8100020F00F00401C20F0F000AD
:1004200010308DF81000054800F087FA002801D040
:10043000FFF78CFE05B000BD994002006C2500203E
:100440002DE9F0430546007D93B00E460024A0B18F
:1004500007949DF81C0020F00F00401C20F0F000D5
:1004600010308DF81C00707B8DF81D009DF81E006B
:1004700020F00600801C8DF81E001C216846FEF747
:10048000F4FF9DF8000040F002008DF80000297D87
:1004900011B140F0100001E020F010008DF80000D4
:1004A000019403940494287D00B107A8CDE90504C4
:1004B00001278DF8427042F61920ADF840000D94E6
:1004C000B07B8DF83400F07B8DF835009DF8360058
:1004D000142120F00600801C20F019008DF8360051
:1004E000307B8DF8440008A8FEF7BFFF0DF14008EF
:1004F0000DF13409ADF8287011A8CDE90889ADF8DF
:100500002A40ADF82C700C90A888AB1D08AA69464B
:10051000A2DF002838D1B06898B38DF8427042F657
:100520000810ADF840000D94307C8DF834009DF833
:10053000350020F0FF008DF835009DF8360020F0E2
:100540000600801C20F019008DF836000EA8B16856
:1005500000F0C3FD0646142108A8FEF786FFADF89B
:1005600028600EA8CDE90889ADF82A40ADF82C60C6
:100570000C90E88805F10E0208A9A3DF002803D13A
:1005800001E0FFE7EC81002013B0BDE8F08310B577
:1005900003F000FC002803D0BDE81040FFF7D6BDF3
:1005A00010BDF0B50C4693B01F210726ADF8001022
:1005B000ADF80410002750B1C17849070DD56A463F
:1005C00002A9FFF774FB002808D102AD02E0002564
:1005D000ADF800706CB1E07810B1304613B0F0BDEA
:1005E00001AA0AA92046FFF762FB0028F6D10AAA51
:1005F00002E00022ADF80470BDF80400C3B2BDF8FB
:100600000000C1B2284672DFE8E700002DE9F0479C
:100610001F46DDF8208013468946040042D0EBB324
:10062000404D012000262870EE70202219463E48D9
:10063000FEF702FFC5E904784FF6FF702881AE612E
:100640003948AE83AE7738212030FEF70EFF3648AA
:10065000217820300170A1788170E178C1706178D3
:1006600041703149D4E90423C1E90C23D4E90223C0
:10067000C1E90A23D4E90623C1E90E23616AE1B185
:1006800000F1380100F1440241628A60636A1B880C
:100690000B80616A436A8988998000E002E000214A
:1006A000436A07E00E20BDE8F087656AAD686D5CBF
:1006B0005554491C9D888D42F7D8A16AD9B11A4A70
:1006C0009032A2F10C018A608162A36A9B888B80C0
:1006D000A16A836A098819800021836A04E0A56AF7
:1006E000AD686D5C5554491C9D888D42F7D894F8CF
:1006F0002C1080F82C10216A49B10A490A31016294
:10070000226A52884A80216A026A098811806168D7
:1007100001B141604946BDE8F04703482030FFF78A
:1007200040BF0000602100200826002010B501888D
:10073000144C102918D011291CD01B2919D1007A6A
:10074000002816D1E0780521401CB0FBF1F201FB36
:10075000120000BF00F032F800280AD061690029B9
:1007600007D0BDE810400847C17B012901D180882E
:10077000208110BD00216171808821898842F8D1D3
:100780000120E7E76021002010B5022801D00328EE
:1007900010D1094C607800280CD000206070E078FF
:1007A00000F00CF8002805D06169002902D0BDE8EE
:1007B0001040084710BD0000602100202DE9F041E5
:1007C0003D4C804686B0207848B184F8038004A868
:1007D00001F0D4FD0498012628B1667067E0082076
:1007E00006B0BDE8F0810025A561344FA583A5774B
:1007F000787810B1E078012806D0B87858B1E07860
:10080000012801D0022806D1216919B126710820DA
:10081000884700E025714046FFF70AFBE070216938
:1008200039B1032801D0042803D1387808B16079A0
:1008300090B1A57100950295019503958DF8005032
:100840008DF808501C48E1781830052925D2DFE8DA
:1008500001F03008111D2100E571A67107208847BD
:10086000E8E7A67001908DF80060ADF80C50ADF887
:100870000A5014E00221A17001908DF80060B8893F
:10088000ADF80C003889ADF80A0008E0684605F0BC
:1008900027FE02E0684605F047FEE07818B168469A
:1008A00073DF00289CD1216909B1A0788847002016
:1008B00096E7A570F7E700006021002008260020D9
:1008C00073B586B0040034D0217C9DF81C20002034
:1008D00091422CD0002501260095ADF8006007A8B4
:1008E000ADF802500190E188608A6A46A4DF0028D2
:1008F0001DD19DF81C002074608AA0F57F41FF394E
:1009000019D0207DB8B10295039504950595E0882E
:10091000ADF80800BDF80200ADF80C0001988DF8A4
:100920000A60CDF810D00590608A02A9A6DF08B051
:1009300070BD0E20FBE70820F9E738B50D4604002E
:100940001BD0D5B1286820604FF6FF7060822879EF
:100950002075FF20207401208DF8020041F60F0061
:10096000ADF80000221D69460120A0DF002803D158
:1009700029462046FFF764FD38BD0E2038BD38B546
:10098000002823D0002921D00A88102A19D0112A42
:1009900019D0502A1AD10446007D002816D031F80B
:1009A000060F6289904211D1488902280ED1206831
:1009B00000280BD001F10C0000F08BFB38B10020B7
:1009C00006E0898801E04FF6FF71418238BD0120C1
:1009D0008DF80000226869462046904738BD000027
:1009E00070B5054601461C220F48FEF725FD0F4C49
:1009F00000262670286830B1016861604068A060F8
:100A0000201D7ADF02E00948001D7BDF00280AD1A3
:100A10004FF6FF7060806670BDE87040044A0021A8
:100A20000448FFF79FBB70BDD8260020802100201E
:100A3000896F02009C74020070B51E4C068800236A
:100A40001B49E289102E15D01B4D112E1CD0122EE1
:100A500029D0502E17D130F8061F914213D1418969
:100A6000022910D10C3000F034FB88B1BDE8704091
:100A700000F094BF84884C800469CC6040690861B0
:100A80004B70002AF2D070BD4FF6FF7048804B705B
:100A90002868FFF7F5FB0028F5D0A1690029F2D0FE
:100AA000BDE8704008478268CA60C0680861DDE739
:100AB00080210020D82600209C74020002490A7D73
:100AC000091D05F0A7BA0000F426002002460248DE
:100AD000C17D001D05F08BBAF426002002460248B5
:100AE000017E001D05F083BAF42600202DE9F047B1
:100AF000044603883F4801228CB000F1150A102BF0
:100B000009D0112B55D01A2B71D1217AB2EB111FBC
:100B100054D2012353E0027D417D05468A43011DE5
:100B200006A805F077FA142206A901A8FEF784FCAE
:100B3000DFF8C0900026374609F114090DF10408CA
:100B40000AE000BF08EB46001D2283884946281DA5
:100B5000009705F011FA761C0198B042F2D8287D72
:100B6000A688C043C0B205F029FAA0F57F41FF393D
:100B700017D005EB40000123868032465146281DE0
:100B800005F06DFA012332464946281D05F067FA43
:100B9000E07B02280BD000231649A2881631281DBD
:100BA00020E00CB00420BDE8F047FFF7CFBA0123E6
:100BB000F2E70023A2885146001D13E000230D49EF
:100BC0000546A2881731001D05F049FA207A022156
:100BD000B1EB101F01D2012300E000230549A288D8
:100BE0001831281D0CB0BDE8F04705F038BA0CB03C
:100BF000BDE8F087F426002070B50A4E05460024B3
:100C0000317D2A46301D05F0F2F940B1B17D2A460A
:100C1000301D05F0ECF908B1022400E00124204663
:100C200070BD0000F426002010B50024204606F018
:100C3000DBF928B1641CE4B2182CF7D3182010BDDE
:100C400003480122A240016811430160204610BD03
:100C5000F426002010B5044606F0C6F9002802D09C
:100C600001482044407E10BDF426002070B50546A2
:100C70000C46084606F0B8F9002808D004482A4671
:100C80000119001D497EBDE8704005F0B0B970BD86
:100C9000F426002070B5064615460C46084606F0B8
:100CA000A3F9002809D005482B4601193246BDE8B2
:100CB0007040001D193105F0D2B970BDF426002036
:100CC00070B540B10C4D297839B1044605F03CF8B7
:100CD00028B1002070BD0E2070BD082070BDE868EE
:100CE000062807D20549226801EB8001401C0A60F2
:100CF000E860EEE7042070BD942100202827002042
:100D000040B1054900220123CA600B70C1E901020C
:100D1000104670470E2070479421002000281FD0F5
:100D200000291DD00F4A1278002A19D00A88112AEA
:100D30000ED0302A06D0322A07D0332A10D1091D0E
:100D400003F0AABA091D03F05DBB091D03F01EBA2A
:100D50008988B0F8AA21914202D1002180F8A71118
:100D6000704700009421002010B50B46040009D004
:100D70001148017841B1C16831B194F8A71129B186
:100D8000112010BD0E2010BD082010BDA4F8AA31FE
:100D90000021816084F8A811084884F8A611224631
:100DA000006820600121184694DF0028EDD1012061
:100DB00084F8A701002010BD9421002028270020DE
:100DC0007CB5054608880C460930904201D90C20B4
:100DD0007CBD68466DDF0028FAD121880820685460
:100DE00020881B21401C80B2208029542088401C70
:100DF00080B220802844DDF801100160BDF80510A4
:100E000081802088801D80B220809DF800104908D4
:100E100000D0012129542088401C208000207CBD66
:100E200010B50446FFF762FE204604F033FB21466E
:100E30001448FFF773FF2046FFF7FEFD21461248D6
:100E400000F0D5F810482146103000F016F90E4891
:100E500021462430FFF793FD0B4821463C3000F03B
:100E60003EF8094821460C3800F089F9204600F088
:100E7000B3F9204603F02AF92046BDE81040FFF7F9
:100E800055BC0000902300204825002018B10181A6
:100E9000C282002070470E207047C8B10A68BAB1FC
:100EA000B1B104C0496842F6062202C04FF6FF7194
:100EB00020F8081B0021C180012100F8021920F848
:100EC000022900F8021941F602010180FFF7F8BE7D
:100ED0000E207047C08A002800D0012070471FB53F
:100EE0000988112911D104464FF6FF702081204650
:100EF000FFF7F0FF002808D002208DF800002268DC
:100F00006946204690470020E0821FBD7FB500243F
:100F1000009401220194029403948DF800204A88E1
:100F2000ADF802200A7801F10E0312BB8A88A2F5FF
:100F3000C055023D1DD18A79012A1AD1002215E03F
:100F400002EB420533F82560A6F60626B6F5005FEB
:100F50000BD103EB85052E79760706D52E68019611
:100F60006E6802962D89ADF80C50521C0D7A954290
:100F7000E6D8BDF80C1009B18DF80040026869464A
:100F800090477FBD13B584B00446FFF7A3FFA0B11F
:100F90002089E48A00230122009305A90193ADF87A
:100FA00002400224ADF8043002918DF80040ADF803
:100FB000062069469CDF06B010BD0520FBE738B56A
:100FC0000446086888B1206001208DF8020041F6CF
:100FD0000200ADF80000221D69460120A0DF0028B4
:100FE00002D12046FEF79FFF38BD072038BD08B567
:100FF0000A88102A13D0502A10D131F8062FC3883E
:101000009A420BD14A89012A08D100228DF800208A
:10101000097B8DF8011002686946904708BD8988F0
:10102000C18108BD1CB5002201230092ADF800303B
:10103000ADF8022001914189408A6A46A5DF1CBDB6
:1010400038B5044608680D46A8B12060686860603D
:1010500001208DF8020041F60300ADF8000004F114
:10106000080269460120A0DF002803D12946204656
:10107000FEF7A6FF38BD072038BD38B50B88002223
:10108000102B0DD0112B0ED0192B1CD1097A002951
:1010900019D18DF800208DF801206946026816E00C
:1010A00089884182F5E70446087A08280BD18DF833
:1010B000002020460DF10101FFF7B4FF20B1616867
:1010C000002900D0884738BD2268694620469047ED
:1010D00038BD007800F0010070470A780270497846
:1010E000417002207047000000B5164889B0002307
:1010F000406807905022144907A805F0B9FC08B1D0
:10110000FFF724F86A460121002005F09BFC08B196
:10111000FFF71CF81720ADF81000684605F088FCB2
:1011200008B1FFF713F8094805F078FC08B1FFF79C
:101130000DF8074805F0D4FC002801D0FFF706F8A9
:1011400009B000BD3474020040230020210E0200CB
:10115000016B020038B5044601208DF8020041F60B
:1011600004000D46ADF80000224669460120A0DFCC
:10117000002803D12946204605F0B4FD38BD0A8871
:10118000102A01D189884181704700007CB5114E39
:101190000C004FF00005306015D06946002000F0CB
:1011A000B1F8002815D101A9012000F0ABF8002802
:1011B0000FD19DF8041009B1022003E09DF8001042
:1011C00001B10B202070706810B9FEF75DFE054676
:1011D00028467CBD5821002010B51A4C0188606853
:1011E00010290ED011292BD1401E606028D1FEF7A6
:1011F0004BFE002824D02168002921D0BDE81040F2
:101200000847D0B900210122084600F0CFF808B104
:1012100007280FD107220221012000F0C7F808B1EA
:10122000072807D104220221002000F0BFF820B1D6
:10123000072802D0216801B188476068401C6060BF
:1012400010BD00005821002010B5032000F040FA26
:1012500008B1062800D1002010BD00002DE9F0479C
:1012600007460024244802E0641C042C41D250F8B4
:101270002420BA42F8D1042C3BD21F48DFF87C90DE
:101280001F4E0C38A9F1140841B301290FD00229CF
:101290002FD104EB440030444578002D29D0D8F8F4
:1012A0001010002925D02846BDE8F047084704EB78
:1012B0004401755C0E44717861B1D8F804100F4A8E
:1012C00001EB81014900133A8068FEF795FF08B9E8
:1012D00088F80170B17809F80410DEE78068FEF73D
:1012E000CFFF04EB4401314419F804008D78A84283
:1012F000D3D0BDE8F08700006C74020054210020B8
:10130000DC25002004280CD2074A1268074B13F88A
:10131000203001209840904300D001200870002028
:1013200070470020FAE70000100500506C740200BE
:1013300010B504280DD00A2807D00D2811D00E288A
:101340000ED1112000F054F809E0BDE8104005F07E
:101350000DB914481321008976DF082800D0A8B9F8
:1013600010BD114C20780028FAD0607890B100218F
:101370000C48FFF707FE78B1A0F540510439EFD0D3
:1013800043F201418842EBD00528E9D0BDE8104086
:10139000FEF7DCBE0221EBE7607880F001006070B0
:1013A00010BD0000842500202821002070B50023F6
:1013B000042810D20D4D00EB4004012A02D101296E
:1013C0000CD00022094E00EB4000304461B10129ED
:1013D00006D0022906D00723184670BD0D30C2B2D0
:1013E0002A55F9E74270F7E78270F5E7DC2500201F
:1013F000044A01460020127AD20702D0084600F0C3
:1014000055B870474021002070B50E462149054669
:1014100000200A61C1E90165A9071BD5002401224A
:1014200011462046FFF7C2FF641C042C02D200289C
:10143000F5D00FE070B9720804211748FEF73CFEA2
:1014400040B9FEF727FE28B91348144A0021143882
:10145000FEF788FEE9070AD0114A4FF4F011116037
:101460000F4B00221B1D1A600D4A1032116000281C
:101470000FD109480B4A00211C38FEF773FE0028E3
:1014800007D1BDE8704004480121074A1838FEF72B
:1014900069BE70BD402100207C7402000D1702005F
:1014A0000805005069300200750002002DE9F84F70
:1014B000854EDFF810A24FF4E01CF16807462CEAD5
:1014C000010C0091002071680AF10404251D7F4B76
:1014D0004FF400324FF4802B01EB810E8146182F20
:1014E00016D2DFE807F00C17173A4E607083868F2C
:1014F000868FEAA0A0A0A0A0CAD1D8E1EAEA009A0B
:101500004FF4F01191432160C5F8009086F80090E7
:10151000BDE8F88FC4F800C04846C5F80090DAF876
:1015200000C08CF4F01C5FEA8C3C09D52260286076
:10153000022F02D14FF4E16008E04FF47A6005E039
:101540002A602060022F3CD04FF4C8706422B0FBA8
:10155000F2F04143377000225EE0C4F800C0484614
:10156000C5F80090DAF800C08CF4F01C5FEA8C3CFF
:1015700004D5226028604FF44870E7E72A602060B5
:101580001FE0C4F800C04846C5F80090DAF800C073
:101590008CF4F01C5FEA8C3C02D522602860CCE71A
:1015A0002A602060D0E7C4F800C04846C5F8009023
:1015B000DAF800C08CF4F01C5FEA8C3CDED52260C7
:1015C0002860C820C2E7C4F800C04846C5F80090AB
:1015D000DAF800C08CF4F01C5FEA8C3C02D5226083
:1015E000286001E02A602060377014E0C4F800C071
:1015F0004DE0DAF800002BEA0002226000F48020BF
:10160000286008E0DAF800002BEA0001216000F40D
:1016100080202860714600221868BDE8F84FFEF768
:10162000EBBD21602EE098465868FEF729FED7F101
:10163000110100D040B1F16801F4F0112160C5F84A
:101640000090C6F80C9063E74FF40022F260012985
:101650000CD9C82011FB00F16420B1FBF0F17068D7
:1016600000224143D8F80400FEF7C6FDF16801F4FA
:10167000F0112960C4F800904AE74FF4F01121609E
:10168000C5F80090377043E74FF4E01121604946F8
:10169000C5F8009006E04FF4D01121604946C5F826
:1016A00000905A462A60BCE74FF4C01121604946B9
:1016B000C5F800904FF4C022F4E74FF4F011296010
:1016C0004946AEE704050050402100206074020046
:1016D00070B500210C4D012455F82120920002F133
:1016E000A042D2F8006704FA01F3034000D00323BC
:1016F00026F4403646EA0343C2F80037491C042961
:10170000EAD3002070BD00006C7402000078022152
:10171000FFF7A4BD05494FF0FF32082841F820200B
:1017200002D3084480F8482070470000602D002054
:10173000F0B54FF0FF3512B10023082601E0082371
:101740000C260C4C05E000BF54F823707F1C04D01D
:101750005B1CB342F8D32846F0BD26185DB286F86C
:10176000305044F82310002AF5D1E11881F84800E0
:10177000F1E70000602D00200249084490F9300094
:1017800070470000602D002008B5024690F8A601C1
:101790000B46C0EBC00000EB800002EB400092F86B
:1017A000A52142B1521ED2B202EB420100EB8102EE
:1017B000518A491C00E0C188ADF800100089ADF8DD
:1017C00002006946184696DF08BD000038B1054999
:1017D000814204D80449814201D901207047002088
:1017E000704700006822002078220020044A016827
:1017F000914201D0083101E0014938390160704758
:10180000302F002070B504464FF6FF750A46284673
:10181000AC4208D14FF480742146104603F0F6FD27
:10182000A04209D070BDFF2CFCD82146104603F021
:10183000E0FD08B1204670BD284670BD70B5084C6B
:10184000050009D010342168002907D008682060FD
:10185000496828468847F6E70834F4E770BD000079
:101860004C2D00202DE9F05F26484168F1B3DFF8E8
:1018700098B00E688146DBF8004087688078E11BED
:1018800021F07F45ED1CB0B9DFF880804FF4803047
:10189000C8F84403C8F804031120FDF7E3FE112043
:1018A000FDF7F6FE4FF0010AC8F800A02F2002F065
:1018B0002DF889F802A0B54200D23546124BE8193E
:1018C0003C3320F07F401860DBF800105A46091BBB
:1018D00021F07F41001B20F07F40C91C81420FD9BD
:1018E000106818602F2002F011F800E004E0BDE855
:1018F000F05F1120FDF7E2BEBDE8F05F04F048BAEA
:10190000BDE8F09F142200200415014000100140A2
:101910002DE9F04117880646B81D14460D46984239
:1019200002D90C20BDE8F0813188072206290AD3AC
:101930004FF4486C4FF6FF73614501D9994202D1CB
:101940007088062801D21046ECE7604501D998421C
:10195000F9D1994203D0984201D08142F3D80520B1
:10196000E85520881221401C80B22080295420880C
:10197000401C80B220804119308805F0FFFA218890
:10198000084480B220804119708805F0F7FA218858
:10199000084420800020C5E7FEF7D8BBF8B51348FF
:1019A00001F01EFB114D0026114C0C3D30B1616958
:1019B000B9B101208DF80000684611E0287820B107
:1019C000616971B18DF80060F6E7687858B1A16877
:1019D000084800220068FEF70FFC10B1A16901B1B0
:1019E00088472E70F8BD6168F2E700008C21002066
:1019F000D82600209C74020001460148FFF786BAF1
:101A0000842500202DE9FF410C4618B1012004B0C7
:101A1000BDE8F08120790027DFF87C80012638B10D
:101A200041F61D5501281ED0022829D00F20EEE7CF
:101A300002970397E0680190694601A804F0C6F890
:101A400068B102988188E18000882081029804F0C2
:101A500031F9BDF8002008EB02118E7300E00A2076
:101A600002212171D3E70D4B6A460021A01D04F02D
:101A700069F838B1094908398F60CF600A28C6D1A2
:101A80002846C4E7019804F015F904498A8808EB50
:101A900002118E73F2E70000402F00203C2200204C
:101AA0002DE9F843054690F8A60195F8A541C0EB4D
:101AB000C00000EB800005EB40060F4604EB44003D
:101AC000914606EB80013279601C0A31904226D1A2
:101AD0006B460022284601F091FA18B310E0401E30
:101AE000A04201D1002004E004EB440006EB80009A
:101AF0001630804602466B46284601F07FFA30B128
:101B0000002038706946484697DFBDE8F88395F8AD
:101B1000A5014146401C641C85F8A501E4B230795A
:101B2000A042DCD8012038700020EEE72DE9F0411A
:101B300000260125144C22E06068226900EBC607EC
:101B4000387805FA00F1114217D08A43226102F079
:101B500027F802463878E36805FA00F1194002FADE
:101B600000F3994209D17978012901D0012100E0DF
:101B7000002151407A6802B19047761CF6B2207875
:101B80008642D9D3BDE8F081002200202DE9F0473C
:101B9000894690F8A6119046C1EBC10101EB810185
:101BA00000EB4107384604F0CFF8060039D01E4C50
:101BB000A068062835D21D4D00EB800005EB001013
:101BC0004622A0F802803946001DFDF735FC0027AB
:101BD000B9F1000F06D0A06800EB800005EB001003
:101BE000077006E0A168022001EB810105EB0111FD
:101BF0000870A06800EB800105EB0111401CCE6469
:101C0000A060E16888420CD1002606E006EB860061
:101C100005EB0010C16C8847761CE0688642F5D35E
:101C2000A760BDE8F0870000942100204027002035
:101C300030B50D4690F8A61193B0C1EBC10101EB90
:101C40008101144600EB410004F07EF8030007D048
:101C5000ADF8024001208DF80000684601959847D4
:101C600013B030BD0E4910B50A784C780023A2425B
:101C700012D0521CD2B20A70022A00D10B70084A4C
:101C80000B78183252F8232002608868104420F044
:101C90007F408860012010BD0360002010BD00005F
:101CA000142200203EB5094D38CD8DE83800ADF83E
:101CB000041007498DF80620ADF8020000220978CB
:101CC000FEF7E8FF684600F08FF83EBD2075020081
:101CD000E421002010B503780022072B06D2DFE8AC
:101CE00003F00504060C1C252B000A7010BD012210
:101CF0000A7002898A81828814E002220A700289AD
:101D00008A818288CA81C2688A60007C062802D0E3
:101D10000020087410BD0120FBE703220A70C2886E
:101D20008A810289CA81C068886010BD04230B7053
:101D3000C0888881CA8110BD0520087010BD0000D0
:101D400070B5064D0646002455F8241009B13046FA
:101D50008847641C082CF7D370BD0000602E00205B
:101D60000EB5002911D011290FD000220092029245
:101D7000ADF8020001910D2908D0042908D00920EE
:101D80008DF80000684600F03DF80EBD0B20F7E727
:101D90000A20F5E70149096808470000AC21002046
:101DA00070B5054D06460024304655F82410884786
:101DB000641C022CF8D370BDB87402002DE9F04108
:101DC00007460024064E074D05E000BF56F82410D4
:101DD00038468847641CE8788442F7DBBDE8F08128
:101DE000002D0020D421002070B5054D06460024AA
:101DF000304655F824108847641C022CF8D370BD77
:101E0000E874020001490968084700002C750200C7
:101E10007FB50446406858B1002003902078002622
:101E2000384D06285DD2DFE800F05C0505264169E3
:101E30000120F2E7A08900F0B3F918B9E08903F0B6
:101E40004BFF80B3A089A0F54040ADF80200A07B15
:101E50008DF8040020780128606806D048B104207D
:101E60008DF80000606803901AE00028F8D0032085
:101E7000F6E70120F4E7A08900F092F918B9E089AB
:101E800003F02AFF78B1A089A0F54040ADF8020028
:101E9000A07B8DF80400606830B105208DF800004B
:101EA000A06802901AE01CE00220F7E7A08900F089
:101EB00077F9B0B1E089A0B9A089FF21A0F5404031
:101EC00080B2ADF802008DF80410616881B107207E
:101ED0008DF800006E70AE7002F0D0FF684602F020
:101EE000A5FE6878002802D06E7002F0C7FF7FBDA3
:101EF00006218DF8001003F04FF8EBE708208DF86D
:101F00000000EBE7C021002000B5114987B0097837
:101F1000890702D4022007B000BDA0F57F41FF3938
:101F200011D005218DF8001001218DF80410ADF8B5
:101F3000060000221146684602F0D8FA28B103F0E4
:101F4000E3FD0020E7E70420E5E70820E3E70000E1
:101F50003422002000B50E4887B00078800702D4F4
:101F6000022007B000BD06208DF8000000221146B7
:101F7000684602F0BBFA40B10648017809B1012178
:101F8000017303F0C1FD0020EBE70820E9E7000042
:101F900034220020602F002000B58DB01421684647
:101FA000FDF763FA1E480078810703D56846FFF7FE
:101FB000C7FE33E0C00731D1012000F015F900F071
:101FC00085F902F02FFB70B106280FD001218DF8A2
:101FD00014100C281BD2DFE800F01A101A101A187F
:101FE0001A181A1216120B200DB000BD022000F0B4
:101FF000FBF8012000F0DEF8D8E7002000E0032025
:102000008DF8180003E00220FAE78DF8181000227E
:10201000114605A802F06AFA03F076FD0020E3E716
:102020003422002038B5040011D0694603F0CEFDFB
:1020300088B10A48BDF8001000EB0110818941B158
:10204000A27A32B1491E81810020A07238BD0520DC
:1020500038BD062038BD0A2038BD0000402F0020C2
:102060001FB501A9684603F06DFD04B010BD07B5AA
:1020700013460A466946002003F064FD0EBD07B50D
:1020800013460A460021684603F05CFD0EBD20B1F0
:1020900019B10068086000207047052070470000F3
:1020A00038B50D46040015D0A5B1694603F08EFD84
:1020B00090B10A49BDF80020606801EB02129189D5
:1020C000491C9181286060680C3068600120A07212
:1020D000002038BD052038BD0A2038BD402F002023
:1020E00018B10323002205F06BB8052070470223C6
:1020F000002205F065B812B1022305F061B8052091
:1021000070470000064A5178082906D0054B43F86D
:102110002100491C5170002070470C2070470000BE
:1021200034220020602E002038B504460A480D46AF
:102130000078800701D4022038BD54B16946284692
:1021400005F04EF90028F7D1BDF800102180658018
:1021500038BD052038BD00003422002010B50446EB
:102160000D480078800701D4022010BD84B1218879
:1021700002290FD8094800EB011042896088121A21
:10218000032A07D405F022F900202080608010BDCA
:10219000052010BD042010BD34220020402F002057
:1021A00043F6FE71A0F54040884201D801207047F7
:1021B0000020704702490A7882430A707047000085
:1021C0003422002010B504460078182802D1FEF70A
:1021D0002BFD207010BD10B504460078182802D1E0
:1021E000FEF722FD207010BD02490A7802430A70F2
:1021F000704700003422002070B5134600220646C6
:102200001546042905D0112901D019B170BD012549
:1022100000E001220D4C73B16179FEF73BFD2A46C7
:1022200021793046FEF736FD002261783046FEF710
:1022300031FD002203E06178FEF72CFD2A4621786B
:102240003046BDE87040FEF725BD0000E8210020C3
:10225000F8B506461A481F46154600780C46C007D2
:1022600008D03046FFF7B2FA30B13CB1200507D0B4
:102270000620F8BD0120F8BD0220F8BD0320F8BDFE
:102280003068A04204D8716804EB0530884201D957
:102290000520F8BD7DB1684603F084FB68B1009865
:1022A0000221C0E900670172210B8181058203F0E0
:1022B0003BFC0020F8BD0420F8BD0720F8BD00005D
:1022C0004C220020084603F089BB00002DE9F047AE
:1022D0002748284C4FF01021001B0209496910467D
:1022E0004B1C03D14FF0805149690903DFF888A0E6
:1022F0009AF80070FB0702D00020BDE8F0870023A9
:10230000A14607E009EB0314256815B1646804B120
:10231000401E5B1C9342F5D3002422E0002504F00C
:10232000FF0C2B4613E000BF09EB0316D6F8008024
:10233000B8F1000F04D0D6F80480B8F1000F05D131
:10234000767BAE4202D9354603F0FF0C5B1C93420C
:10235000EAD309EB0C13641C59601D7BA1EB05311A
:1023600019608442DAD347F001018AF80010C3E70C
:1023700078220020682200204C22002020B103494E
:10238000496E01600020704703207047702F0020C5
:102390002DE9F84307461D48DDF820801E460078E9
:1023A00015460C46C0070CD03846FFF70FFA50B15F
:1023B0005DB154B145EA0400800708D00620BDE8AD
:1023C000F8830120FBE70220F9E70320F7E73868EC
:1023D000A04204D8786804EB8601884201D2052027
:1023E000EDE77EB1684603F0DDFA68B1009801219F
:1023F000C0E900780172C0E90354868203F094FBBF
:102400000020DCE70420DAE70720D8E74C22002090
:1024100070B5174A17490446106E0B7800EB400060
:1024200002EBC0009D0715D5022C02D0032C1BD156
:1024300002E001F0BDFF17E04A78521CD2B24A70A8
:10244000032A11D900224A70082103F0DDFE03F0AF
:1024500093FA09E0580707D523F004000870526E7C
:1024600012B140F002000870BDE8704003F014BBE8
:10247000702F00204C2200200EB519A19DF80800F5
:1024800020F00F00401C20F0F00010308DF8080004
:102490000B2202A87CDF08B1FDF758FE4FF4107044
:1024A00078DF08B1FDF752FE00204FF4C8710090AC
:1024B0000190ADF80400ADF800104A00ADF802201C
:1024C000ADF8061068467ADF08B1FDF73FFE6FF001
:1024D000070077DF002801D0FDF738FE0EBD0000B1
:1024E0004E6F726469635F50726F780070B508B1A7
:1024F000012070BD184C0025207B08B1257301E038
:1025000000F0A2F82078082824D2DFE800F02304A5
:10251000080C1023141EBDE8704000F01FB8BDE881
:10252000704000F07FB8BDE8704000F061B8BDE8D1
:10253000704000F037B808496088203901EB00107E
:102540004068BDE8704002F04DB86560BDE870407D
:1025500002F056B80F2070BD602F00201049F0B473
:102560008A1C00200346A1F120050C18A67A3EB172
:10257000A37205EB0014A68916B9A47B012C0AD01E
:10258000401C80B20228F0D30B704B804B60F0BC33
:1025900041F61D5070471080F0BC00F043B80000B9
:1025A000602F002010B50F4CA4F12001608801EBD2
:1025B0000010818961B1052020700B4802210023A1
:1025C00081800168BDE8104001220848FFF740BE45
:1025D0004168002301220548FFF73AFE04212170DB
:1025E00010BD0000602F002044220020682200203F
:1025F00038B50A49084803240B684268898803EB08
:102600008101538804700020DB1C00909BB20448B9
:10261000FFF7BEFE38BD0000602F002044220020DE
:1026200068220020074910B54888091D03F01CFBEB
:1026300018B1BDE81040FFF7DBBFBDE81040FFF761
:10264000B1BF0000602F0020F0B51D481D490125D5
:10265000067802248B88A0F12002082E18D2DFE829
:1026600006F00417171A212C2C160189491C018128
:102670000021418080F80C1002EB01131B7843B15C
:1026800000234418491C89B2A3720229F4D30570AF
:10269000F0BD0123F5E742685288D21C1A448A80B3
:1026A0000470F0BD46880D6802EB061256680E6095
:1026B000556013818C80062100E007210170F0BD78
:1026C000602F002044220020F0B504460088384DD9
:1026D0008DB050281ED0522802D0542828D103E0B3
:1026E000A08800F0FFFE23E006208DF81400A088EB
:1026F00000F0ACFBADF81600A188ADF8181000F0A2
:102700005DF9A0880022E978FEF7C4FA05A8FFF772
:1027100041FB0DE0207B01280AD1A07A012807D1D6
:102720002089A0F52451023902D1A08800F014FFBD
:10273000A878FEF78FFAC8B108A8FEF7BFF91422EF
:1027400008A96846FCF778FE00246E460BE000BF3F
:1027500006EB4407A978B888FEF788FA10B1B88864
:1027600000F0C0FE641C0098A042F1D86878FEF723
:1027700071FAC8B108A8FEF7A1F9142208A96846A1
:10278000FCF75AFE00246E460BE000BF06EB440740
:102790006978B888FEF76AFA10B1B88800F0DCFEF4
:1027A000641C0098A042F1D803F054FD0DB0F0BDB8
:1027B000A42100203EB504464088ADF802002078F0
:1027C000A8B101281FD0022810D1207900280DD0EF
:1027D000608800F07BFAA0F57F41FF3906D00F49F1
:1027E0000122C978FEF756FA03F034FD3EBD002001
:1027F0008DF800006846FFF7CDFA608800F066FAB1
:1028000000F070FE3EBD01208DF80000A088ADF8FC
:1028100004006846FFF7BEFA3EBD0000A421002078
:1028200010B50446007801280FD1608800F05AFEE8
:10283000608800F089F9002807D0044960880122E7
:10284000C978BDE81040FEF725BA10BDA4210020CC
:1028500010B5104C00202070FEF7E6F96070FEF70E
:10286000E3F9A070FEF7E0F9E070FEF7DDF9207102
:10287000617818290BD0A178182908D0E178182997
:1028800005D0182803D001202070002010BD03209F
:1028900010BD0000A42100202DE9F04186B000F019
:1028A000A5F86846FEF70AF900246D464FF6FF7753
:1028B000DFF834800FE000BF05EB4406B08800F07D
:1028C000C5FAB84205D1B088012298F80310FEF786
:1028D000E1F9641CA4B20098A042EDD803F0BAFC60
:1028E00006B0BDE8F0810000A4210020017807298E
:1028F00002D1408800F030BE7047000010B5044699
:102900000A4841782046FEF7B1F968B1084800212D
:1029100001EB410200EB82025288A24201D1C8B20F
:1029200010BD491C0829F3D3FF2010BDBC21002095
:102930002029002070B5094D094E002404EB440005
:1029400005EB800071784088FEF790F920B1641C97
:10295000082CF3D3FF2070BDE0B270BD2029002009
:10296000BC2100202DE9F041124E07460125BD4053
:102970003068FDF785FC00280DD10F4C20692842F6
:1029800007D1384601F00CF90028E06805D028434B
:1029900004E0A8432061BDE8F081A843E06020691D
:1029A00028432061A1683068BDE8F0410022FDF7AE
:1029B00023BC000034750200002200201CB5054A2B
:1029C000D2E90212CDE900120022694601F0FBFFB4
:1029D0001CBD0000A474020003484FF6FF71818003
:1029E0000121017000207047B021002010B54FF682
:1029F000FF7001F01FFF03498880BDE8104003F01D
:102A000055BC0000B02100202DE9FC41804600F0BB
:102A10001DFA002403250127A0F57F412646FF3932
:102A200008D06A46082101F0A9FF18B90198841D51
:102A30008688056832462B4621464046A9DF042891
:102A400004D0082804D00B2808D002E0112000E0B0
:102A50000020002F00D10B20BDE8FC810027A80733
:102A600001D50125E6E73443F5D0002426460325A9
:102A7000E0E72DE9FC41804600F0E8F90746A0F5C3
:102A80007F40FF380ED001252A466D1C0026ADB2CE
:102A90006B460821384601F09BFF040006D0072C46
:102AA00024D024E043F20200BDE8FC810199032315
:102AB0000A1D0B604046891DAADF040004D00C2CBF
:102AC00008D0052C08D008E00821384602F018F894
:102AD00004460CE0012600E000240821384601F0FD
:102AE000FBFF00B10324002ECED100E00C242046D1
:102AF000DAE700001FB504460078012815D12079D7
:102B0000012812D1608802AA012101F037FF60B9C3
:102B100002208DF800006088ADF80200094901200C
:102B20008DF8040009686846884706480838808898
:102B3000A0F57F41FF3903D0BDE81F4003F0B6BBCD
:102B40001FBD0000B82100201CB500F07FF96A46C7
:102B5000012101F013FF08B100201CBD019800788D
:102B60001CBD00002DE9F041084C07464FF6FF76EA
:102B700043F20305324661883846A7DFA84203D1F5
:102B80006088401C6080F5E7BDE8F081B02100203E
:102B90008188A1F57F42FF3A03D0008808B1012067
:102BA0007047002070473EB5027802230C46B3EB15
:102BB000520F17D1B0F80110ADF80010C1788DF8A0
:102BC00002108188ADF8041080798DF8060002AA01
:102BD00001A92046FDF77EF9032202A96846FCF709
:102BE0004FFC08B100203EBD01203EBD10B50C4693
:102BF000FFF784FEFF280CD0074900EB400001EBF3
:102C00008000416821600189A180807AA071002044
:102C100010BD052010BD00002029002070B50188DE
:102C200090B010294FD1011D34226846FCF704FCF6
:102C30009DF804004FF6FF76032134466D46B1EB54
:102C4000500F2AD002F05AF89DF8040040080ED028
:102C500001280CD0022820D118E00F99281D11312D
:102C6000FDF712F818B100BFBDF8344015E00EAA08
:102C70000DA9072002F01AF80028EED10DE00F99F7
:102C8000281D491CFFF78FFF0028EDD10EAA0DA9C2
:102C9000072002F00BF80028F1D1BDF80000291D33
:102CA00000F0E0FDB4420ED0BDF80000214600F077
:102CB0007EF8BDF80000ADF8360001208DF8340034
:102CC0000DA8FFF76DF810B070BD0000094A002193
:102CD00001EB410332F82330834205D101EB41007F
:102CE00002EB800040887047491C0829F0D34FF65A
:102CF000FF7070472029002010B50D4C18200D4A98
:102D0000607000204FF6FF7100EB400302EB83037D
:102D1000401C59800828F7D3FDF786FF60701828FB
:102D200003D001202070002010BD032010BD000042
:102D3000BC2100202029002070B504460D46401C0F
:102D400000F081F900280ED01022691C601CFCF7ED
:102D500097FB48B15FF0000605F1110104F1110085
:102D6000FCF792FF304370BD0126F5E7018811B9E9
:102D7000421892780AB101207047491C0829F7D3FC
:102D80000020704710B50C460346FFF7EFFF002800
:102D90000AD018882188884205D10822A11C981CD5
:102DA000FCF76EFB08B1002010BD012010BD02F041
:102DB00047B910B50446007888B0002828D120799A
:102DC000072825D1608801AA072101F0D7FD002836
:102DD0001ED101F093FF1DE06088BDF8001088420D
:102DE00018D004990298FFF7A7FF98B16088FFF701
:102DF0006DFFADF8160000208DF814006088ADF866
:102E00001800BDF80000ADF81A0005A8FEF7C8FFCD
:102E100008B010BD03AA6946072001F047FF00284B
:102E2000DAD1F5E770B50446FFF750FF05462046B6
:102E300001F0A7FD4FF6FF7104468D4203D014B98F
:102E4000284602F0FDF8204670BD000010B5FFF7DF
:102E500055FDFF2805D0044900EB400031F8200063
:102E600010BD4FF6FF7010BD202900203EB504466E
:102E700001F044FF0EE0019920464631FFF782FF42
:102E800028B9019920462A31FFF77CFF10B1BDF81F
:102E900008003EBD6A4602A9072001F007FF00288E
:102EA000E9D14FF6FF703EBD2DE9F0410F4628B144
:102EB0000120FFF77FF90120BDE8F081397961B188
:102EC0000026264D01290DD0254C4FF0020802297D
:102ED000206822D003293CD128E001F091FB012198
:102EE000397134E05FF0000005EB00110978022928
:102EF0000CD0401C80B20228F6D30220FFF774F9F0
:102F00000120FFF757F941F61D50D5E705EB0014F6
:102F1000606801F067FB267019E00146002301227A
:102F20001048FFF795F9A4F804800FE001F05AFB70
:102F30000A4922682031498805EB01114B6823605A
:102F40004A60A2880A81A4F804800E703E710028AD
:102F5000B2D00120FFF72EF90E20ADE7402F002060
:102F60004422002068220020F8B51C4C207800285C
:102F700032D0E068002658B10025607800282BD1B7
:102F8000684648DF052805D030B1FDF7DFF80AE0D4
:102F90000125F2E7012606E0009800F031FD2169E5
:102FA00009B1009888479DB96078002814D16088DD
:102FB000ADF800006946A06861DF052803D020B1A4
:102FC000FDF7C4F804E0012502E0D4E902018847D6
:102FD000002ED2D0002DE6D0F8BD000050220020F7
:102FE000054940880A88904204D34988884201D81C
:102FF00001207047002070478421002009892AB1F0
:10300000D088491C814218D10020704790F8A62131
:10301000C2EBC20202EB820200EB42021289914231
:10302000F2D0491C198090F8A611C1EBC10101EB47
:10303000810100EB4100008902E01980D088401E28
:103040005880012070470021425C0AB1012070477E
:10305000491C1029F8D300207047800701D00020B8
:1030600070470120704700000348017AC90702D069
:103070000078FEF71BBA7047402100202DE9F04789
:10308000234D81461F46287A0E469046084302D0BB
:1030900026B1002104E00520BDE8F0871C4910316D
:1030A000484603F0BFFB0446014600224846FFF7AE
:1030B000A3F81FB121464846FEF752FE0D2C0DD055
:1030C00005DC5CB1042C17D0082C06D106E0112CCD
:1030D00006D0A4F54050023800D003242046DBE798
:1030E0003246E9784846FDF7D5FD4246A97848467C
:1030F000FDF7D0FD0024F1E73246E9784846FDF7B8
:10310000C9FD4246A9784846FDF7C4FDE6E7000040
:10311000E82100202DE9FC4117460C00064604D0AA
:103120002078C00705D0012004E000217EDFBDE843
:10313000FC8102208DF804003046FFF787FE05462B
:10314000A0F57F40FF3808D001A800902B463A46F2
:103150002146304600F021F806E020782146C007DD
:10316000304603D000F07DF804460BE07EDF04001B
:103170004FF00000009007D000220123294630467E
:1031800003F008F814B106E00122F6E79DF80410F8
:10319000304603F029F82046C9E72DE9F04F85B005
:1031A00090468946834600259A462E4601AA072165
:1031B00018460E9F01F0E2FB040008D1029D95F82D
:1031C0004400183510F0010601D0029D343558EA4C
:1031D00004004FF000080FD175B126B905F11200B7
:1031E000FFF7C4FD40B12A4605F11201584685DFBC
:1031F000044687F8008021E00CB1052C1ED199F817
:103200000000C0070DD003AB01220721504601F09A
:10321000DFFB04000AD10721504601F0D3FC040073
:1032200004D1494658467EDF040007D007215046A6
:1032300001F052FC10B1052800D00324CDF8008025
:10324000387808B1012300E0002344B10022514640
:10325000584602F09FFF05B02046BDE8F08F0122DE
:10326000F5E7FEB50F46064601F07EFB0546A0F5E4
:103270007F40FF381ED001AB01220721284601F014
:10328000A7FB04000AD10721284601F09BFC04009B
:1032900004D1394630467EDF040007D00721284696
:1032A00001F01AFC10B1052800D003240120009081
:1032B0005CB102E003240020009000220123294693
:1032C000304602F067FF2046FEBD0122F6E700000F
:1032D0002DE9F041134D0F46164680462978FDF73B
:1032E000C5FC00281BD04046FFF7B0FD0446A0F502
:1032F0007F40FF3813D069784046FDF7B7FC38B1FE
:1033000033463A4621464046BDE8F04101F006BA50
:10331000324639464046BDE8F041FEF7C3BCBDE841
:10332000F0810000E42100202DE9F04385B08146C2
:10333000FDF790FC002820D06846FDF7BFFB002475
:103340006E4617E006EB44054946A888FDF78EFC5B
:1033500078B10B4FA888B978FDF788FC8046A8881B
:10336000F978FDF783FC0146A88801234246FFF760
:1033700085FE641C0098A042E4D805B0BDE8F08347
:10338000E82100202DE9F043264CA4F11009227811
:10339000D9F8048099F80350404694F801C0D9F850
:1033A000086031E002EB42036168521C01EBC3018B
:1033B000A378D2B2934200D100220B78022B02D024
:1033C000032B21D11DE003464F68194603E0B942A3
:1033D00003D00B46C969B9B1F9E7A9B18B4205D150
:1033E000C06918B9104E0125B56000260F68C9697B
:1033F000D96149B10B683B440B6005E00174C069B9
:1034000000E000210028F9D19445CBD1C9E901069B
:1034100089F80350404502D00120BDE8F083002028
:10342000FBE7000024220020001001402DE9F041BC
:103430002A4F0446002607F11005D7F804803EE025
:1034400002D02046E4691DE02878696800EB40025C
:10345000401CC0B201EBC2012870AA78904200D192
:103460002E700A784868012A2BD1027C4ABB8A68F0
:103470004260CA6882600A69C26049698161F978FC
:1034800001B146604368BA68DFF854C0991A21F068
:103490007F41614502D28268114406E0D11A8268F8
:1034A00021F07F418A4202D9511A016000E0066092
:1034B0004660012186600174C66103F071FB002C37
:1034C000BED1287869788842BED17968414502D05A
:1034D0000120BDE8F0810020FBE70000142200205D
:1034E000FFFF7F00FEB504460026A0F57F40FF38B1
:1034F0002FD02046FFF788FA050013D00B2D15D0EA
:10350000112D11D0A5F5405002381CD009208DF89E
:1035100000002046FFF79AFCADF80200ADF8044029
:1035200002950DE0022002E001260CE003208DF858
:1035300000002046FFF78AFCADF80200ADF8044019
:103540006846FEF727FC0348324681782046FDF79F
:10355000A1FBFEBDA4210020FEB504460026FFF716
:1035600088FA05460C281AD003DCA5B1042D06D133
:1035700029E0112D11D0A5F5405002381CD00920AA
:103580008DF800002046FFF761FCADF80200ADF8B1
:10359000044002950DE0012002E001260CE0072026
:1035A0008DF80000ADF804402046FFF74FFCADF861
:1035B00002006846FEF7EEFB04483246417820469A
:1035C000FDF768FBFEBD0820EAE70000A42100200B
:1035D000F8B5054600780C46002620420FD10020A1
:1035E0008DF800006846FCF75BFE2878204202D187
:1035F0002043287001269DF80000FCF775FE304638
:10360000F8BD000000239CB04D4A07211846FCF786
:10361000BBFD08B1FCF79AFD4A4A01214A48FCF774
:10362000A1FD08B1FCF792FD484A40F6CD410320C8
:10363000FDF7EAFE08B1FCF789FD69460020FDF7B9
:10364000A5FD08B1FCF782FD9DF8000002286FD0AF
:103650005FF00004FDF748FDFCF7ECFA204601F0AE
:10366000FDFCFEF709FF382101A8FBF7FEFE022052
:103670008DF8040001258DF8065005208DF807000F
:10368000334804260690ADF81460202113A8FBF7F8
:10369000ECFE282017908DF84F50B420002418908D
:1036A0002C4B13AA2146009401A8FCF7AFFF08B1E8
:1036B000FCF74CFD2848FDF723FB08B1FCF746FD5D
:1036C00002F0A6FE1C216846FBF7CFFE4FF4203027
:1036D000CDE900404FF47020032702908DF80C7064
:1036E0001E48ADF80E408DF81050CDE905406846F3
:1036F000FDF776F908B1FCF729FDFCF7E0FB124B6A
:103700000DF13C0C1C330FCB8CE80F001D208DF805
:103710003F001C208DF83E000B488DF83D608DF871
:103720003C700F4A0FA9083000F04AFB03E0FFE7A6
:1037300001248FE73EDF0028FCD0FCF707FDF9E706
:10374000982200208F050200347402003113020019
:103750003021002073400200F9190200991902007B
:10376000F56A020070B5144682880E460546208828
:10377000111D0144921C994201D8FE2A01D90C2046
:1037800070BD521C32542088FF21401C80B2208022
:1037900031542088401C80B220808119288803F091
:1037A000EDFB2188084480B22080AA8842B1A96834
:1037B00041B13044FBF740FE2088A98808442080AE
:1037C000002070BD072070BDF8B50E460178144684
:1037D0000546012901D1687830B12088821C9A42BF
:1037E0002DD8012902D006E00720F8BD69780144F0
:1037F000891C994223D8181A801E87B2ADF8007030
:103800002188B01C084469467DDF0028EDD1287866
:10381000022805D1BDF80010B94201D809210AE0FB
:103820000821012805D16878B84202D8ADF8000017
:1038300001E0ADF80070BDF80000FE2801D90C20B1
:10384000F8BD2288401CB0542088401C80B22080E3
:1038500031542088401C2080BDF80010084420808E
:103860000020F8BD70B505460C004FF0FF0020D0D9
:103870004FF6FF76B5421CD00E480122417828460B
:10388000FDF708FA2846FFF739F8FF2803D1FFF7BC
:1038900051F8FF280DD0084B00EB400203EB8201EA
:1038A0004D8023F8226022684A60A2880A81A279AA
:1038B0008A7270BDBC2100202029002070B54FF60F
:1038C000FF750E46A84201D1002000E0401C84B2E2
:1038D00008E02146304601F0B4FD08B1204670BD35
:1038E000641CA4B2FF2CF4D9284670BD00F18040BE
:1038F0000068002800D00120704708B500F1804022
:10390000002101600068009008BD000000283ED042
:103910001F49204A096800BF00BF00BF00BF00BFA9
:1039200000BF00BF00BF91422FD000BF00BF00BF4B
:1039300000BF00BF00BF00BF00BF00BF00BF00BF8F
:1039400000BF00BF00BF00BF00BF00BF00BF00BF7F
:1039500000BF00BF00BF00BF00BF00BF00BF00BF6F
:1039600000BF00BF00BF00BF00BF00BF00BF00BF5F
:1039700000BF00BF00BF00BF00BF00BF00BF00BF4F
:1039800000BF00BF00BF00BF00BF401EC3D17047D3
:10399000642200200024F40010B50B4C207808B1FC
:1039A000852010BD0020A06060602061E0600621DD
:1039B00000F02BF803F08EF8012108B903480160EC
:1039C0002170002010BD00004C2D00201805004083
:1039D00038B500208DF800006846FCF761FC074C04
:1039E000207808B9FFF7D8FFE068401CE0600120AC
:1039F000A0709DF80000FCF777FC38BD4C2D00202E
:103A0000002801D1FDF71ABF70474907090E0028A9
:103A100006DA00F00F0202F1E02282F8141D03E042
:103A200000F1E02282F8001400F01F020121914011
:103A30004009800000F1E020C0F88012C0F80011B9
:103A4000704700002DE9F0478846814601F044FBAD
:103A50000124224E0028484618D0FDF78DFE304440
:103A600090F848008009032802D0012806D007E01A
:103A70001B48006804FA09F4204201D1022100E049
:103A800003214846BDE8F04700F052BA01F030FB90
:103A9000002820D04846FDF76FFE0546114F4FF431
:103AA000807007EB850100EB8500D1F8102580B20E
:103AB00042F00102C1F8102500F050FAB8F1000FF1
:103AC00009D04846FDF758FE56F82000002802D0DD
:103AD000AC40C7F80443BDE8F0870000602D00202B
:103AE00010050050006000402DE9FC41DFF8A48083
:103AF000044608EB0400002790F930001346C01775
:103B00000E46401C01D0082740E0F27819462046B6
:103B1000FDF70EFE0546401C37D0B07848B1A00036
:103B200000F1A040D0F8001721F00201C0F8001702
:103B300007E000217378204600910A46019100F0C9
:103B4000CBF9F078C0B11448317800EB8500D0F89B
:103B50001025124B1A40C0F810254FF4F8524FF4BC
:103B6000403302EA042203EA01410A43D0F8101567
:103B70000A43C0F8102509E008EB0500327810F878
:103B8000481F41EA8211017000E004273846BDE871
:103B9000FC810000602D002000600040FFE0FCFF81
:103BA00003490968C14011F0010000D001207047AD
:103BB0001005005070B5144D95F8540008B1082058
:103BC00070BD0020411E2A18401CC0B282F830107F
:103BD0002028F8D300242046FDF79CFD641CE4B2A5
:103BE0000C2CF8D306210846FFF70FFF4FF4BE70E8
:103BF00000F0B4F905494FF00040C1F8040301207A
:103C000085F85400002070BD602D00200060004049
:103C1000034890F85400002800D0012070470000AD
:103C2000602D00202DE9F041254C064612200D465E
:103C3000C4F80803234890F82920022A18D0014626
:103C40004FF4807891F82B10012A13D00222C4F887
:103C50000423012780F82970466005810022C26094
:103C600021B3C58290F82A10304600F089F925E08A
:103C7000122002E0C2682AB10220C4F80403112015
:103C8000BDE8F081C660858261B94746384600F0DC
:103C9000BDF90028FAD0384600F0C0F92946304670
:103CA00000F06EF90220C4F8040307E0294630460C
:103CB00000F066F9404600F0B1F927600020DFE728
:103CC00000700040B82D002070B50F4A05460C4624
:103CD00092F8290008B1112070BD02EB4501087E61
:103CE00018B912F82A0F401C1070E0790876207A73
:103CF00048762146284600F04BF9227AE179284699
:103D000000F07AF9002070BDB82D00202DE9F041B7
:103D10001C4C054694F8280010B10820BDE8F0813D
:103D200009B115B102E00720F8E7174D44F8101B60
:103D3000164928780860091D68780860E878E076F8
:103D40000127277600206076A0762060104E20772D
:103D50006FF00040C6F808034FF4827000F05EF97F
:103D6000A9780720FFF751FE0220C6F80403E07E81
:103D700010B10120C6F804030448F03807600020A1
:103D8000CCE70000B82D002030750200F07500402F
:103D9000007000400849002091F82920012A01D034
:103DA0000820704791F82B30044A01210BB11160B3
:103DB0007047024A121DFAE7B82D0020007000403B
:103DC0002DE9FC5F0C464179DFF804B180460BEB2E
:103DD0004117387E10B10820BDE8FC9F3A60207B77
:103DE00001250128DFF8ECA0207804D805FA00F0BE
:103DF000CAF8000001E000F0A9F82178A94689007E
:103E000001F1A041C1F8005765784FF0FF36FF2D52
:103E100007D009FA05F0CAF80000284600F07EF83D
:103E200000E03546A0784FF0000AFF2809D00022B4
:103E300006465346CDF800A01146CDF804A000F088
:103E40005CF8E078FF2804D000F080F8E07800F01B
:103E500065F898F80520E1780BEB42108176D8F8E8
:103E600000002178C0F80815C0F80C55C0F810659E
:103E7000A168C0F82415227B617B01B10121012AD0
:103E800004D0022A05D0032A08D105E041F002013E
:103E900004E041F0040101E041F00601C0F85415CE
:103EA0006179C0F8C015396811B14021C0F8041318
:103EB0000721C0F80015386820B1217998F904006D
:103EC000FFF7A3FD87F819A087F81890002083E773
:103ED000082E00200C05005030B541EA4201DDE912
:103EE000034541EA8301800041EA042100F1A0403A
:103EF00041EA0541C0F8001730BD30B541EA420142
:103F0000DDE9034541EA8301800041EA042100F133
:103F1000A04041EA0541C0F8001730BD1CB50021A2
:103F200000910B46012201911146FFF7E6FF1CBDEF
:103F3000800000F5E06000F1A040026822F4403209
:103F40000260026842EA014101607047012181403C
:103F5000014801607047000008050050034908B59A
:103F60000844002101600068009008BD0060004026
:103F700002494058012800D00020704700600040EE
:103F8000024A1060101D0160704700002C7600404E
:103F900010B50A784B78302402F0030204EA0313C8
:103FA0001A438B784FF4E06404EA03231A43CB7876
:103FB0004FF4805404EA03331A430B794FF4E0249E
:103FC00004EA03431A434B794FF4801404EA035381
:103FD0001A438B79240104EA03631A430301054859
:103FE0001844C0F81825CA79097AC0F81415C0F821
:103FF000102510BD00700040030103481844C0F8AC
:104000001425C0F810157047007000400249405850
:10401000002800D00120704700700040034908B517
:104020000844002202600068009008BD0070004053
:104030004058002800D0012070474058002800D088
:104040000120704708B5002242504058009008BD3A
:10405000D0F80403084000D00120704740580028E1
:1040600000D00120704708B500224250405800900F
:1040700008BD10B550B103280CD10220FDF7B8F9E6
:10408000002807D0BDE81040FCF760B8BDE810403C
:1040900002F06CBA10BD000010B509780A4851B1A1
:1040A00001290FD10068FCF7EBF800280AD0BDE821
:1040B0001040FCF74BB800224FF470110068FCF779
:1040C0009BF8F2E710BD00003474020010B50446FE
:1040D000008888B03B2825D009DC022826D010288B
:1040E0000FD0112847D10020FDF782F913E05128A5
:1040F00020D0552843D056283DD1A088132176DF03
:1041000009E00720FDF774F908B1FCF71FF8A18852
:104110001D48FCF729FE00282DD008B0BDE810404E
:10412000FCF714B8A088132176DFF4E7A0880021FB
:1041300067DFF0E71022A11D04A8FBF77DF99DF8C9
:104140001010002917D09DF81800042803D0062865
:1041500001D005280FD102290FD001208DF80000D1
:104160004FF4C170ADF80400A0886946A8DF0028AC
:1041700001D0FBF7EBFF08B010BD0220EEE7A088EE
:104180001721ADDFC7E70000902300202DE9F84F8D
:1041900005460C460888B5F8AA11884254D195F80E
:1041A000A601DFF8F0A0C0EBC00000EB800005EB3B
:1041B000400160884FF003094FF00008F0BBE6882B
:1041C0000879A21DF3B250FA86F6052E01D80344F1
:1041D00000E005230B71002316E000BF00EB400652
:1041E00003EB830702EB470701EB8606D7F802C013
:1041F000C6F80AC0D7F806C0C6F80EC07F89778215
:10420000401CA6F814805B1C0E798642E6D895F80F
:10421000A62100EB4000C2EBC20202EB820201EBDE
:10422000800005EB4202C088128990420ED2F0B2A3
:1042300005280BD085F8A501218800E006E0284676
:10424000FDF7A2FA01000AD1BDE8F88F85F8A58133
:10425000228869462846FDF723FC01000BD085F82B
:10426000A78122882846FDF7E3FC8AF80090218880
:10427000AAF80210E8E79DF800000028E4D02288A0
:1042800001212846FDF782FC2188284600F0F0F83D
:10429000DAE7000040270020F8B505460C460888FC
:1042A000B5F8AA1188424AD195F8A601A11DC0EB24
:1042B000C00000EB800005EB400295F8A50100EB83
:1042C000400002EB800360880A33B8B9002042F650
:1042D00002170E8810E000BF00EB400C01EB4C0C05
:1042E000BCF804C0BC4506D100EB400001EB400027
:1042F0004088588102E0401C8642EDD800268DF8A7
:10430000006095F8A5011179401C884203D1012075
:104310008DF8000018E085F8A50122886946284636
:10432000FDF7BEFB01000BD085F8A7612288284667
:10433000FDF77EFC09480321017021884180F8BD0A
:104340009DF800000028FAD0228801212846FDF7B8
:104350001DFC2188284600F08BF8F8BD402700207E
:1043600010B50878094C28B101280DD002280BD1CE
:10437000002008E08A8949880548FCF787FD08B1D4
:10438000FBF7E4FE0120207010BD00002821002072
:10439000842500200878002802D14878FBF756BE13
:1043A00070470878002802D14878FBF74FBE704765
:1043B000134A10B500215170017A012912D0022947
:1043C0001DD18189491C8181C189491C89B2C18162
:1043D000028A914213D1002101F016FFBDE810407E
:1043E00001F0CABA838AC28A4FF480619C1A8C4257
:1043F00000DAA1B2114489B2C1829942EBD010BD5A
:104400004C22002070B5054690F8A6010C46C0EB82
:10441000C00000EB800005EB40012288B5F8AA013E
:10442000824222D1608848B100212846FDF7AEFBC8
:1044300021882846BDE8704000F01AB8A2680A60DA
:10444000E068C1F8060021882846FDF79DF90100C3
:104450000BD0002085F8A70122882846FDF7E8FB4D
:104460000248032101702188418070BD402700204F
:104470002DE9F041044690F8A8010E46401C194968
:10448000C0B284F8A801C9680327174D4FF0000E89
:10449000884224D284F8A5E194F8A601401CC0B259
:1044A000C0EBC00101EB810104EB410284F8A601DD
:1044B000A5F1180101EB800001210068106082F86D
:1044C00004E0304694DF010007D084F8A7E13246CB
:1044D0002046FDF7ADFB2F706E80BDE8F08184F8BB
:1044E000A7E1F8E79421002040270020F8B51E4DF1
:1044F00017460E4601466A6F0020032A33D805F19D
:104500007804C6F1080C636C63452CD895F87000EC
:10451000104400F00300C0EBC00005EB80001C223B
:10452000FAF78AFF686F401C6867DEB194F84400B0
:1045300094F840100023084400F0070004EBC0008A
:1045400000900AE007EBC3020098D2E90012C0E92C
:1045500000126846FDF74AF95B1CB342F2D3606C67
:10456000304460640120F8BD802E00200389CA1CFD
:104570001A4402814289511AC91E418170470000C4
:104580002DE9F04700F58055002700F108040220CE
:1045900090460E460880DFF8489012E02046FEF76D
:1045A000F7FAD0B1A068D9F80420904201D9C9F82F
:1045B00004006088318804EB80040844C01C30800B
:1045C0000C34AC4202D22068401CE7D1B8F1000F95
:1045D00001D088F80070BDE8F0870127E9E7000006
:1045E0003422002008B50021009101460223024A2E
:1045F0000248FDF7CDFE08BD487502006822002084
:1046000008B50020009004480223044A01680448C9
:10461000FDF7BEFE08BD00004422002040750200E8
:10462000682200202DE9F05F0025374FDFF8DC809D
:10463000DFF8DC90DFF8DCB02C46AA462E4638685E
:1046400000EB06300268424505D1334A41688918BB
:1046500030D001290DD000214FF4806250F8213074
:104660005B1C33D009EB041103200870641CA4B256
:1046700019E0BAF1000F09D0022209EB0411641C01
:104680000A70DBF800304B600A81A4B200220BF103
:104690000401CBF80000FFF773FFBBF80400022809
:1046A00030D008200543761CB6B2032EC7D3E8B23B
:1046B000BDE8F09F09EB0411002201F8042B01C1B1
:1046C0008A1DFFF75DFF45F00205CFE7491C9142C7
:1046D000C4D3DBF8002059465AB109EB0411022279
:1046E0000A7048600A480A8120304480641CA4B2E1
:1046F00005E008600220ABF804004FF0010A45F025
:104700000105D0E70420CDE768220020DEC0ADDE41
:10471000402F00204422002002FEE10E70B5184D0B
:104720000E46044623CD86B08DE82300154DADF826
:104730000420ADF802408DF80630A9782046FCF739
:1047400095FA18B13046FEF76DFB0FE007213046B1
:1047500000F0C2F950B1052808D109218DF80C10DC
:104760000490ADF80E4003A8FDF73EFB0022297827
:104770002046FCF78FFA6846FDF736FB06B070BDA1
:1047800014750200E4210020F0B585B00746FCF75F
:1047900061FA002814D06846FCF790F900246D46B1
:1047A0000BE000BF05EB44063946B088FCF75EFA23
:1047B00010B1B08802F0D4F8641C0098A042F1D87F
:1047C00005B0F0BD70B5054D06460024304655F8DD
:1047D00024108847641C052CF8D370BDC4740200F3
:1047E0003EB5104D002400BF04EB840005EB8000B3
:1047F00002F0C0FC641C082CF6D3012450200821D0
:104800000094CDE901100949C200074B01F5207061
:1048100000F0A8FC08B103203EBD0348447000200E
:104820003EBD0000202C0020CC210020902900203B
:1048300000F038BA00F038BA2DE9FF4100260446EE
:1048400000960196029603964088ADF80200207902
:104850008DF8040037462179608802F062FC2178E7
:104860003F4D0A2947D2DFE801F005053319193514
:1048700037393F4468B1417CC9070AD002F08AFC4D
:104880008DF800702078012800D000208DF80800F5
:104890001AE001208DF80000A06823E078B181685B
:1048A000A26891420BD1417CCA0708D06A6821F006
:1048B0000101521C41F004016A6041741BE00220B6
:1048C0008DF80000E06803906846FFF77BFF12E078
:1048D00003200BE0042002E0052007E006208DF80D
:1048E0000000E0680290EFE7012607208DF8000045
:1048F000EAE7E06802906868002826D0194C002595
:1049000005EB850704EB8700417C4A0703D4C1F31C
:10491000400131421FD0817834F8270000F0F0F8D0
:10492000C8B105EB8501042834F82110ADF8021058
:1049300004EB870189788DF8041008D009218DF8DF
:10494000001002906846FFF73DFFBDE8FF81082098
:104950008DF80000F6E76D1C082DD1D3F5E70000B7
:10496000CC210020202C002000F054BA08B5138878
:104970009B0000936B4600F0C9F908BD002300F0CE
:10498000C5B938B505460024204609E08178284697
:1049900000F0A2F810B1052800D003240098401CB4
:1049A00000906946284602F0CFFB0028EED134B9CA
:1049B000284600F033FA10B1072802D0032420461D
:1049C00038BD0724FBE71346002200F0D3B90000EE
:1049D0002DE9F0475FEA030815460E46824604D0EB
:1049E000072E05D0082E17D102E00E20BDE8F08773
:1049F00095B1082D10D8504600F01BFA60B14FF069
:104A000000093146504602F08CFB040025D0E068D6
:104A1000A84213D24F460AE04FF00700E6E7207C99
:104A20003844C1B22B4800F0D1FB7F1CFFB2E068D4
:104A3000B842F4D8204602F09DFB0EE017D9EFB241
:104A400007E0207C3844C1B2224800F0BFFB7F1C45
:104A5000FFB2E068B842F4D84CB95746FF214FF690
:104A6000FF7002F05EFB040005D00780A670207C7A
:104A7000FF2802D00CE01120B8E72946154800F0C5
:104A800043FB014620462174FF2913D04FF0010952
:104A9000E560217C0F4800F085FB02000DD0ABB231
:104AA0003146404600F052FAB9F1000F10D0082EFE
:104AB00005D00DE002F05EFBDDE7032096E7B8F8D5
:104AC00000006FF0050101EB8000D8F80410888029
:104AD00000208BE7102C002070B5002402F021FB91
:104AE00005000BD0686820B100F0BCF9040000D0CC
:104AF0000324284602F04EFB204670BD052070BD01
:104B00007CB50D460646072903D0082D01D00720A5
:104B10007CBD0020009001908DF80250294630465F
:104B200002F0FFFA040004D0607CC00703D000202C
:104B30007CBD05207CBD217C204800F033FB0200B9
:104B400022D029466846E36800F094F9684602F0EE
:104B5000D6FA04F1080369463046626800F00AF9A3
:104B60000146627C1648530704D5930702D5436873
:104B70005B1E436051B111290DD0042915D00729BE
:104B800000D0032108467CBD03207CBD22F0060036
:104B900040F0010010E04168491C416022F0020031
:104BA00040F0040060740021ECE743685B1C436044
:104BB00022F0040040F002006074E3E7102C0020B3
:104BC000CC2100207CB50D46072903D0082D01D04B
:104BD00007207CBD002602F0A4FA040002D0606821
:104BE00010B11CE005207CBD217C0F4800F0DAFAF2
:104BF00002004FF00000009001908DF8025010D09C
:104C000029466846E36800F035F9684602F077FA0D
:104C1000211D684600F00FF90646092801D03046EC
:104C20007CBD03207CBD0000102C002001490968D8
:104C300008470000C074020030B587B01748FDF780
:104C400061FA10B1032007B030BDFDF7A5F908B136
:104C50000420F8E700F0CCF9002002904CF20704A1
:104C600003900EE0694604A8FDF71AFA00988088C0
:104C7000A0F5404085B204A8FDF7D4F9284600F01D
:104C800073F902AA04A92046FDF7F1F90028E9D03A
:104C90000349012008700020D5E70000111E020022
:104CA000C021002000F086B900F08AB970B5054631
:104CB00086B014460E4600F5404080B20E4A694662
:104CC000FDF7D5F920B903A96846FDF7E9F910B158
:104CD000002006B070BDA57003984088208004981D
:104CE000606003988088A0F5404030806846FDF7FA
:104CF00099F90120EDE70000C421002002480021BD
:104D00004160816070470000C0210020F0B587B08D
:104D10001D46144607460E46FF280AD8084600F0EE
:104D200005F930B103AA3146384600F0E7F840B93A
:104D300002E0072007B0F0BD01A903A8FDF7B0F914
:104D400008B10520F6E7A67001984088208055B18B
:104D500082002868904204D802996068FAF76CFBD8
:104D600003E00420E6E70298606003A8FDF75AF923
:104D70000020DFE77FB588B01E460D460446FF28B9
:104D80002ED8A87800F0D2F850B36868069028882A
:104D9000ADF81C0004F54040ADF80000A87803AA67
:104DA00000F54040ADF8020006A801900120ADF8E2
