:020000040001F9
:10B0000058370020D5B00100EFB00100F1B00100C9
:10B010000000000000000000000000000000000030
:10B02000000000000000000000000000F3B001007C
:10B030000000000000000000F5B00100F7B00100C2
:10B0400035B40100F9B0010071B50100F9B001009B
:10B05000F9B0010000000000A1B2010041B20100FE
:10B06000F9B00100F9B00100F9B00100F9B0010038
:10B07000F9B00100F9B00100F9B00100F9B0010028
:10B08000F9B0010089B40100F9B00100F9B0010084
:10B09000A9B40100F9B00100B1B40100F9B0010098
:10B0A000F9B00100F9B0010000000000000000004C
:10B0B0000000000000000000000000000000000090
:10B0C0000348854600F07EF80048004749F101003A
:10B0D000583700200321094802680A4302600848E3
:10B0E00002680A4302600748804707480047FEE7B6
:10B0F000FEE7FEE7FEE7FEE7FEE70000240500406E
:10B1000054050040D1B40100C1B0010030B50B4678
:10B11000014600202022012409E00D46D5409D4231
:10B1200005D31D469540491B2546954040191546B7
:10B13000521E002DF1DC30BD70B5002425460028DC
:10B1400001DA01244042002901DA01254942FFF7D2
:10B15000DDFFAC4200D04042002C00D0494270BD1F
:10B1600003460B439B0703D009E008C9121F08C020
:10B17000042AFAD203E00B780370401C491C521ECB
:10B18000F9D27047D2B201E00270401C491EFBD2D6
:10B1900070470022F6E710B513460A4604461946E2
:10B1A000FFF7F0FF204610BD30B5044600200346EF
:10B1B00000E05B1C934203D2E05CCD5C401BF8D006
:10B1C00030BD0000064C0125064E05E0E36807CCC3
:10B1D0002B430C3C98471034B442F7D3FFF774FF6D
:10B1E000802B0200A02B020070B58C180578401C43
:10B1F0006B075B0F01D10378401C2A1106D102783E
:10B20000401C03E006780E70401C491C5B1EF9D1FF
:10B210002B0705D40023521E0DD40B70491CFAE7EE
:10B220000378401CCB1A921C03E01D780D70491C5A
:10B230005B1C521EF9D5A142D8D3002070BD00007E
:10B24000FEB5134C0026E0680125124F002810D0EF
:10B2500000F0F4F900280BD00120B86068460670B1
:10B26000E0680190217C68460181A57421688847C7
:10B27000FEBD094806600120B860084806606946BE
:10B280000D7080688880A57468462168EFE700002B
:10B29000242D002000730040007100400075004024
:10B2A000F0B50025FF268BB0013601242F4601950D
:10B2B000304604F0D3FA002807D0484840682042BE
:10B2C00003D0304604F0C2FA2543361D64007F1CCB
:10B2D000B6B2042FECD3FF247D34204604F0BEFA2E
:10B2E000002807D0204604F0B1FA600705433C4827
:10B2F000006901903B4C280714D0012700262F42FB
:10B300000CD03948B200111808690969C004C00E90
:10B310008903A258890F002A00D090477F00761C2D
:10B32000042EECD3002D57DA00200590401E4DE08E
:10B33000A119403108788506AD0E42B2521C39D0B1
:10B340000121A940089A0091114233D0800903904D
:10B35000284601F065FF800020580490002802D1A3
:10B360000398032826D103980099032802D1059851
:10B37000084305901D4AA80080180068019A8003C0
:10B38000800F114202D0022802D013E0032811D10D
:10B390000399032907D102281CD00221284604F072
:10B3A00045FA7F1CFFB20498002803D0049A28466F
:10B3B00003999047761C042EBAD3002F0CD008486E
:10B3C00000690199884207D00190059800273E4600
:10B3D0000890ADE70321E1E70BB0F0BD006300404A
:10B3E000000500504C2D0020006500400007005073
:10B3F0008307FF22DB0E9A408907090E9940002837
:10B400000BDA0007000F0838830808489B0018185B
:10B41000C36993430B43C3617047830804489B008F
:10B420001B181868904308431860704700ED00E04F
:10B4300000E400E0F8B5FF20013004F011F800242A
:10B4400001250E4E0E4F002807D00E480460012043
:10B45000B0607D70002001F045FFFF20053003F053
:10B46000FFFF002808D00748001D04600220B060DC
:10B47000BD70012001F036FFF8BD00000003004060
:10B48000382D00200001004010B50649002008605A
:10B4900048608860C860034940390860486006F029
:10B4A00057FF10BD4011014010B506F0C3FE10BD9E
:10B4B00010B506484068002805D08047002801D014
:10B4C00000F04CFB10BD03F0C1FA10BD3821002084
:10B4D00010B503F02BFB002805D01F491D4848601C
:10B4E000C8131E4988611E48018CC9B201290BD1BD
:10B4F000828C120708D1028D1206120F042A03D182
:10B50000828D1206120F0AD0012921D1818C0907E0
:10B510001ED1018D0906090F0A2904D007E0114A3E
:10B5200001219160F5E7828D1206120F05D00D29D9
:10B530000ED1808D0006000F0AD10B480168012949
:10B5400004D00A49016001680129FCD1C021416190
:10B5500010BD0000DFFF07C000050040006C004088
:10B56000C00F00F00006004000EC0640759300009C
:10B5700010B50249024806F08DFF10BD942D002041
:10B580000020004030B47446641E2578641CAB4231
:10B5900000D21D46635D5B00E31830BC184702E033
:10B5A00008C8121F08C1002AFAD17047704700204E
:10B5B00001E001C1121F002AFBD17047202804DAE4
:10B5C000012181400348014201D001207047002041
:10B5D00070470000FC06FFBC10B50178002926D199
:10B5E0004068445E012103F05BFF002801D000F0B9
:10B5F000B5FA4B2000014443E017800D001980127A
:10B6000041004018FF300F3080B200F0ADFC014621
:10B61000074800F099FE002809D0082807D00549FE
:10B62000884204D00449884201D000F097FA10BD46
:10B630004C240020043000000134000070B514498F
:10B640000020124B0860134908608C681248427C45
:10B65000C5685600521CAC53D2B24274047CA2425C
:10B6600012D2846800226468002C0AD0012284600F
:10B670002068486001200860002A00D0186000207F
:10B6800070BD44688460F3E7012070BD0070004025
:10B690000071004000750040242D002010B50028E6
:10B6A0000CD000290AD002780B789A4206D10622E3
:10B6B000401C491CFFF778FD002801D0002010BD78
:10B6C000012010BDF7B584B0064600251788158007
:10B6D00020300290407B1446002806D03A4621468E
:10B6E000059801F0C3F8050009D1B078002823D0EF
:10B6F000059886462088001DB84202D90C2007B064
:10B70000F0BD684679DF0028F9D121880320724610
:10B71000505420881921401C80B220801154208868
:10B720007146401C80B2208041186846008806F0AF
:10B7300045FF218840182080F078002817D0218804
:10B7400003230A46F356C91C0598B942D6D80221EC
:10B75000815421880122491C89B2218042542188C8
:10B76000491C89B2218043542088401C2080706885
:10B77000002817D021880023C3560A46C91C059803
:10B78000B942BBD80221815421880A22491C89B2BE
:10B79000218042542188491C89B221804354208849
:10B7A000401C2080308900280AD000943046019740
:10B7B000062202210830059B06F05AFF05009ED1A3
:10B7C000308A00280AD000943046019707220321CE
:10B7D0001030059B06F04CFF050090D1308B0028FF
:10B7E0000AD0009430460197152214211830059B89
:10B7F00006F03EFF050082D1306A002806D03B46A5
:10B800002246059901F0D6FD0500D8D1706A0028BE
:10B8100006D03B462246059903F04CFD0500CED1EB
:10B820000298007B002807D03B4622463046059907
:10B8300006F03CF90500C2D13078002807D03B461D
:10B8400022463046059903F069FD0500B7D1284628
:10B8500055E70000174A0021535C002B01D001225C
:10B8600003E0491C0629F7D300221349012806D01A
:10B8700002280BD0032810D0042818D112E04878F1
:10B88000002803D0002A01D00120704788780028C2
:10B8900003D0002A01D002207047C878002801D0C8
:10B8A000032070470879002801D004207047002049
:10B8B000704700003D200020E824002010B5012240
:10B8C0000221002001F0D8FA002801D0072812D167
:10B8D00007220221012001F0CFFA002801D0072819
:10B8E00009D100210A22084601F0C6FA002801D039
:10B8F000072800D1002010BD10B5032000F0A0FCE7
:10B90000002801D000F02AF910BDF0B50F468DB027
:10B91000002116466D460F24621A825C6A54491C47
:10B920001029F9D328460D211030FFF732FC0020F2
:10B93000221A395C5219401C11740328F8D3684646
:10B940004DDF0020211A4919203109783154401C5B
:10B950000328F7D30DB0F0BD70B590B005461C219B
:10B960006846FFF716FC69460878042108436946D3
:10B97000087000240194039404940594012608A9F6
:10B9800006948E70144869460884601C000707946A
:10B99000000F0C7720304877887FF9210840F72185
:10B9A000801C0840EF210840B04369468877142185
:10B9B0000AA8FFF7EEFB08A90C7107A80A910B90E3
:10B9C00069460E864C868E8609A80E90A888AB1D07
:10B9D0000AAAA2DF10B070BD062A0000F0B58FB031
:10B9E0000D4606461C216846FFF7D3FB68460178E2
:10B9F0000A200143684601700024019403940494D2
:10BA00000594012708A806948770164968460184A2
:10BA10000794697A0177A97A4177807FF9210840F4
:10BA2000F721801C0840EF21084041084900684682
:10BA3000817714210AA8FFF7ACFB297A08A80171C5
:10BA40000A9007A80B90684607864486878609A84F
:10BA50000E90334630890A330AAA6946A2DF0FB036
:10BA6000F0BD0000062A000010B5002805D001280E
:10BA700008D0022805D1102005E0112003E000F0D5
:10BA80006DF810BD0D2001F01BFA0028F7D110BD94
:10BA9000044842680121C9050B46934383600A406C
:10BAA000C26070470005005070B50024064D06E0E6
:10BAB0006968E000085C012103F0C8FD641C287877
:10BAC0008442F5D3002070BDDC200020F8B5154677
:10BAD0000C460646052A01D20720F8BD03F08CFE6D
:10BAE000002803D103F05AFE0028F6D110490020A7
:10BAF0004E600C70C8608D6008610E4D0DE0E00076
:10BB000069688019009181786A46517000780A4A04
:10BB1000694603F0E7FD0028DFD12046641EE4B249
:10BB20000028ECD1054A0021024800F023F8F8BDB6
:10BB3000DC200020642B020041E40100E5D5010077
:10BB4000BFF34F8F04490348C860BFF34F8F00BF56
:10BB5000FDE700000400FA0500ED00E00EB500214D
:10BB6000029000916A4601910148FFF7E9FF0EBD7E
:10BB700001400000094B5B68002B07D0002A07D06A
:10BB8000002805D00068037C002B03D008207047F4
:10BB90000720704741744261002070470021002057
:10BBA000FFB507469007002581B01E4614460028C1
:10BBB00025D1002C23D005F0F1FC3046114EF06069
:10BBC0003046103005704570029981704460756090
:10BBD000357001240C48757024050460032114207D
:10BBE000FFF706FC09480460094CA76003211120F7
:10BBF000FFF7FEFB6068B060002005B0F0BD0720D5
:10BC0000FBE70000F020002080E200E000E100E01F
:10BC100000150140FEB51F4B5B68002B30D000289B
:10BC20002ED0052901D20720FEBD4369002B27D065
:10BC3000437C012B26D0002702910446002569464B
:10BC400016460D70684600F03DF801A806F0FAFCB3
:10BC5000002819D0012101700F49446049688160B2
:10BC6000029907614661C16068460A4900794870D7
:10BC70006846007800F044F806F01EFB2846FEBD3A
:10BC80000820FEBD0F46D7E768460425007800F07F
:10BC900037F8F3E7002100200015014010B50849EE
:10BCA000496800290AD0002808D04169002905D038
:10BCB00000210174022106F027FB10BD082010BDF1
:10BCC0000021002030B5EFF3108172B6094A5468A4
:10BCD0000123002C04D00370002900D162B630BDCE
:10BCE0005360054B1D68054C254015601C60002203
:10BCF0000270F1E71421002080E100E0FC06FFBCA7
:10BD000008494A68002A0CD000280AD1EFF31080B5
:10BD100072B60A68044B1A6000224A60002800D1FB
:10BD200062B670471421002000E100E0F0B504463F
:10BD30008BB0008800F0A2FC0590208802F0F4FD92
:10BD40000646A0680090657A684605741E4F2088F4
:10BD50000022397800F0E2FC0598002831D06079A3
:10BD6000400710D50721304604F0B0FA002813D060
:10BD7000082269460A7422884A828E82069004A8A4
:10BD800001F07CFD08E02088B97800F0B5FC0028BF
:10BD900002D0304602F0B2FD0321684601712188CD
:10BDA000C18060794007C10F68460172A0794007E1
:10BDB000C10F6846417201788172C57201A801F015
:10BDC0005DFD0BB0F0BD0000C020002000B585B0C7
:10BDD00014216846FFF7DDF91348009001216846F9
:10BDE0000171002002906421684601730120014620
:10BDF0006846103141730120014668461031817355
:10BE0000002001466846C173012001466846103192
:10BE100001746946054800F0D1FA002801D0FFF707
:10BE20009DFE05B000BD0000ADF801004C240020CF
:10BE3000F0B50546007D002493B00E4600280DD0D5
:10BE4000012001466846103103940173717B4173F0
:10BE5000817BF92001406846891C81731C2104A85C
:10BE6000FFF797F96946087C022108436946087480
:10BE70002A7DEF21002A02D01022104300E0084062
:10BE80006A461074059407940894287D002800D011
:10BE900003A8099001270A9410469771304A8280BE
:10BEA0000094B27B0270F27B42708078F9221040DD
:10BEB000F722801C1040EF210840410849006846E5
:10BEC0008170317B017214210BA8FFF762F901A880
:10BED0000B9068460C908786C486078702A80F904F
:10BEE000A888AB1D0BAA04A9A2DF002835D1B06831
:10BEF000002830D0684687711A4981800094317CCF
:10BF0000017000200146684641708078F9210840A0
:10BF1000F721801C0840EF2108404108490068468D
:10BF2000817011A8B16800F036FE064614210BA8F6
:10BF3000FFF72FF901A80B9068460C908686C486FF
:10BF4000068711A80F902A46E8880E320BA9A3DFB6
:10BF5000002802D100E0EC81002013B0F0BD000009
:10BF6000192A0000082900001C4A10B5904201D38C
:10BF7000642010BD19496439884207D9101A3A2142
:10BF800048436421FFF7D8F8642109E0144A90423D
:10BF900009D9081A18214843A021FFF7CDF82A2112
:10BFA000081AC0B210BD0F49884208D9101A0C21D6
:10BFB0004843FF212D31FFF7BFF81221F0E70A4A6D
:10BFC000904208D9081A06214843FF215531FFF74E
:10BFD000B3F80621E4E7002010BD0000B80B000014
:10BFE000B40A0000880900003408000010B503F00E
:10BFF000B9FA10BDF0B50C4693B01F216A46118006
:10C00000072600279180002809D0C17849070DD55F
:10C0100002A9FFF757FB002809D102AD01E0002576
:10C020001780002C0ED0E078002802D0304613B0E4
:10C03000F0BD01AA0AA92046FFF744FB0028F6D16B
:10C040000AAA02E068460022878068468088C3B258
:10C0500068460088C1B2284672DFE8E7FFB581B0C4
:10C060001E460A9F1346040047D0002B45D0504D72
:10C07000012028700020E870202219464D48FFF763
:10C080006FF800206F61C0432E6128812846072188
:10C090001830FFF77EF8474838212030FFF779F84D
:10C0A0004448217820300170A1788170E178C17016
:10C0B000617841703F4A656923695563114613638E
:10C0C0002031E368A268CB608A603A49E369A269DB
:10C0D000CB638A63616A00291AD00146383102466F
:10C0E000443241628A60636A1B880B80616A436ADA
:10C0F000898899800021436A07E00E2005B0F0BDD1
:10C10000656AAD686D5C5554491C9D888D42F7D8B1
:10C11000A16A00291CD0274A903211460C398A6046
:10C120008162A36A9B888B80A16A836A09881980CF
:10C130000021836A04E0A56AAD686D5C5554491C12
:10C140009D888D42F7D82C210A5D1A4940310A7327
:10C15000216A002909D016490A310162226A5288EF
:10C160004A80216A026A098811806168002900D02A
:10C170004160104A0E490020AF322031C3001B1A23
:10C1800085009B180C68401C63510828F6DB094A9F
:10C190000020E732030185009B188C68401C635126
:10C1A0000828F7DB034802992030FFF723FFA5E7B3
:10C1B00024200020E824002010B50188134C102909
:10C1C00015D0112919D01B2910D1007A00280DD1C2
:10C1D000E0780521401CFEF799FF084600F030F892
:10C1E000002803D06169002900D0884710BD817DF7
:10C1F0000129FBD18088208110BD002161718088D8
:10C2000021898842F8D10120E8E70000242000209D
:10C2100010B5022801D003280ED1084C6078002800
:10C220000AD000206070E07800F00AF8002803D0FF
:10C230006169002900D0884710BD0000242000203B
:10C24000F1B53F4C88B0207800280AD00898E070FB
:10C2500006A801F00FFE06980125002804D065709D
:10C260006AE0082009B0F0BD3548002707211830E2
:10C27000FEF78FFF334E7078002802D0E078012857
:10C2800007D0B07800280CD0E078012801D002282F
:10C2900007D12169002903D025710820884700E0D3
:10C2A00027710898FFF7D6FAE0702169002909D0B4
:10C2B000032801D0042805D13078002802D0607905
:10C2C000002811D0A77118216846FEF762FF684662
:10C2D00007700772E1781A480B001830FFF752F91F
:10C2E000052E080F191D2000A57107208847EAE7D1
:10C2F000A5700190684605704782078213E002210D
:10C30000A170019068460570B1894182318901822E
:10C3100009E0684605F06EFC02E0684605F096FC10
:10C32000E078002803D0684673DF00289AD121699D
:10C33000002901D0A0788847002093E7A770F6E78E
:10C3400024200020E824002073B586B004002FD0FC
:10C350006A46217C127F0020914227D000250126C9
:10C36000684600950680458007A80190E188608AAC
:10C370006A46A4DF002819D16846007F2074608ACD
:10C380000D49884216D0207D002813D002950395D0
:10C3900004950595E188684601818672418881810E
:10C3A000049001980590608A02A9A6DF08B070BDCC
:10C3B0000E20FBE70820F9E7FFFF000038B50D4627
:10C3C00004001AD0002D18D0286820600020C04337
:10C3D000608228792075FF202074012168468170D1
:10C3E00007490180221D69460120A0DF002803D1F2
:10C3F00029462046FFF71CFD38BD0E2038BD000041
:10C400000F18000038B5002824D0002922D00A884F
:10C41000102A1AD0112A1AD0502A1BD10446007DA6
:10C42000002817D0C8886289891D904212D1488996
:10C4300002280FD1206800280CD008460C3000F0EC
:10C44000A3FB002807D0002006E0898801E0002136
:10C45000C943418238BD01206946087022682046E0
:10C46000904738BD70B5054601461C220E48FEF7C0
:10C4700077FE0E4C002626702968002906D0082277
:10C48000201DFEF76DFE201D7ADF02E00748001D2B
:10C490007BDF002807D1401E60806670044A0021BF
:10C4A0000448FFF767FB70BDB02600205420002031
:10C4B000C9250200CC2A0200F8B5214C01460288A9
:10C4C00000261E48E589102A13D01E4F112A1FD0BE
:10C4D000122A2BD0502A1AD1881DC988A94216D1F8
:10C4E0004189022913D10C3000F04EFB00280CD1F9
:10C4F00012E08A8804464280104808220C30183125
:10C50000FEF72EFE6670002D01D100F09BFFF8BDF6
:10C510000021C943418046703868FFF7BFFB0028FF
:10C52000F5D0A1690029F2D08847F8BD0348082258
:10C530000C300831FEF714FEE7E70000542000201D
:10C54000B0260020CC2A020010B503490A7D091D3F
:10C5500005F0F9F810BD0000CC260020034B10B503
:10C560000246D97D181D05F0DBF810BDCC26002051
:10C57000034B10B50246197E181D05F0D1F810BD09
:10C58000CC260020F0B5044602883A488DB001461A
:10C5900015310191102A09D0112A50D01A2A4AD1F6
:10C5A000217A090901294ED901234DE0027D417DFF
:10C5B00005468A43011D07A805F0C5F8142207A9FE
:10C5C00002A8FEF7CDFD00262A4837461430089011
:10C5D0000AE0710002A8081883881D220097281D10
:10C5E000089905F05DF8761C0298B042F1D8287DD4
:10C5F000A688C043C0B205F077F81F49884217D01B
:10C6000040004019868001233246281D019905F01B
:10C61000BDF801233246281D089905F0B7F8A07D22
:10C6200002280AD000231349A2881631281D1DE0D4
:10C630000420FFF793FA0DB0F0BD0123F3E70023C8
:10C64000A288001D12E000230A490546A28817317E
:10C65000001D05F09BF8207A0009022801D901236A
:10C6600000E000230349A2881831281D05F08EF848
:10C67000E1E70000CC260020FFFF000070B50B4E64
:10C6800005460024317D2A46301D05F049F8002872
:10C6900009D0B17D2A46301D05F042F8002801D0AE
:10C6A000022400E00124204670BD0000CC260020BA
:10C6B00010B50024204605F0B9FF002805D0641C01
:10C6C000E4B2182CF6D3182010BD044801220168EA
:10C6D000A24011430160204610BD0000CC2600207E
:10C6E00010B5044605F0A2FF002802D00148001949
:10C6F000407E10BDCC26002070B505460C4608468D
:10C7000005F094FF002806D003482A460119497E07
:10C71000001D05F005F870BDCC26002070B506465A
:10C7200015460C46084605F081FF002807D004484E
:10C730002B4601193246001D193105F027F870BD4E
:10C74000CC26002070B500280AD00F4D297800298A
:10C7500008D0044604F0FCFE002805D0002070BD7F
:10C760000E2070BD082070BDE868062809D2074A6F
:10C770008100891822880A8062884A80401CE8600B
:10C78000ECE7042070BD0000682000200027002096
:10C79000002808D0002205490123CA600B708A6076
:10C7A0004860104670470E20704700006820002047
:10C7B00010B5002811D000290FD0124A1278002A93
:10C7C0000BD00A88112A11D0302A07D0322A09D07A
:10C7D000332A02D1091D03F04BF910BD091D03F0E6
:10C7E000FDF910BD091D03F0CBF810BD8A88FF21AB
:10C7F000AB31095A8A42F8D10021FF30A130C17112
:10C8000010BD00006820002010B50B4600280ED097
:10C81000144A117800290CD0D168002909D00446A7
:10C82000FF34A134E179002905D0112010BD0E207C
:10C8300010BD082010BDFF21AB310B5200219160CB
:10C84000024621720848A1710188118040885080F9
:10C850000121184690DF0028ECD10120E071002072
:10C8600010BD000068200020002700207CB5054690
:10C8700008880C460930904201D90C207CBD6846DE
:10C8800071DF0028FAD121880820685420881B21F4
:10C89000401C80B220802954208800A9401C80B20E
:10C8A0002080401906220131FEF75AFC2088694693
:10C8B000801D80B220800978002900D001212954F0
:10C8C0002088401C208000207CBD000010B504465C
:10C8D000FFF758FE204604F0F1F921461348FFF710
:10C8E00067FF2046FFF7E8FD2146114800F0DCF81D
:10C8F0000F482146103000F01DF90D482146243024
:10C90000FFF780FD0A4821463C3000F042F8084815
:10C9100021460C3800F094F9204600F0C1F9204679
:10C9200002F0DCFF2046FFF747FC10BD702200201C
:10C9300028240020002803D00181C28200207047F3
:10C940000E20704710B5002817D00A68002A14D0AE
:10C95000002912D00260496841600021C943018169
:10C960000021C18201210174054AC2810173054978
:10C9700041810A30FFF7E6FE10BD0E2010BD000019
:10C98000062A000002180000C08A002800D00120FA
:10C9900070471FB50988112910D104460020C043F3
:10C9A00020812046FFF7F0FF002807D002206946CB
:10C9B00008702268204690470020E0821FBD0000DA
:10C9C000F3B585B000270C46009701970297012127
:10C9D00068460397017061884180264620780E36AC
:10C9E00000281BD1A0881349884217D1A0790128BB
:10C9F00014D100250FE028460C214843325A0E4935
:10CA0000CA4207D181190879400703D50A2201A833
:10CA1000FEF7A6FB6D1C207AA842ECD868468089F8
:10CA2000002801D06846077005986946026890475B
:10CA300007B0F0BD02180000FAD5FFFF33B583B090
:10CA40000446FFF7A1FF002811D02089E48A0021C5
:10CA500000916D46019101236C8002242C70A98005
:10CA600004AAEB806946029298DF05B030BD05202C
:10CA7000FBE7000038B50446086800280FD02060A6
:10CA800001216846817007490180221D6946012005
:10CA9000A0DF002802D12046FEF75EFF38BD072048
:10CAA00038BD00000218000008B50A88102A12D00C
:10CAB000502A0FD1CA88C388891D9A420AD14A894F
:10CAC000012A07D100236A461370097B517002685E
:10CAD0006946904708BD8988C18108BD1CB5002200
:10CAE00001246B4600921C805A8001914189408A42
:10CAF0006A46A5DF1CBD000038B5044608680D462F
:10CB0000002813D020606868606001216846817049
:10CB1000074901802246083269460120A0DF00282B
:10CB200003D129462046FEF759FF38BD072038BDFE
:10CB30000318000038B50B880022102B0BD0112BE6
:10CB40000CD0192B1AD1097A002917D169460A701D
:10CB50004A70026816E089884182F7E70446087A3D
:10CB600008280BD168460270411C2046FFF7B6FF2B
:10CB7000002804D06168002900D0884738BD2268A9
:10CB800069462046904738BD417802780802104334
:10CB9000C007C00F70470A780270497841700220C0
:10CBA0007047000000B5174887B040680590002323
:10CBB0004822154905A805F0F9FA002801D0FEF72A
:10CBC000CDFF6A460121002005F0D8FA002801D0E7
:10CBD000FEF7C4FF684605F0C7FA002801D0FEF74B
:10CBE000BDFF0A4805F0B6FA002801D0FEF7B6FFEF
:10CBF000074805F00DFB002801D0FEF7AFFF07B096
:10CC000000BD0000882A020028220020CDC80100B3
:10CC10002522020038B504460D4601216846817080
:10CC200006490180224669460120A0DF002803D181
:10CC30002946204605F0E8FB38BD00000418000036
:10CC40000A88102A01D18988418170477CB5134E2A
:10CC500000250C463060002918D06946002000F0FD
:10CC6000B5F8002819D101A9012000F0AFF800287B
:10CC700013D1684601790020002901D0022004E088
:10CC800069460978002900D00B20207070680028C0
:10CC900002D1FEF713FE054628467CBD1C2000206D
:10CCA00010B51C4C0188606810290DD011290AD1DB
:10CCB000401E606007D1FEF701FE002803D0216806
:10CCC000002900D0884710BD00281ED10021012274
:10CCD000084600F0D1F8002801D0072811D107221A
:10CCE0000221012000F0C8F8002801D0072808D14F
:10CCF00004220221002000F0BFF8002805D00728F8
:10CD000003D02168002900D088476068401C60601B
:10CD100010BD00001C20002010B5032000F02AFAEE
:10CD2000002801D0062800D1002010BDF8B5074624
:10CD30000024234802E0641C042C1AD2A20082586A
:10CD4000BA42F8D1042C14D21D481E4E0C380029CA
:10CD500029D001290ED002290BD16000201880199A
:10CD60004578002D05D018480169002901D02846D2
:10CD70008847F8BD61006118755C8E1971780029CB
:10CD80000CD011490A224968806851430E4A521C4E
:10CD9000FEF740FF002801D10B4847700A48B178E0
:10CDA00014300155DDE78068FEF778FF0648610022
:10CDB000611814308919005D8D78A842D1D0F8BD72
:10CDC0009C2A0200BC2400200420002004280CD24D
:10CDD000074A1269074B80001B5C01209840904372
:10CDE00000D001200870002070470020FAE7000002
:10CDF000000500509C2A020010B504280CD00A2817
:10CE000007D00D2811D00E2805D1112000F058F8B8
:10CE100008E004F045FF10BD13481321008976DFB8
:10CE20000828F8D0002815D110BD104C2078002813
:10CE3000FAD06078002810D000210B48FFF7FEFDE3
:10CE400000280CD00A498842EED00A498842EBD02B
:10CE50000528E9D0FEF782FE10BD0221EDE76078DB
:10CE600001214840607010BD64240020E81F0020AC
:10CE7000043000000134000070B50023042811D2F2
:10CE8000440004190D4D012A02D101290DD00022C0
:10CE900046008019094E801900290CD0012906D0BE
:10CEA000022906D00723184670BD0D30C2B22A559C
:10CEB000F9E74270F7E78270F5E70000BC24002034
:10CEC00010B5054A0146127A0020D20702D0084662
:10CED00000F054F810BD00000420002070B50E468C
:10CEE000204905464E608D6000200A61A9071ED5C5
:10CEF0000024012211462046FFF7BEFF641C042CCB
:10CF000002D20028F5D012E0002810D172080421C6
:10CF10001548FEF7DBFD002809D1FEF7C5FD002806
:10CF200005D11148114A00211438FEF723FEE90704
:10CF300006D00F220E4952058A600023CB608A6119
:10CF400000280DD108480B4A00211C38FEF712FEBC
:10CF5000002805D10448084A01211838FEF70AFEC6
:10CF600070BD000004200020AC2A0200B1D10100F5
:10CF70000005005099EB010091BA0100FEB57A4D11
:10CF80000722EB6892059A4302936B6800939C001A
:10CF900006461B1900200121019349050746734CE1
:10CFA0003300FEF7EFFA180D1515374755677C88E3
:10CFB0007F8891DE9E9E9E9E9EC8CED1D8DEDE14D6
:10CFC0000F21029A49059143A160E7602F70FEBDD1
:10CFD000A260E76060680F2252055040800209D5C8
:10CFE000A160E760022E02D1E120C0000AE07D20AE
:10CFF000400107E0E160A760022E01D1C82001E0F6
:10D00000FF2091302E706421FEF780F80099414393
:10D0100000223FE0A260E76060680F2252055040A6
:10D02000800204D5A160E76019204001EAE7E160D1
:10D03000A760E3E7A260E76060680F2252055040F6
:10D04000800202D5A160E760D1E7E160A760D7E781
:10D05000A260E76060680F2252055040800202D54E
:10D06000A160E76001E0E160A7602E7000984100D8
:10D0700000220FE0A260E76060680F225205504076
:10D08000800202D5A160E76001E0E160A7602E7038
:10D090000099002236480068FEF7BCFDFEBDA26084
:10D0A000E7601BE061680120800502468A43A260B8
:10D0B0000140E16010E06068012189050A46824371
:10D0C000A2600840E060E3E76068012189050A4644
:10D0D0008243A2600840E0600199C9E7E160A7606F
:10D0E0002DE023484068FEF7D9FD11218A1B01D0AD
:10D0F000002807D00F22E96852051140A160E760BF
:10D10000EF60FEBD0121C905E960012A0CD9104676
:10D11000C82148436421FDF7F9FF696800224143B3
:10D1200013484068FEF776FD0F22E968520511406A
:10D13000E160A760FEBD0F214905A160E7602E7088
:10D14000FEBD07229205AAE70D214905A160E7600F
:10D1500001218905C2E70321C905A160E7608910A3
:10D16000BCE70F214905B9E7042000200005005065
:10D17000902A0200F0B500210B4C0C4D03273F0410
:10D180008A00A25892005619326801238B4003404E
:10D1900000D00323BA431B0413433360491C042902
:10D1A000EED30020F0BD00009C2A020000070050D2
:10D1B00010B500780221FFF7B9FD10BD0022D2435F
:10D1C000830004490428CA5002D30818203002778B
:10D1D000704700004C2D0020F0B50025ED43002ADB
:10D1E00002D00023042601E0042308260B4C04E0AF
:10D1F0009F00E7597F1C04D05B1CB342F8D328463C
:10D20000F0BD26185DB2203635709E00A151002A6F
:10D21000F5D1E11820310877F1E700004C2D00200E
:10D220000249091820200856704700004C2D0020A4
:10D2300038B50B460146FF310246A13188794624B4
:10D24000604380184A79002A08D0521ED2B20C21BD
:10D250004A431118498A6A46491C01E0C1886A4656
:10D260001180008950801146184692DF38BD0000B9
:10D27000002807D00449814204D80449814201D9D9
:10D2800001207047002070475021002060210020BD
:10D29000044A0168914201D0083101E0014938395E
:10D2A00001607047AC2E002070B50D4D04460A4653
:10D2B0002846AC4208D1FF2401342146104603F031
:10D2C000BBFCA0420AD070BDFF2CFCD82146104602
:10D2D00003F0A4FC002801D0204670BD284670BD94
:10D2E000FFFF000070B5084C050009D0103421681C
:10D2F000002907D008682060496828468847F6E773
:10D300000834F4E770BD0000382D0020F8B523483C
:10D31000416800293ED00E6821494C6887688078B2
:10D32000E11B0D022D0AED1C002814D101201D4A1D
:10D33000000450601B4A403A50601B49400008609E
:10D340001A4908601A49012008602F2002F090F85D
:10D35000124901208870B54200D23546E819000212
:10D360000F4B000A403318600D4A5168001B091B1F
:10D370000902090A0002000AC91C814209D9506841
:10D3800018602F2002F074F801200749400480390A
:10D390000860F8BD04F002F9F8BD0000F02000209C
:10D3A000001501404013014080E200E000E100E090
:10D3B00000100140F8B50646108814468446801DCA
:10D3C0000D46984201D90C20F8BD32880720062A64
:10D3D000FAD31927FF01184BBA4201D99A42F3D167
:10D3E00071880629F0D3B94201D99942ECD19A4209
:10D3F00003D0994201D08A42E6D8052160462954DB
:10D4000020881221401C80B2208029542088401C92
:10D4100080B220804119308805F0D0F8218840186A
:10D4200080B220804119708805F0C8F82188401822
:10D4300020800020F8BD0000FFFF000010B5FEF7BF
:10D440008DFB10BDF8B5164801F040FB144D0026C9
:10D450000C3D144C002807D0616900291CD0012024
:10D460006A461070684616E02878002805D0616981
:10D47000002911D0684606700DE0687800280DD0AC
:10D48000A168094800220068FEF7C4FB002803D009
:10D49000A169002900D088472E70F8BD6168F0E7C7
:10D4A00060200020B0260020CC2A020010B50146E2
:10D4B0000148FFF785FA10BD64240020F0B585B05F
:10D4C0000C46002802D0012005B0F0BD20790027CD
:10D4D0000126002806D01F4D012820D002282CD07C
:10D4E0000F20F1E702970397E0680190694601A8D1
:10D4F00003F062FF00280ED002988188E180008846
:10D500002081029803F0D2FF694609880A01124976
:10D5100051188E7300E00A2002212171D4E70F4BCD
:10D520006A460021A01D03F005FF002807D00B4923
:10D5300008398F60CF600A28C6D12846C4E7019811
:10D5400003F0B4FF054989880A01034951188E7315
:10D55000F1E700001D1D0000BC2E0020242100204A
:10D56000F7B50546FF350646A135A879462148435B
:10D5700087196C790C206043C1193A79601C0A3113
:10D5800082B0904226D101AB0022304601F0ACFAC5
:10D59000002822D010E0401EA04201D1002003E06C
:10D5A0000C206043C01916300246009001AB304693
:10D5B00001F09AFA002807D003980021017001A910
:10D5C000049893DF05B0F0BD68790099401C641C95
:10D5D0006871E4B23879A042DDD803980121017066
:10D5E0000020EFE7F8B500260124154D23E0696817
:10D5F000F0004718387821462A698140114218D036
:10D600008A432A6102F0C0F83A782146EB689140DB
:10D6100019400346934099420BD17978012901D0F2
:10D62000012100E000217B684140002B01D0104621
:10D630009847761CF6B228788642D8D3F8BD000009
:10D64000DC200020F7B5FF21A7311446095C4622F3
:10D6500051430F18384603F07BFF060033D01A4AB7
:10D66000906806282FD22146144650225043174D69
:10D670004622401941803946001DFDF771FD019891
:10D680000027002804D0A068502148432F5404E00C
:10D69000A0680221502250432954A06850214143E0
:10D6A0004919401CCE64A060E16888420BD1002675
:10D6B00005E0502070434019C16C8847761CE06833
:10D6C0008642F6D3A760FEBD682000201827002000
:10D6D00030B50D46FF21A7311446095C462251435F
:10D6E00093B0081803F034FF030005D06846448067
:10D6F000012101700195984713B030BD10B50E4956
:10D7000000230A784C78A24212D0521CD2B20A707E
:10D71000022A00D10B700A78074B920018339A58EE
:10D720000260886810180002000A8860012010BD9D
:10D730000360002010BD0000F02000203EB5094D20
:10D7400038CD0093029501946B46588099809A7168
:10D75000054900220978FEF7E1FF684600F08EF8DF
:10D760003EBD0000502B0200C020002010B5047800
:10D7700000222300FDF706FF070605070D1D262CD6
:10D7800006000A7010BD01220A7002898A8182880F
:10D7900014E002220A7002898A818288CA81C268E2
:10D7A0008A60007C062802D00020087410BD012089
:10D7B000FBE703220A70C2888A810289CA81C06895
:10D7C000886010BD04230B70C0888881CA8110BD99
:10D7D0000520087010BD000070B5064D06460024F7
:10D7E000A0002958002901D030468847641C082C25
:10D7F000F6D370BDDC2D00200EB5002910D0112904
:10D800000ED00022009202926A46508001910D29AA
:10D8100007D0042907D009201070104600F03CF80A
:10D820000EBD0B20F8E70A20F6E700000149096861
:10D83000084700008020002070B5054D06460024F2
:10D84000A000295830468847641C022CF8D370BDCC
:10D85000E82A0200F8B507460024064E064D04E00B
:10D86000A000315838468847641CE8788442F7DBCA
:10D87000F8BD0000D82C0020B020002070B5054D68
:10D8800006460024A000295830468847641C022C14
:10D89000F8D370BD182B0200014909680847000041
:10D8A0005C2B02007FB50446406800280BD00020A6
:10D8B000039020780026414D0300FDF763FE066DBE
:10D8C0000606304E7B6D0120F2E7A08900F0DCF9FE
:10D8D000002804D1E08903F001FE00285CD0A08973
:10D8E00000F0CCF9014668464180E08903F0F0FD84
:10D8F00001466846017120780128606807D0002839
:10D9000009D00420694608706068039020E0002870
:10D91000F8D00320F6E70120F4E708463AE0A089B2
:10D9200000F0B2F9002804D1E08903F0D7FD002807
:10D9300032D0A08900F0A2F969464880E08903F05E
:10D94000C7FD694608716068002804D0052008708A
:10D95000A0680290E1E70220F9E7A08900F094F9BD
:10D96000002819D0E089002816D1A08900F086F996
:10D9700069464880E08903F0ABFDFF2069460871E5
:10D98000606800280FD0072008706E70AE7002F03B
:10D9900077FE684602F032FD6878002802D06E708B
:10D9A00002F06EFE7FBD062168460170408802F0DD
:10D9B000F5FEEAE7082069460870AEE79C200020E3
:10D9C00000B5104987B00978890702D4022007B052
:10D9D00000BD0D49884201D10420F8E705226946BF
:10D9E0000A7001220A71C88000221146684602F0BE
:10D9F00063F9002803D003F081FC0020E7E708204A
:10DA0000E5E700001C210020FFFF000000B50F48E3
:10DA100087B00078800702D4022007B000BD06203E
:10DA20006946087000221146684602F045F9002850
:10DA300009D007480178002901D00121017303F0C2
:10DA40005DFC0020E9E70820E7E700001C2100203A
:10DA5000DC2E002000B58DB014216846FDF799FB3F
:10DA60001E480078810703D56846FFF7B5FE32E00F
:10DA7000C00730D1012000F02DF900F0A5F902F027
:10DA8000ADF900280ED006280FD001216A46117585
:10DA90000300FDF777FD0C19111911191819181940
:10DAA000131613190B200DB000BD022000F012F95F
:10DAB000012000F0F5F8D7E7002000E00320107601
:10DAC00002E00220FBE711760022114605A802F0D1
:10DAD000F3F803F013FC0020E5E700001C21002010
:10DAE00038B5040014D0694603F066FC002813D052
:10DAF000684600880101094809188889002809D06A
:10DB0000A27A002A06D0401E88810020A07238BD6B
:10DB1000052038BD062038BD0A2038BDBC2E0020A7
:10DB20001FB501A9684603F005FC04B010BD07B598
:10DB300013460A466946002003F0FCFB0EBD07B5FC
:10DB400013460A460021684603F0F4FB0EBD002888
:10DB500005D0002903D00068086000207047052028
:10DB60007047000038B50D46040017D0002D15D0C1
:10DB7000694603F021FC002812D0684600886168DD
:10DB80000201084812189089401C90812960606841
:10DB90000C3068600120A072002038BD052038BD1F
:10DBA0000A2038BDBC2E002010B5002804D0032365
:10DBB000002204F037FE10BD052010BD10B5022371
:10DBC000002204F02FFE10BD10B5002A03D002235E
:10DBD00004F028FE10BD052010BD000010B5064A57
:10DBE0005178082906D08B00044C491CE050517034
:10DBF000002010BD0C2010BD1C210020DC2D0020B9
:10DC000038B504460A480D460078800701D4022042
:10DC100038BD002C0AD06946284604F00FFF0028C2
:10DC2000F6D1694609882180658038BD052038BD58
:10DC30001C21002010B504460E480078800701D44E
:10DC4000022010BD002C10D0218802290FD80A4ACA
:10DC50000801801842896088121A032A07D404F048
:10DC6000E3FE00202080608010BD052010BD042050
:10DC700010BD00001C210020BC2E002003218903C0
:10DC8000401A80B27047000003218903401A0349FB
:10DC9000884201D80120704700207047FE3F0000F5
:10DCA00002490A7882430A70704700001C21002054
:10DCB00010B504460078182802D1FEF7F9FC207050
:10DCC00010BD10B504460078182802D1FEF7F0FC0C
:10DCD000207010BD02490A7802430A7070470000A4
:10DCE0001C21002070B5064600200546042906D0F8
:10DCF000112902D0002903D070BD012500E00120C8
:10DD00000E4C002A02460FD061793046FEF706FD20
:10DD10002A4621793046FEF701FD0022617830461F
:10DD2000FEF7FCFC002204E061783046FEF7F6FCCA
:10DD30002A4621783046FEF7F1FC70BDC420002051
:10DD4000F8B506461C481F46007815460C46C00725
:10DD50000AD03046FFF78CFA002807D0002C07D0F5
:10DD6000A00507D00620F8BD0120F8BD0220F8BDAF
:10DD70000320F8BD3068A04204D8A80271680019D9
:10DD8000884201D90520F8BD002D10D0684603F067
:10DD900007FA00280DD000980221C0C00170A1012F
:10DDA000090C8180058103F0B7FA0020F8BD04203A
:10DDB000F8BD0720F8BD00003421002010B508464A
:10DDC00003F00AFA10BD0000F0B52648264C001BEF
:10DDD0000309264819464069421C03D10120000767
:10DDE00040698002224A12789646D2070CD0002061
:10DDF000F0BD1D4C15012C192568002D03D0646859
:10DE0000002C00D0491E521C9A42F2D3002420E07C
:10DE1000E2B2002594462A460FE0134E1701BE19C0
:10DE20003768002F02D07768002F05D1767BAE428D
:10DE300002D93546D6B2B446521C9A42EDD3624658
:10DE40001501094AAA185060157BAD02401B641CDD
:10DE500010608C42DCD306487146012211430170E8
:10DE6000C5E70000602100205021002000100010B4
:10DE700034210020002804D00349496E01600020AD
:10DE80007047032070470000EC2E0020F8B50746CD
:10DE90001E481E46007815460C46C0070ED0384670
:10DEA000FFF7E6F900280BD0002D0BD0002C09D08D
:10DEB00028462043800707D00620F8BD0120F8BD82
:10DEC0000220F8BD0320F8BD3868A04204D8B10094
:10DED00078680919884201D20520F8BD002E11D0BA
:10DEE000684603F05DF900280ED000980699076097
:10DEF000416001210172C5600461868203F00CFA61
:10DF00000020F8BD0420F8BD0720F8BD3421002012
:10DF100070B5174B0446186E182148431549C018B0
:10DF20000A78950715D5022C02D0032C1CD102E0EB
:10DF300001F02AFE18E04A78521CD2B24A70032A35
:10DF400012D900224A70082103F0F2FC03F012F902
:10DF50000AE0500708D5FB2002400A70586E0028DE
:10DF600002D0022002430A7003F092F970BD000053
:10DF7000EC2E0020342100200EB5112069460872D5
:10DF80000B2213A102A87CDF002801D0FDF7E6FDDB
:10DF90000920800178DF002801D0FDF7DFFD002196
:10DFA000FF20913000916A46019110804300538018
:10DFB0009180D08068467ADF002801D0FDF7CEFD41
:10DFC0000720C04377DF002801D0FDF7C7FD0EBD55
:10DFD0004E6F726469635F50726F780070B500288D
:10DFE00001D0012070BD164C0025207B002801D0F7
:10DFF000257301E000F09CF820780300FDF7C2FAD9
:10E00000081E05080B0E1E111A1E00F01BF870BD2D
:10E0100000F07EF870BD00F061F870BD00F038F8D7
:10E0200070BD60880649000120394018406801F041
:10E03000B5FE70BD656001F0BFFE70BD0F2070BD04
:10E04000DC2E002070B5104900208A1C0D460346C6
:10E05000203D0C18A67A002E08D0A3720401641982
:10E06000A689002E02D1A47B012C08D0401C80B2CE
:10E070000228EED30B704B8004484B6070BD1080BB
:10E0800000F046F870BD0000DC2E00201D1D0000D1
:10E0900010B50F4C6088010120462038081881898E
:10E0A00000290BD0052020700A48022181800168D8
:10E0B000002301220848FFF743FE10BD41680023FA
:10E0C00001220548FFF73CFE0421217010BD00002D
:10E0D000DC2E00202C2100205021002038B50A49D8
:10E0E00008480B68898842688900591853880324B6
:10E0F00004700020DB1C00909BB20448FFF7C6FEB2
:10E1000038BD0000DC2E00202C21002050210020F2
:10E1100010B506494888091D03F09EF9002802D071
:10E12000FFF7DCFF10BDFFF7B3FF10BDDC2E0020B2
:10E13000F0B51D481D4907780246012502268C8846
:10E14000203A3B00FDF71EFA080517171A212C2C60
:10E1500016170189491C01810021418001730B01BF
:10E16000D35C002B08D000234418491C89B2A37249
:10E170000229F4D30570F0BD0123F5E74268528807
:10E18000D21CA2188A800670F0BD45880B682D014C
:10E19000AA1855680D60536014818E80062100E036
:10E1A00007210170F0BD0000DC2E00202C21002092
:10E1B000F0B504460088384D8DB050281DD0522847
:10E1C00002D0542826D103E0A08800F02BFF21E0E4
:10E1D000062069460870A08800F0A6FB69464880C2
:10E1E000A2888A8000F054F9A0880022E978FEF71E
:10E1F00095FA6846FFF71AFB0CE0207B012809D14D
:10E20000A07A012806D120892449884202D1A08819
:10E2100000F044FFA878FEF763FA002819D008A898
:10E22000FEF792F9142208A903A8FCF799FF00242D
:10E2300003AE0BE060008719B888A978FEF75CFA96
:10E24000002802D0B88800F0EDFE641C0398A042BC
:10E25000F0D86878FEF744FA002819D008A8FEF72D
:10E2600073F9142208A903A8FCF77AFF002403AE6F
:10E270000BE060008719B8886978FEF73DFA00283E
:10E2800002D0B88800F00AFF641C0398A042F0D8BE
:10E2900003F072FB0DB0F0BD7820002002290000D1
:10E2A0003EB504464088694648802078002814D04E
:10E2B00001281DD002280FD1207900280CD06088B9
:10E2C00000F066FA0E49884206D00E490122C9784C
:10E2D000FEF724FA03F050FB3EBD0020087008460C
:10E2E000FFF7A4FA608800F053FA00F09BFE3EBDF1
:10E2F000012168460170A1888180FFF797FA3EBD31
:10E30000FFFF00007820002010B5044600780128A7
:10E310000DD1608800F086FE608800F07DF900284D
:10E3200005D0034960880122C978FEF7F7F910BDCE
:10E330007820002010B5104C00202070FEF7B8F9AE
:10E340006070FEF7B5F9A070FEF7B2F9E070FEF765
:10E35000AFF92071617818290BD0A178182908D05D
:10E36000E178182905D0182803D00120207000205A
:10E3700010BD032010BD000078200020F0B585B04E
:10E3800000F09EF86846FEF7DFF800246D460C4F5B
:10E390000EE060004619B08800F0C6FAB84205D118
:10E3A0000849B0880122C978FEF7B8F9641CA4B204
:10E3B0000098A042EDD803F0DFFA05B0F0BD0000F0
:10E3C000FFFF00007820002010B50178072902D156
:10E3D000408800F063FE10BD10B504460A4841783D
:10E3E0002046FEF789F900280CD0084800210C22AD
:10E3F0004A4312185288A24201D1C8B210BD491C2A
:10E400000829F4D3FF2010BD90200020F828002018
:10E4100070B5094D094E00240C2060434019408816
:10E420007178FEF769F9002804D0641C082CF3D336
:10E43000FF2070BDE0B270BDF828002090200020C1
:10E44000F8B50746104E0125BD403068FDF726FCA3
:10E4500000280DD10D4C2069284207D1384601F023
:10E4600093F90028E06804D0284303E0A843206122
:10E47000F8BDA843E0602069002228432061A1681C
:10E480003068FDF7C7FBF8BD642B0200DC200020DC
:10E490001CB5054A9168D268019200910022694634
:10E4A00001F074FE1CBD0000D42A020003480021C4
:10E4B000C943818001210170002070478420002021
:10E4C00010B5044801F08EFD0349888003F080FAFE
:10E4D00010BD0000FFFF000084200020F1B582B0D5
:10E4E000029800F021FA0024164903250127264648
:10E4F000884209D06A46082101F01EFE002803D197
:10E50000019886880568841D2B463246214602986C
:10E51000A9DF042804D0082804D00B2807D002E083
:10E52000112000E00020002F00D10B20FEBD0027AD
:10E53000A80701D50125E7E73443F6D00024264695
:10E540000325E1E7FFFF0000F1B582B0029800F07B
:10E55000EBF907461B48874201D11B48FEBD012548
:10E560002A466D1C0026ADB26B460821384601F0E4
:10E5700013FE040002D0072C21D021E001990323CF
:10E580000B600A1D891D0298AADF040004D00C2C20
:10E5900008D0052C08D008E00821384601F096FE86
:10E5A00004460DE0012600E000240821384601F071
:10E5B00077FE002800D00324002ED1D100E00C24E7
:10E5C0002046FEBDFFFF0000023000001FB50446DC
:10E5D0000078012813D12079012810D1608802AA7F
:10E5E000012101F0A9FD002809D10221684601702E
:10E5F0006188418001210171054909688847044803
:10E60000044908388088884201D003F0E1F91FBD31
:10E610008C200020FFFF00001CB500F085F96A4641
:10E62000012101F089FD002801D000201CBD0198C6
:10E6300000781CBDF8B5074E074C084D074632461A
:10E6400061883846A7DFA84203D16088401C6080FB
:10E65000F5E7F8BDFFFF0000842000200330000034
:10E660008188054A914204D00088002801D0012009
:10E670007047002070470000FFFF00003EB50446D1
:10E6800000780D46022815D10322611C6846FCF76C
:10E6900067FD0322211D02A8FCF762FD01AA02A961
:10E6A0002846FDF732F9032201A96846FCF77CFDF4
:10E6B000002801D000203EBD01203EBD10B50C4613
:10E6C000FFF78AFEFF280AD00C214843054907229C
:10E6D00041182046091DFCF743FD002010BD052010
:10E6E00010BD0000F828002070B5018890B01029F6
:10E6F00049D1011D2C2202A8FCF732FD6846234EA9
:10E70000007B344602AD03282AD001F0E7FE6846BC
:10E71000007B00280ED001280CD0022820D118E060
:10E720000E99281D1131FCF7B9FF002802D0684668
:10E73000048815E00DAA6946072001F0A5FE00280F
:10E74000EED10DE00E99281D491CFFF797FF002818
:10E75000EDD10DAA6946072001F096FE0028F1D1FF
:10E7600068460089291D00F029FEB4420BD0684696
:10E770000089214600F086F8684601894180012120
:10E780000170FFF759F810B070BD0000FFFF0000E6
:10E79000084A00210C234B43D35A834204D10C2056
:10E7A0004143881840887047491C0829F2D3024821
:10E7B00070470000F8280020FFFF000010B50E4C45
:10E7C000182060700D4A0E4900200C2343435B184B
:10E7D000401C5A800828F8D3FDF76AFF607018289B
:10E7E00004D00548C01C71DF002801D0032010BDF3
:10E7F00001202070002010BD90200020FFFF0000AD
:10E80000F828002070B504460D46401C00F0B2F90F
:10E81000002810D01022691C601CFCF7C5FC0028E1
:10E820000AD000262946204611311130FCF736FF68
:10E8300001463046084370BD0126F3E701880029F0
:10E8400003D142189278002A01D001207047491C58
:10E850000829F6D30020704710B50C460346FFF791
:10E86000EDFF00280BD018882188884206D10822A5
:10E87000A11C981CFCF798FC002801D0002010BDBA
:10E88000012010BD10B501F0E5FF10BD10B5044624
:10E89000007888B0002826D12079072823D1608805
:10E8A00001AA072101F048FC00281CD101F016FE46
:10E8B0001BE0694660880988884216D0049902984E
:10E8C000FFF7A0FF002810D06088FFF761FF014626
:10E8D0006846C182002101756188018301884183F6
:10E8E00005A8FEF7A9FF08B010BD03AA69460720D6
:10E8F00001F0CAFD0028DCD1F5E7000070B5044640
:10E90000FFF746FF0546204601F01BFC054904467B
:10E910008D4204D0002C02D1284601F09BFF2046F6
:10E9200070BD0000FFFF000010B5FFF755FDFF2888
:10E9300004D00C2148430249085A10BD014810BDBB
:10E94000F8280020FFFF00003EB5044601F0C6FD98
:10E9500010E0019920464631FFF77EFF002806D1DE
:10E96000019920462A31FFF777FF002802D0684638
:10E9700000893EBD6A4602A9072001F085FD0028F6
:10E98000E7D101483EBD0000FFFF0000F8B50F468B
:10E99000002804D00120FFF783F90120F8BD397960
:10E9A00000290AD00026254D01290BD0244C02292C
:10E9B00020681FD003293BD125E001F0FDF901219A
:10E9C000397133E000200101695C02290BD0401C41
:10E9D00080B20228F7D30220FFF77CF90120FFF76D
:10E9E0005FF91848F8BD04016019406801F0D6F9D4
:10E9F0002E551BE00146002301221348FFF7A0F922
:10EA00000221A18011E001F0C9F90C4923682031ED
:10EA100049880A01094951184D6825604B60A3884F
:10EA20000B810221A18005498E543E710028D9D066
:10EA30000120FFF735F90E20F8BD0000BC2E0020A4
:10EA40002C2100201D1D000050210020F8B51E4C77
:10EA50002078002836D0E068002600280CD0002559
:10EA6000607800282ED1684652DF052806D000289D
:10EA700006D0FDF773F80BE00125F1E7012607E06A
:10EA8000009800F0ADFD2169002901D00098884769
:10EA9000002D13D16078002814D160886946088061
:10EAA000A06861DF052804D0002804D0FDF756F8DF
:10EAB00004E0012502E0E168A0688847002ECFD07D
:10EAC000002DE5D0F8BD0000382100204188054820
:10EAD0000288914204D34088814201D801207047C6
:10EAE000002070475820002030B50989002A05D041
:10EAF000D088491C814213D1002030BD0246FF322C
:10EB0000A132947946256C4324182489A142F3D07C
:10EB1000491C19809179462251430818008902E066
:10EB20001980D088401E5880012030BD1048018CCB
:10EB3000C9B2012917D1818C090714D1018D0906A9
:10EB40000A0F03D1828D1206120F0ED0090F012970
:10EB500003D1828D1206120F07D0032903D1808DB5
:10EB60000006000F01D00020704701207047000010
:10EB7000C00F00F00021425C002A01D00120704744
:10EB8000491C1029F7D300207047800701D00020CE
:10EB9000704701207047000010B50448017AC9078A
:10EBA00002D00078FEF7EAF910BD00000420002032
:10EBB000FFB5244D81B0287A1F460E46084304D085
:10EBC000039A002E04D0002104E0052005B0F0BD1A
:10EBD0001C491031019803F0BFF904460146002298
:10EBE0000198FFF77FF8002F03D021460198FEF728
:10EBF00003FE0D2C0DD006DC002C0AD0042C16D000
:10EC0000082C05D105E0112C05D00F48C44200D0D6
:10EC100003242046DAE73246E9780198FDF77EFDC5
:10EC2000A978039A0198FDF779FD0024F1E73246AF
:10EC3000E9780198FDF772FDA978039A0198FDF72C
:10EC40006DFDE6E7C4200020FECFFFFFFEB51746AE
:10EC50000C00064604D02078C00704D0012003E051
:10EC600000217EDFFEBD0220694608713046FFF7B5
:10EC70005BFE17490546884208D001A800902B4644
:10EC80003A462146304600F025F806E02078214635
:10EC9000C007304603D000F081F804460BE07EDF69
:10ECA000044600200090002C08D0002201232946B1
:10ECB000304602F009FE002C02D006E00122F5E702
:10ECC00068460179304602F025FE2046FEBD000070
:10ECD000FFFF0000FFB585B000252E4601AA0721E1
:10ECE0000E9F089801F028FA040008D1029D4420E4
:10ECF000405D1835C607F60F01D0029D34350798E0
:10ED0000204312D1002D10D0002E05D128461230FC
:10ED1000FFF794FD002808D029462A4612310598AD
:10ED200085DF04460020387023E0002C01D0052C3C
:10ED30001FD106980078C0070DD003AB0122072130
:10ED4000089801F029FA04000AD10721089801F077
:10ED500021FB040004D1069905987EDF040008D049
:10ED60000721089801F09CFA002802D0052800D05D
:10ED70000324002000903878002801D0012300E00F
:10ED80000023002C07D000220899059802F09CFD72
:10ED9000204609B0F0BD0122F6E70000FEB50F469F
:10EDA000064601F0BDF905461848854220D001AB62
:10EDB00001220721284601F0EFF904000AD10721BA
:10EDC000284601F0E7FA040004D1394630467EDFD8
:10EDD000040008D00721284601F062FA002802D07A
:10EDE000052800D0032401200090002C0BD002E065
:10EDF000032400200090002201232946304602F01F
:10EE000063FD2046FEBD0122F6E70000FFFF000083
:10EE1000F7B5114D0F46164629780098FDF76CFCA2
:10EE2000002812D00098FFF77FFD04460B4884426B
:10EE30000BD069780098FDF75FFC002806D03346B8
:10EE40003A462146009801F041F8FEBD3246394667
:10EE50000098FEF773FCFEBDC0200020FFFF0000FD
:10EE6000F1B586B00698FDF73BFC002821D0684636
:10EE7000FDF76AFB00246E4618E060008519A8883B
:10EE80000699FDF739FC00280FD00B4FA888B978F8
:10EE9000FDF732FC0590A888F978FDF72DFC0146B6
:10EEA000A8880123059AFFF783FE641C0098A042FE
:10EEB000E3D807B0F0BD0000C4200020F0B5284C16
:10EEC0002146103948688B68227886469C46CF7860
:10EED000667836E0182353436168521CC918A3783A
:10EEE000D2B2934200D100220B78022B02D0032B26
:10EEF00027D123E003464D68194603E0A94204D018
:10EF00000B46C96900291CD0F8E7002919D08B42AB
:10EF100008D1C069002805D1124F0125BD60002528
:10EF2000AC4601270D68C969D961002909D00B6871
:10EF30005B190B6005E00174C06900E00021002846
:10EF4000F9D19642C6D10649624610398A604860B6
:10EF5000CF70704501D00120F0BD0020F0BD000051
:10EF60000021002000100140F8B52C4E04467068C6
:10EF70000025009041E0002C02D02046E46920E00A
:10EF8000264818231030017842684B43491CC9B207
:10EF9000D21801708378994200D1057011785068B9
:10EFA00001292CD1017C002929D191684160D168C7
:10EFB00081601169C16051698161F178002900D0D7
:10EFC00045604368B268164F991A0902090AB942A6
:10EFD00002D28268891806E0D11A09028268090AF9
:10EFE0008A4202D9511A016000E0056045600121A2
:10EFF00085600174C56103F067F9002CBBD1074837
:10F000001030017840788142BAD17168009881420D
:10F0100001D00120F8BD0020F8BD0000F020002044
:10F02000FFFF7F00FEB504461948002684422DD01C
:10F030002046FFF753FA050012D00B2D14D0112DE6
:10F0400010D01448C5421BD00921684601702046E3
:10F05000FFF76AFC014668464180848002950DE016
:10F06000022102E001260BE00321684601702046E0
:10F07000FFF75AFC0146684641808480FEF7D6FBC4
:10F080000548324681782046FDF748FBFEBD00006A
:10F09000FFFF0000FECFFFFF78200020FEB50446F2
:10F0A0000026FFF751FA05460C281AD004DC002D83
:10F0B00013D0042D05D127E0112D10D01348C542DF
:10F0C0001BD00921684601702046FFF72DFC014640
:10F0D00068464180848002950DE0012102E001260E
:10F0E0000BE007216846017084802046FFF71CFC76
:10F0F000014668464180FEF799FB05483246417853
:10F100002046FDF70BFBFEBD0821EBE7FECFFFFF1E
:10F1100078200020F8B5054600780C4600262042ED
:10F120000FD10020694608706846FCF7CBFD2878AF
:10F13000204202D120432870012668460078FCF75F
:10F14000DFFD3046F8BD0000002398B04F4A07218C
:10F150001846FCF725FD002801D0FCF7FFFC4C4ABF
:10F1600001214C48FCF706FD002801D0FCF7F6FC15
:10F17000494A4A490320FDF7B1FE002801D0FCF7B7
:10F18000EDFC01A90020FDF761FD002801D0FCF78E
:10F19000E5FC68460079022875D0002069460870B1
:10F1A000FDF700FD3E49002000F0BCF9002801D029
:10F1B000FCF7D4FC3B481C220168914318310160E4
:10F1C00000F0A0F937480121801E00F069F90028FD
:10F1D00001D0FCF7C3FC6846007801F04FFBFEF756
:10F1E000CBFE382101A8FBF7D4FF0221684601714C
:10F1F000012585710521C1710421818229482021C1
:10F20000083006900FA8FBF7C4FF08A8C577282090
:10F2100000241390B42000941490234B0FAA21468D
:10F2200001A8FCF71BFF002801D0FCF797FC1F4842
:10F23000FDF7AEFA002801D0FCF790FC02F082FC4A
:10F240001C216846FBF7A5FF0520C00301900F2095
:10F25000000402900094032168460173C481057480
:10F260001348069005946846FDF7FCF8002801D085
:10F27000FCF774FCFCF740FB48DF0028FCD0FCF7EF
:10F280006DFCF9E7FFE7012088E7000080210020FE
:10F29000EDBF0100882A0200F9CD0100CD0C00006D
:10F2A000D9B50100EC1F00208BF80100ADD401009E
:10F2B0003DD4010070B5144682880E46054620886C
:10F2C000111D4118921C994201D8FE2A01D90C2027
:10F2D00070BD521C32542088FF21401C80B2208017
:10F2E00031542088401C80B220808119288803F086
:10F2F00065F92188401880B22080AA88002A09D0A8
:10F30000A968002908D08019FBF72AFF2088A9885E
:10F3100040182080002070BD072070BDF8B50F4652
:10F32000017814460546012902D16878002806D0E4
:10F330002088821C9A422DD8012902D006E007209D
:10F34000F8BD69784118891C994223D8181A801E83
:10F3500086B2684606802188B81C081869467DDF99
:10F360000028EDD12878022805D169460988B142E4
:10F3700001D809210AE00821012805D16878B042A6
:10F3800002D86A46108001E0684606806846008818
:10F39000FE2801D90C20F8BD2288401CB8542088D2
:10F3A000401C80B22080395420886946401C20804F
:10F3B0000988401820800020F8BD0000F8B5FF241F
:10F3C0000F46054600291FD0104EB5421CD01048EC
:10F3D000012241782846FDF7A1F92846FEF7FCFFF7
:10F3E0000446FF2804D1FFF713F80446FF280BD08A
:10F3F0000C21484307490246401845808E52072297
:10F400003946001DFBF7ACFE2046F8BDFFFF0000AB
:10F4100090200020F828002070B50B4D0E46A84221
:10F4200001D1002000E0401C84B209E021463046B2
:10F4300001F01CFC002801D0204670BD641CA4B261
:10F44000FF2CF3D9284670BDFFFF00000349401888
:10F450000068002800D001207047000000700040C4
:10F460000121890740180068002800D0012070475A
:10F4700000280FD00849094A096800BF00BF00BF33
:10F4800000BF00BF00BF00BF00BF914200D000BF5F
:10F49000401EF2D1704700004C2100200024F400EF
:10F4A00070B5144CA27C022A16D00222A2746268A3
:10F4B000A260217400216174E0600F48126842600C
:10F4C0000E4A86151160012505602068002805D0C8
:10F4D0000B49012048600BE0112070BD3046FFF75A
:10F4E000B5FF0028FAD0FCF7A9F80028F6D0A574DB
:10F4F000002070BD242D00200075004000710040E8
:10F50000007300400021064A41605168002902D181
:10F510005060704711464A68002AFBD14860704726
:10F52000242D002070B50C4D0C46A97C002901D07B
:10F53000082070BD094A00211160002C06D0002867
:10F5400000D107480178072000F050F801202C6016
:10F55000A874002070BD0000242D00200071004020
:10F56000602B0200014901200860704700700040D4
:10F5700010B50C4C2078002801D0852010BD00204B
:10F58000A06060602061E060032100F02FF802F0CD
:10F5900039FE0121002801D103488161217000203A
:10F5A00010BD0000382D00200005004038B50020B7
:10F5B000694608706846FCF785FB084C20780028EF
:10F5C00001D1FFF7D5FFE068401CE0600120A0708A
:10F5D00068460078FCF794FB38BD0000382D002009
:10F5E00010B5002801D1FDF77DFE10BD8207D30EB6
:10F5F000FF229A408907090E10B5994000280BDABE
:10F6000003071B0F083B9C080C4BA400E318DC69A4
:10F6100094430C43DC6107E08408094BA400E41820
:10F62000236893430B432360C106C90E0120884021
:10F63000044908600449086010BD000000ED00E0C6
:10F6400000E400E080E200E000E100E0F3B581B01A
:10F650000F46019801F04EF9012400281D4E019833
:10F6600017D0FDF7DDFD80192030007F80090328C9
:10F6700002D0012806D007E01748006901998C40A4
:10F68000204201D1022100E00321019800F0CEF8D0
:10F69000FEBD01F03BF90028FAD00198FDF7C0FD4E
:10F6A00005468100C81D0D4AF93089180A6980B2E3
:10F6B00022430A6100F0CAF8002FE9D00198FDF753
:10F6C000AFFD800030580028E2D00548AC404460CF
:10F6D000FEBD00004C2D00200005005000650040DC
:10F6E00000630040FEB5044623480E460019202161
:10F6F00041560027C8171346401C01D0082738E0A0
:10F70000F27819462046FDF767FD0546401C2FD0CC
:10F71000B078002807D01948A1000918086802220B
:10F720009043086007E000217378204600910A4664
:10F73000019100F069F8F078002810D01048AA0074
:10F740001018317802690F4B1A400261E206D20CA0
:10F750008907890B0A4301690A43026109E00648E7
:10F76000327840192030017F92011143017700E087
:10F7700004273846FEBD00004C2D00200007005035
:10F7800000650040FFE0FCFF03490969C140C8076C
:10F79000C00F00D0012070470005005070B5144D17
:10F7A0002879002801D0082070BD11490020403977
:10F7B000421E0B182033401CC0B21A702028F8D308
:10F7C00000242046FDF7FAFC641CE4B2082CF8D3B0
:10F7D00003210620FFF70AFFFF207D3000F036F8F6
:10F7E00001200449C007486001202871002070BD35
:10F7F0008C2D00200063004002480079002800D0D2
:10F80000012070478C2D002030B552000A4399002A
:10F81000039C0A432102049D0A4329040A43024926
:10F8200080004018026030BD00070050820006488A
:10F830001018026803231B049A430260026809043B
:10F840000A43026070470000000700500249401858
:10F85000002101607047000000600040034940182B
:10F860000068012800D000207047000000600040C0
:10F870004058002800D0012070470322120280184F
:10F880004068084000D00120704710B5002809D01A
:10F89000032806D10220FDF713FB002801D0FCF756
:10F8A0005DF910BD02F0FCF910BD000010B509783B
:10F8B0000948002909D0012906D10068FCF7EEF9B2
:10F8C000002801D0FCF74AF910BD0F21002289045D
:10F8D0000068FCF79FF9F3E7882A020010B5044698
:10F8E000008888B03A2824D009DC022825D01028C6
:10F8F00011D011280DD10020FDF7E2FA16E05128B1
:10F900001FD0552805D1A088132176DF0EE0FCF723
:10F9100025F908B010BD0720FDF7D2FA002801D064
:10F92000FCF71CF9A1881548FCF76EFF0028EED102
:10F93000EFE7A088132176DFF8E7A088002167DFD2
:10F94000F4E71022A11D04A8FBF70AFC6846017C1D
:10F950000029DED0007E042803D0062801D0052827
:10F96000D7D1022908D0012069460870FF208330D2
:10F970008880A088A8DFD9E70220F5E77022002060
:10F98000F3B583B003980C46FF3081300988408D71
:10F9900081425BD1039F4621FF37A137B8794843A5
:10F9A00003994618608800283DD120460830019010
:10F9B0003579207A2818052800D9052030710020D3
:10F9C000009014E000980A21484301990A22411846
:10F9D0000C206843801902900A30891CFBF7C0FB99
:10F9E0000298002181820098401C6D1C00903079A3
:10F9F000A842E7D80C204543A819C288B879462305
:10FA0000039958434018008982420CD23079052866
:10FA100009D0787121880398FDF70AFC010015D000
:10FA20000020F87109E000257D712288694603985D
:10FA3000FDF796FD01000BD0FD7122880398FDF7BC
:10FA400047FE0A48032101702188418005B0F0BDBE
:10FA5000684600780028F9D0228801210398FDF734
:10FA6000F1FD2188039800F0F1F8EFE71827002056
:10FA7000F8B50546FF300C4681300988408D81423B
:10FA800043D12E46FF36A136B0794621484342196C
:10FA900070790C23584380180A30864621466088C6
:10FAA0000831002813D10F881F4BBC460DE00627F4
:10FAB00047437F18BF889F4206D10623584340180A
:10FAC00041887046418102E0401C8445EFD8002700
:10FAD0006846077070791179401C884203D1012073
:10FAE0006946087016E07071228869462846FDF75D
:10FAF00037FD01000AD0F77122882846FDF7E8FD9E
:10FB00000A480321017021884180F8BD68460078C9
:10FB10000028FAD0228801212846FDF793FD21888C
:10FB2000284600F093F8F8BD0229000018270020AD
:10FB300010B508780A4C002805D001280ED00228FC
:10FB40000CD1002009E08A8949880648FCF7F2FEBA
:10FB5000002801D0FCF702F80120207010BD000041
:10FB6000E81F00206424002010B50878002802D186
:10FB70004878FBF779FF10BD10B50878002802D14E
:10FB80004878FBF771FF10BD10B5134A0021517082
:10FB9000017A012911D002290ED18189491C818164
:10FBA000C189491C89B2C181028A914204D10021D4
:10FBB00001F0BEFE01F0DEFA10BD838AC28A991AF6
:10FBC000FF2901DC89B201E0FF210131511889B21E
:10FBD000C1829942EBD010BD3421002070B5064699
:10FBE000FF360C460546A136B079462148434119F7
:10FBF000FF20AB302288405B82420AD16088002817
:10FC000008D000212846FDF71DFD2188284600F078
:10FC10001DF870BD62890A80A2894A80E289CA8083
:10FC2000208A088121882846FDF702FB0100F0D0D8
:10FC30000020F07122882846FDF74AFD0248032182
:10FC400001702188418070BD18270020F8B5044656
:10FC5000FF340646A134207A0F46401CC0B2144936
:10FC60002072C968002588421FD26571A07946219B
:10FC7000401CC0B241438A19A0710E49800040184F
:10FC8000018811804088508015710121384690DF2D
:10FC9000010009D0E5713A463046FDF719FD0548E7
:10FCA0000321183001704780F8BDE571F7E70000C7
:10FCB0006820002000270020F7B51C4D0E460146A5
:10FCC0006A6F002082B0032A2DD82C46783408278A
:10FCD000636CBF1BBB4226D8286F10188007800FAB
:10FCE0001C2250434019FBF73BFA686F401C6867C1
:10FCF000002E17D0216C606C40184007800E001950
:10FD00000023009009E00498D9000A1806CA009858
:10FD100006C06846FDF7BCFA5B1CB342F3D3606CC7
:10FD200080196064012005B0F0BD0000FC2D0020AA
:10FD30000389CA1C9A1802814289511AC91E41813D
:10FD400070470000F7B50D460121890247180446A7
:10FD5000002608340220288012E02046FEF780FCAE
:10FD6000002817D00C48A1684268914200D9416030
:10FD7000608881000C1929880818C01C28800C3460
:10FD8000BC4202D22068401CE7D10298002800D073
:10FD90000670FEBD0126EBE71C21002008B50021FE
:10FDA000009101460223024A0248FEF76FF808BD9F
:10FDB000782B02005021002008B500200090044854
:10FDC00002230168034A0448FEF760F808BD0000FA
:10FDD0002C210020702B020050210020F8B50025B6
:10FDE000354F2C462E4600953448B1020068401825
:10FDF0000168B94205D1324A4168891830D00129D9
:10FE00000CD000218A0082580346521C36D00320B1
:10FE10002C4922018854641CA4B21BE000990029DB
:10FE20000CD0284B022221015A54274A1368254A34
:10FE3000891802224B60641C0A81A4B22249002264
:10FE40000860091DFFF77EFF1F488088022831D017
:10FE500008200543761CB6B2032EC5D3E8B2F8BD20
:10FE60001849002322018B5451180A4648600E326B
:10FE70000831FFF767FF02200543CCE7491CFF2943
:10FE8000C0D911490A68002A0CD00E4A0221230168
:10FE9000D1549A1850600B48118120304480641C62
:10FEA000A4B204E002200B608880012000900120B1
:10FEB0000543CFE70420CCE7DEC0ADDE50210020B3
:10FEC00002FEE10EBC2E00202C21002070B5184D42
:10FED0000E46044623CD86B00295009001916846F7
:10FEE000448082808371134D2046A978FCF704FC7E
:10FEF000002803D03046FEF701FD0FE00721304611
:10FF000000F0CEF9002809D0052807D1092269465A
:10FF10000A73CC81049003A8FDF7B0FC0022297875
:10FF20002046FCF7FBFB6846FDF7A8FC06B070BD59
:10FF3000442B0200C0200020F0B585B00746FCF736
:10FF4000CFFB002814D06846FCF7FEFA00246D466B
:10FF50000BE060004619B0883946FCF7CDFB00285D
:10FF600002D0B08802F098F8641C0098A042F0D843
:10FF700005B0F0BD70B5054D06460024A000295817
:10FF800030468847641C052CF8D370BDF42A020063
:10FF90003EB50F4D002414206043401902F01CFCB4
:10FFA000641C082CF7D30821502001910A49012430
:10FFB000C2000290074B0094881800F0E2FC002871
:10FFC00001D003203EBD0348447000203EBD000028
:10FFD000F82B0020A82000206829002010B500F090
:10FFE0004BFA10BD10B500F04BFA10BDF0B500256E
:10FFF00085B00095019502950395044641886846B1
:020000040002F8
:100000004180217901712E462179608802F0BEFB82
:1000100022780421404F1300FBF7B4FA0A06063693
:100020001C1C383E43484B4D00280DD0417CC9076D
:100030000AD002F0E3FB684606702078012800D061
:100040000020694608722AE0012069460870A0680D
:10005000029024E000280ED08268A3689A420AD158
:10006000427CD30707D07B6852085B1C52000A43CE
:100070007B6042741FE0022069460870E0680390CC
:100080000DE0FFF777FF16E0032006E068460170F9
:10009000E06802906846F4E7052069460870084663
:1000A000EFE7062069460870E068D1E701250720E0
:1000B000F3E7E06802907868002824D0174E002407
:1000C000142027464743B819417C4A0703D48907BF
:1000D000C90F29421CD08178F05B00F0F7F80028A6
:1000E00016D014214C43325B69464A80B9198A788C
:1000F00069460A71042808D009216A4611700290E5
:100100006846FFF737FF05B0F0BD08200870F7E735
:10011000641C082CD4D3F6E7A8200020F82B00207C
:1001200010B500F071FA10BD08B513889B0000935C
:100130006B4600F0DBF908BD10B5002300F0D6F9DE
:1001400010BD38B50546002420460AE081782846CF
:1001500000F0A6F8002802D0052800D0032400985B
:10016000401C00906946284602F022FB0028EDD191
:10017000002C07D1284600F04FFA002802D00728AB
:1001800002D00324204638BD0724FBE710B51346F0
:10019000002200F0E3F910BDFFB581B004981546C8
:1001A0000E46002804D0072E05D0082E19D102E0F3
:1001B0000E2005B0F0BD002D13D0082D11D80198E8
:1001C00000F035FA00280CD000200090314601984C
:1001D00002F0DCFA040026D0E068A84212D2002720
:1001E00009E00720E5E7207CC019C1B22A4800F0E9
:1001F00000FC7F1CFFB2E068B842F4D8204602F051
:10020000EBFA10E0A84217D9EFB207E0207CC01942
:10021000C1B2214800F0EDFB7F1CFFB2E068B8429C
:10022000F4D8002C08D1FF211C48019F02F0AEFA3F
:10023000040005D00780A670207CFF2802D00AE0C9
:100240001120B6E72946144800F06CFB2074FF2803
:1002500013D001200090E560217C0F4800F0B2FB34
:1002600002000ED0ABB23146049800F071FA00984B
:1002700000280FD0082E06D00CE0204602F0ACFA81
:10028000DEE7032095E70498049900884968800018
:10029000801F888000208CE7E82B0020FFFF0000F3
:1002A00070B5002402F072FA05000CD068680028CE
:1002B00004D000F0D8F9040000D00324284602F04E
:1002C0009DFA204670BD052070BD00007CB50D462E
:1002D0000646072903D0082D01D007207CBD002049
:1002E00000900190684685702946304602F04EFA2B
:1002F000040004D0607CC00703D000207CBD052032
:100300007CBD217C214800F05DFB020025D0294600
:100310006846E36800F0AFF9684602F025FA234624
:10032000083369463046626800F018F90246607C7E
:100330001749430704D5830702D54B685B1E4B6002
:10034000FB25FD23002A0AD0112A0DD0042A14D03F
:10035000072A00D0032210467CBD03207CBD01216A
:100360000843284018400EE04A68521C4A600421A5
:100370000843184060740022EDE74B6828405B1C7E
:100380004B60022108436074E5E70000E82B002081
:10039000A82000207CB50D46072903D0082D01D0E8
:1003A00007207CBD002602F0F1F9040003D060684C
:1003B000002802D01BE005207CBD217C0E4800F007
:1003C00001FB024600200090019068468570002ADB
:1003D0000FD02946E36800F04EF9684602F0C4F9F0
:1003E000211D684600F027F90646092801D030464D
:1003F0007CBD03207CBD0000E82B0020014909687A
:1004000008470000F02A020070B588B01748FDF7D1
:10041000E5FB002802D0032008B070BDFDF71AFBF1
:10042000002801D00420F7E700F0E8F90020104C84
:100430000290E61F03900DE0694604A8FDF792FBC9
:1004400000988088801B85B204A8FDF749FB2846E8
:1004500000F088F902AA04A92046FDF768FB0028ED
:10046000EAD00449012008700020D5E7A5D8010092
:1004700007C000009C20002010B500F09DF910BDC1
:1004800010B500F0A1F910BD70B50546032080033A
:1004900086B014460E46281880B20F4A6946FDF70A
:1004A00046FB002805D103A96846FDF75BFB002841
:1004B00002D0002006B070BDA5700398408820804F
:1004C0000498606003988088FDF7D8FB3080684608
:1004D000FDF706FB0120EDE7A020002002480021E7
:1004E00041608160704700009C200020F0B587B01B
:1004F0001D46144607460E46FF280CD8084600F055
:1005000017F9002807D003AA3146384600F0F8F85A
:10051000002809D102E0072007B0F0BD01A903A817
:10052000FDF720FB002801D00520F5E7A670019813
:10053000002D408820800AD082002868904204D88C
:1005400002996068FAF70CFE03E00420E4E70298E1
:10055000606003A8FDF7C4FA0020DDE77FB588B02E
:100560001D460C460646FF2831D8A07800F0E0F87A
:1005700000282CD060680690208869468883304621
:1005800000F076F969460880A078032189034018B5
:100590006946488006A8019001200881A17803AA35
:1005A000304600F0ADF8052813D00AA8FDF742FB4D
:1005B000694603A8FDF7F8FA002818D0072820D0CC
:1005C00008281CD00E281AD003200CB070BD0720BC
:1005D000FBE70A98002805D00AAA694603A8FDF798
:1005E000F3FAE9E7694603A8FDF7E8FAE4E7002D26
:1005F00003D0294603A8FDF7AAFA0020E5E7112059
:10060000E3E70420E1E7000010B5024800F0AAF893
:1006100010BD0000FFFF000010B5FF2801D9072022
:1006200010BD00F0A7F800F02BF8002010BD10B5A9
:1006300000F0F8F810BD70B504460D46807800F063
:1006400077F800280BD021882846FDF7D9FA002832
:1006500004D0072805D0092800D0032070BD07204A
:1006600070BD042070BD01B56846FDF7E3FA0028AF
:1006700000D0032008BD10B59BB200F069F810BD92
:10068000F0B589B000261C4F04963846059603E065
:10069000204600F083F8204600F08EF80446B84269
:1006A00007D000F0E5F804AA06A9FDF748FA0A28E1
:1006B000EED0124DA878002819D1BC4217D00320E3
:1006C000800301272018AF7080B2FDF779F9082860
:1006D0000FD000280BD0AE70092269460A704C80FA
:1006E000FF220A71039002966846FFF787FE09B061
:1006F000F0BD6F70FBE70000FFFF00009C200020B2
:100700007CB5054616460C46084600F011F8002058
:1007100003210090890301906818611880B289B2A2
:100720006B463246FDF7FCF9002800D005207CBD61
:1007300007280BD0012809D0082807D0052805D0A4
:10074000062803D0042801D00020704701207047FC
:1007500010B5502463439BB28170DB1C9908426042
:10076000018010BD10B50249FCF79EFD10BD0000D0
:10077000982C002010B504460648844207D006494C
:100780002046FCF791FDA04201D1012010BD0020C0
:1007900010BD0000FFFF0000B82C002010B504467B
:1007A000044900F0F1FE03492046203100F0ECFE40
:1007B00010BD0000982C002010B50249FEF72CFE59
:1007C00010BD0000B82C002070B50A49FEF724FEC9
:1007D0000446094D08E000F031F8002807D005492B
:1007E0002046FEF719FE0446AC42F4D170BD204607
:1007F00070BD0000982C0020FFFF000010B50848D5
:100800004021FAF7C6FCFF2401342146044800F0D9
:10081000FDF903482146203000F0F8F910BD000032
:10082000982C002010B5FF2804D80146024800F09B
:100830001DFA10BD002010BD982C002010B5FF2817
:1008400004D80146024800F011FA10BD002010BD86
:10085000B82C002010B50C46FDF7BEFDFF2803D0D4
:100860000C21484301490C5210BD0000F82800201B
:1008700003218903401880B2704700001CB504466C
:1008800000F082F9002801D0FBF768F9002C05D0B0
:1008900000F088FB002801D0FBF760F900200090F1
:1008A00001906846007801221043812108403030D1
:1008B0004106490E68460170072141701021817080
:1008C000C178022311431943C170017911431943BF
:1008D000017100F09DFB002801D0FBF73FF90448AF
:1008E00000F07EFB002801D0FBF738F91CBD0000AA
:1008F0003D0A02000449081820214156042901DB61
:1009000001207047002070474C2D00200449081832
:1009100020214156042901D2012070470020704750
:100920004C2D0020F8B50F46060028D0306800286E
:1009300025D07068002822D0FF2400251CE029461D
:10094000706800F06BF9002808D0FF2C00D12C460D
:10095000281B401CB8420DD12046F8BDFF2C06D103
:1009600008E02146304600F044F8641CE4B2AC4292
:10097000F7D3FF246D1CEDB2B068A842DFD8FF208A
:10098000F8BDF8B50400069E089D079818D0002908
:1009900016D0002B14D007466F43974210D8C21DC3
:1009A000D208B2420CD800280AD0002D08D0E56049
:1009B000A0600AC481B2184600F028F90020F8BDF2
:1009C0000720F8BD70B504000D4610D0206800283F
:1009D0000DD0606800280AD0FF2D08D000F046F93D
:1009E000002804D0E06821686843081870BD002022
:1009F00070BD70B504000D460FD0206800280CD0E3
:100A00006068002809D0FF2D07D000F02FF90028DA
:100A100003D02946606800F035F970BD10B501F0CB
:100A20005DF910BD10B5044A1278002A02D001F019
:100A30008BF910BD082010BDB020002008B501784A
:100A40000B00FAF79FFD0F091209131E2531122C16
:100A500012312E3112331200808800F0EBF9112888
:100A600003D0002801D0FBF779F808BD4189114A6D
:100A7000D142FAD140880121FFF7D4FF0828F0D1F4
:100A800008BD0021009140886946FFF7C7FF08BDF7
:100A9000FCF7BCFF0E28FAD00828F8D0E1E70020C8
:100AA000E1E7FAF729FF08BD8068DAE700F0A4F86B
:100AB00008BD0000FAEFFFFF70B586B004461421B0
:100AC0006846FAF766FB608869468880FDF760FE35
