:020000040001F9
:10F00000184B002015F401001DF401001FF401004D
:10F0100021F4010023F4010025F4010000000000A8
:10F0200000000000000000000000000027F40100C4
:10F0300029F40100000000002BF401002DF4010070
:10F04000D9F601002FF4010019FA01002FF4010094
:10F050002FF401002FF40100FDF401002FF4010052
:10F060002FF401002FF401002FF401002FF4010010
:10F070002FF401002FF401002FF401002FF4010000
:10F080002FF4010031F701002FF401002FF40100EB
:10F0900055F701002FF4010059F701002FF401008A
:10F0A0002FF401002FF401002FF401002FF40100D0
:10F0B0002FF401002FF40100000000000000000008
:10F0C0002FF401002FF401002FF401002FF40100B0
:10F0D0002FF401002FF401002FF4010000000000C4
:10F0E0000000000000000000000000000000000020
:10F0F0000000000000000000000000000000000010
:10F1000000000000000000000000000000000000FF
:10F1100000000000000000000000000000000000EF
:10F40000DFF80CD000F04AF8004800474D29020010
:10F41000184B00200648804706480047FEE7FEE7F5
:10F42000FEE7FEE7FEE7FEE7FEE7FEE7FEE7FEE7B4
:10F430007DF7010001F4010040EA01039B0703D0BE
:10F4400009E008C9121F08C0042AFAD203E011F823
:10F45000013B00F8013B521EF9D27047D2B201E0E5
:10F4600000F8012B491EFBD270470022F6E710B5C9
:10F4700013460A4604461946FFF7F0FF204610BD22
:10F4800030B504460020034600E05B1C934203D2E3
:10F49000E05CCD5C401BF8D030BD0000064C074D51
:10F4A00006E0E06840F0010394E807009847103454
:10F4B000AC42F6D3FFF7A8FFF85E0200185F020027
:10F4C00030B58C1810F8012B12F00F0301D110F891
:10F4D000013B120906D110F8012B03E010F8015B83
:10F4E00001F8015B5B1EF9D101E001F8013B521EFE
:10F4F000FBD1A142E6D3002030BD00002DE9FC5F26
:10F500000025DFF83891A8464FF4807601242F4675
:10F51000304603F053FD38B1D9F80403204203D03C
:10F52000304603F041FD2543361D64007F1CB6B212
:10F53000082FEDD34FF4BE74204603F03FFD38B1E1
:10F54000204603F031FD3E4845F00045D0F80080EC
:10F550003C4E15F0FF0F15D0012700242F420DD08F
:10F5600009EB8401D1F81005D1F81015C0F304207F
:10F5700056F82420C1F3014102B190477F00641C7A
:10F58000082CEBD3002D56DA00200190401E4CE0F1
:10F59000701910F8501F90F9000021F0C004401CB1
:10F5A00038D0012000FA04FA1AEA090F32D04FEAE3
:10F5B000911B204601F0BEFB56F82000009010B9C8
:10F5C000BBF1030F26D15146BBF1030F02D10198C5
:10F5D00008430190A00000F1A040D0F800071AEA0B
:10F5E000080FC0F3014002D0022802D012E0032825
:10F5F00010D1BBF1030F07D102281AD002212046F7
:10F6000003F0C3FC7F1CFFB2009818B1009A594662
:10F61000204690476D1C042DBAD3002F0BD008480C
:10F620000068404507D080460198002781463D4646
:10F63000AEE70321E3E7BDE8FC9F00000060004067
:10F6400010050050EC28002000F01F02012191401D
:10F650004009800000F1E020C0F88012704700F0FF
:10F660001F02012191404009800000F1E020C0F814
:10F670008011704700F01F02012191404009800075
:10F6800000F1E020C0F80011704700F01F020121D6
:10F6900091404009800000F1E020C0F8001170475F
:10F6A00000F01F02012191404009800000F1E0209C
:10F6B000C0F8001270474907090E002806DA00F06A
:10F6C0000F0000F1E02080F8141D704700F1E020E9
:10F6D00080F80014704700002DE9F0414FF4807766
:10F6E000384603F0A5FA0124104EA50748B1384664
:10F6F00003F0A5FA0120C5F808037470002001F09A
:10F7000059FB4FF48277384603F092FA00280BD069
:10F71000384603F094FA0220C5F80803B470BDE837
:10F72000F041012001F046BBBDE8F081D82800205F
:10F7300007480021C0F84011C0F84411C0F8481132
:10F74000C0F84C11C0F80011C0F8041105F09ABFC0
:10F750000010014005F00EBF074810B5406830B1F9
:10F760008047002807D0BDE8104000F035BBBDE859
:10F77000104002F0C3BD10BD30220020F0B5984803
:10F780000023021D01780125101D4FF08056062927
:10F7900007D11478240704D10478C4F30314032C8C
:10F7A00002D0062904D00FE08F4F8E4C7C670EE00C
:10F7B0001478240708D10478C4F30314032C06D06A
:10F7C000042C04D0052C02D0062907D00EE0D6F870
:10F7D0004442864FC4F342343C6002E0147824076C
:10F7E00004D10478C4F30314032C02D0062906D0F4
:10F7F00011E07F4C276827F0807727600EE01478AF
:10F80000240708D10478C4F30314032C06D0042C75
:10F8100004D0052C02D006290AD011E04FF0804414
:10F82000C4F80C31C4F81031704C241F236002E07E
:10F830001478240704D10478C4F30314032C02D0F1
:10F84000062905D00CE0694F032464373C600AE0C8
:10F850001478240704D10478C4F30314032C02D0D1
:10F8600006290DD014E0634F05243C60614C7834C8
:10F870002560604C083423603F243F1D3C6002E05B
:10F880001478240704D10478C4F30314052C02D09F
:10F89000062957D068E058490968584A1160564906
:10F8A000091D0968121D1160534908310968121DAC
:10F8B000116051490C310968121D11604E49103117
:10F8C0000968121D11604C4914310968121D11603C
:10F8D000494918310968494A2032116046491C31AA
:10F8E0000968121D1160444920310968121D116018
:10F8F000414924310968121D11603F4928310968C6
:10F90000121D11603C492C310968121D11603A49E1
:10F9100030310968394A4032116037493431096859
:10F92000121D1160344938310968121D11603249C5
:10F930003C310968121D11602F4940310968121DC0
:10F94000116002E0117809070ED10078C0F30310AE
:10F95000032803D0042801D0052805D1D6F8580281
:10F96000274900F04F00086021487438016841F4CD
:10F9700070010160BFF34F8FBFF36F8F4FF0102105
:10F98000D1F80002002803DBD1F80402002822DAB3
:10F990001C4A15601C480468002CFCD01524C1F8D2
:10F9A00000420568002DFCD0C1F80442016800291E
:10F9B000FCD0136001680029FCD0BFF34F8F0C48C6
:10F9C000F0380168114A01F4E06111430160BFF3AE
:10F9D0004F8F00BFFDE70F490D480860F0BD0000E4
:10F9E000E00F00F00DF0ADBA00C007403C0500404C
:10F9F000FCED00E0105600400404001020C500405B
:10FA0000E40E004004E5014000E401400400FA0572
:10FA10000090D003442200200448017F04480029BC
:10FA2000024901D005F01DBF05F08CBE442900201D
:10FA30000020004002E008C8121F08C1002AFAD1C5
:10FA400070477047002001E001C1121F002AFBD15E
:10FA5000704700000121202803DA81400548014059
:10FA600003E0402802DA2038814009B101207047C4
:10FA700000207047FC06FFBC10B560B159B1027898
:10FA80000B785208B2EB530F05D10622401C491CDB
:10FA9000FFF7F6FC08B1002010BD012010BD2DE9D4
:10FAA000FC47002517880646158090F82D0014465F
:10FAB000894630B13A462146484600F0E1FD05004E
:10FAC00009D1B0784FF00C0A18B32088C846001D41
:10FAD000B84202D95046BDE8FC87684679DF002865
:10FAE000F9D12088032108F8001020881921401C32
:10FAF00080B2208008F800102088401C80B220804E
:10FB000000EB0801BDF8000005F023FF2188084440
:10FB10002080F0780222C8B1218896F9033001F1E3
:10FB2000030C4846BC45D5D8425421884FF0010CFF
:10FB3000491C89B2218000F801C02188491C89B282
:10FB4000218009F801302088401C20807068B8B1FD
:10FB5000218890F9003001F1030C4846BC45B9D822
:10FB6000425421880A22491C89B2218042542188AA
:10FB7000491C89B2218009F801302088401C20806E
:10FB8000308950B1CDE900474B460622022106F1EB
:10FB9000080005F037FF05009DD1308A50B1CDE94E
:10FBA00000474B460722032106F1100005F02AFF0B
:10FBB000050090D1308B50B1CDE900474B4615225E
:10FBC000142106F1180005F01DFF050083D1306AED
:10FBD00030B13B462246494601F056F90500DBD1DB
:10FBE000706A30B13B462246494602F05DFF05008F
:10FBF000D2D196F82C0038B13B46224649463046D1
:10FC000005F060F90500C7D1307838B13B4622468F
:10FC10004946304602F07AFF0500BDD128465AE732
:10FC2000134A0021535C0BB1012203E0491C062951
:10FC3000F8D300220F49012806D0022809D0032852
:10FC40000CD0042812D10DE0487810B10AB101207F
:10FC50007047887810B10AB102207047C87808B19F
:10FC600003207047087908B10420704700207047CE
:10FC7000692100208C23002010B5012202210020E0
:10FC800000F072FE08B1072810D1072202210120DE
:10FC900000F06AFE08B1072808D100210A220846B0
:10FCA00000F062FE08B1072800D1002010BD70B539
:10FCB0008CB015460E4600236C46C3F10F01415C23
:10FCC000E1545B1C102BF8D30D2104F11000FFF759
:10FCD000CCFB0020C0F10F02315C2244401C1174A7
:10FCE0000328F7D3684643DF0020C0F10F01214409
:10FCF00091F820102954401C0328F6D30CB070BD95
:10FD0000064800684FF40021044A8143121D116027
:10FD1000111D00F400200860704700000405005029
:10FD200070B50024064D06E06868012110F8340023
:10FD300003F02AF8641C28788442F5D3002070BDB3
:10FD4000E0210020F8B515460C460646052A01D2EA
:10FD50000720F8BD03F0FEF818B903F0CDF800282D
:10FD6000F7D1104900204E600C70C1E902500E4DD1
:10FD700008610DE006EBC4006968009181788DF898
:10FD800001100078094A694603F050F80028E0D1D4
:10FD9000641EE4B2EED2BDE8F840054A00210248F4
:10FDA00000F026B8E0210020DC5E0200F91C020011
:10FDB0000D100200BFF34F8F05480168054A01F49A
:10FDC000E06111430160BFF34F8F00BFFDE700000A
:10FDD0000CED00E00400FA050EB500210091CDE91C
:10FDE00001106A4644F20100FFF7E4FF0EBD000077
:10FDF000074B5B6823B12AB120B10068037C1BB1BB
:10FE00000820704707207047417442610020704706
:10FE1000042200202DE9F0470746984614468946FB
:10FE200090074FF0000526D12CB304F0C9FD134E06
:10FE300006F11000C6F80C800570457080F802903D
:10FE400044607560357075701420FFF7FDFB062166
:10FE50001420FFF730FC1420FFF70CFC0848076063
:10FE600006211120FFF727FC0548001F0068B0603D
:10FE70000020BDE8F0870720FBE70000F421002008
:10FE8000081501402DE9FC47DFF87890D9F80430D7
:10FE900073B368B3052902D20720BDE8FC87436924
:10FEA00033B3437C012B25D0002704460025884628
:10FEB00016468DF80050684600F038F801A805F0A5
:10FEC00089FDC8B1012101700F4944600968C0E98A
:10FED0000218C0E904769DF8040089F801009DF835
:10FEE000000000F047F81420FFF7DAFB2846D4E7BB
:10FEF0000820D2E70F46D8E704259DF8000000F05F
:10FF000039F8F3E704220020041501400649496846
:10FF100039B130B1416921B100210174022105F0EC
:10FF20008DBB0820704700000422002030B5EFF39D
:10FF3000108172B60D4A9468012324B10370002920
:10FF400000D162B630BD93604FF0E023D3F880510A
:10FF5000074C25401560C3F88041D3F884415460B4
:10FF60005A17C3F8842100220270E8E78429002090
:10FF7000FC06FFBC0B498A68002A11D000280FD16B
:10FF8000EFF3108072B60B684FF0E022C2F8003138
:10FF90004B68C2F8043100228A60002800D162B6A2
:10FFA00070470000842900202DE9F043044687B003
:10FFB000008800F001FB8146208802F011F9214FF2
:10FFC0008046667A208800223978A56800F042FBD6
:10FFD000B9F1000F33D06079400711D507214046B1
:10FFE00003F0C2FBA0B108218DF80C102188059008
:10FFF000ADF80E10ADF8108003A801F0F9F807E095
:020000040002F8
:100000002088B97800F012FB10B1404602F0D4F815
:1000100003208DF800002088ADF802006079C0F35D
:1000200080008DF80400A079C0F380008DF80500F1
:100030008DF806508DF80760684601F0D9F807B0D2
:10004000BDE8F083C4210020F0B50C4693B01F2119
:100050000726ADF80010ADF80410002750B1C178A4
:1000600049070DD56A4602A9FFF719FD002808D1F6
:1000700002AD02E00025ADF800706CB1E07810B17F
:10008000304613B0F0BD01AA0AA92046FFF707FDCC
:100090000028F6D10AAA02E00022ADF80470BDF8EB
:1000A0000400C3B2BDF80000C1B2284672DFE8E721
:1000B0002DE9F0471F46DDF82080134689460400ED
:1000C00042D0EBB3404D012000262870EE70202274
:1000D00019463E48FFF7B0F9C5E904784FF6FF70BE
:1000E0002881AE613948AE83AE7738212030FFF7E2
:1000F000BCF93648217820300170A1788170E17810
:10010000C170617841703149D4E90423C1E90C23FD
:10011000D4E90223C1E90A23D4E90623C1E90E2365
:10012000616AE1B100F1380100F1440241628A6084
:10013000636A1B880B80616A436A8988998000E042
:1001400002E00021436A07E00E20BDE8F087656AFF
:10015000AD686D5C5554491C9D888D42F7D8A16AE5
:10016000D9B11A4A9032A2F10C018A608162A36A65
:100170009B888B80A16A836A098819800021836A21
:1001800004E0A56AAD686D5C5554491C9D888D429C
:10019000F7D894F82C1080F82C10216A49B10A493C
:1001A0000A310162226A52884A80216A026A0988F9
:1001B0001180616801B141604946BDE8F0470348DC
:1001C0002030FFF741BF0000502100208C23002089
:1001D00010B50188144C102918D011291CD01B29E6
:1001E00019D1007A002816D1E0780521401CB0FB17
:1001F000F1F201FB120000BF00F050F800280AD015
:100200006169002907D0BDE810400847C17B01297A
:1002100001D18088208110BD0021617180882189F1
:100220008842F8D10120E7E75021002010B50228CC
:1002300001D0032810D1094C607800280CD0002090
:100240006070E07800F02AF8002805D06169002984
:1002500002D0BDE81040084710BD0000502100202A
:1002600010B574DF0B4C01200B4960710020E07168
:100270000620C87000210848FFF7E6FE002807D1D5
:10028000E07800F00BF810B1616901B188470020F7
:1002900010BD000050210020AC2300202DE9F041CA
:1002A0003D4C804686B0207848B184F8038004A88D
:1002B00001F068FA0498012628B1667067E008200A
:1002C00006B0BDE8F0810025A561344FA583A57770
:1002D000787810B1E078012806D0B87858B1E07885
:1002E000012801D0022806D1216919B12671082000
:1002F000884700E025714046FFF792FCE0702169D5
:1003000039B1032801D0042803D1387808B16079C5
:1003100090B1A57100950295019503958DF8005057
:100320008DF808501C48E1781830052925D2DFE8FF
:1003300001F03008111D2100E571A67107208847E2
:10034000E8E7A67001908DF80060ADF80C50ADF8AC
:100350000A5014E00221A17001908DF80060B88964
:10036000ADF80C003889ADF80A0008E0684604F0E2
:10037000EDFD02E0684604F00DFEE07818B1684635
:1003800073DF00289CD1216909B1A078884700203B
:1003900096E7A570F7E70000502100208C2300208D
:1003A00070B5054601461C220F48FFF745F80F4C73
:1003B00000262670286830B1016861604068A0603E
:1003C000201D7ADF02E00948001D7BDF00280AD1EA
:1003D0004FF6FF7060806670BDE87040044A0021EF
:1003E0000448FFF705BD70BD5C240020702100208B
:1003F0005D590200485E020070B51E4C068800235D
:100400001B49E289102E15D01B4D112E1CD0122E27
:1004100029D0502E17D130F8061F914213D14189AF
:10042000022910D10C3000F070F988B1BDE870409D
:1004300000F070BD84884C800469CC60406908611C
:100440004B70002AF2D070BD4FF6FF7048804B70A1
:100450002868FFF75BFD0028F5D0A1690029F2D0DC
:10046000BDE8704008478268CA60C0680861DDE77F
:10047000702100205C240020485E020002490A7DB1
:10048000091D04F067BB00007824002002460248E2
:10049000C17D001D04F04BBB7824002002460248B9
:1004A000017E001D04F043BB782400202DE9F047B5
:1004B000044603883F4801228CB000F1150A102B36
:1004C00009D0112B55D01A2B71D1217AB2EB111F03
:1004D00054D2012353E0027D417D05468A43011D2C
:1004E00006A804F037FB142206A901A8FEF7A4FF12
:1004F000DFF8C0900026374609F114090DF1040811
:100500000AE000BF08EB46001D2283884946281DEB
:10051000009704F0D1FA761C0198B042F2D8287DF9
:10052000A688C043C0B204F0E9FAA0F57F41FF39C4
:1005300017D005EB40000123868032465146281D26
:1005400004F02DFB012332464946281D04F027FB09
:10055000E07B02280BD000231649A2881631281D03
:1005600020E00CB00420BDE8F047FFF735BC0123C4
:10057000F2E70023A2885146001D13E000230D4935
:100580000546A2881731001D04F009FB207A0221DC
:10059000B1EB101F01D2012300E000230549A2881E
:1005A0001831281D0CB0BDE8F04704F0F8BA0CB0C3
:1005B000BDE8F0877824002070B50A4E0546002477
:1005C000317D2A46301D04F0B2FA40B1B17D2A4691
:1005D000301D04F0ACFA08B1022400E001242046EA
:1005E00070BD00007824002010B50024204605F0DE
:1005F000E5F928B1641CE4B2182CF7D3182010BD1B
:1006000003480122A240016811430160204610BD49
:100610007824002010B5044605F0D0F9002802D057
:1006200001482044407E10BD7824002070B5054666
:100630000C46084605F0C2F9002808D004482A46AE
:100640000119001D497EBDE8704004F070BA70BD0C
:100650007824002070B5064615460C46084605F07D
:10066000ADF9002809D005482B4601193246BDE8EE
:100670007040001D193104F092BA70BD782400203A
:100680007CB5054608880C460930904201D90C20FB
:100690007CBD68466DDF0028FAD1218808206854A7
:1006A00020881B21401C80B2208029542088401CB7
:1006B00080B220802844DDF801100160BDF80510EB
:1006C00081802088801D80B220809DF8001049081C
:1006D00000D0012129542088401C208000207CBDAE
:1006E00010B50446FFF7E2FE204603F007FD204662
:1006F000FFF782FE204600F069F8204602F094FCE5
:100700002046BDE81040FFF763BD007800F001000F
:100710007047000000B5164889B0002300680790B4
:100720005022144907A804F0D9FE08B1FFF754FB82
:100730006A460121002004F0BBFE08B1FFF74CFB24
:100740001720ADF81000684604F0A8FE08B1FFF7C6
:1007500043FB094804F098FE08B1FFF73DFB07484A
:1007600004F0F4FE002801D0FFF736FB09B000BD0D
:10077000085E0200D0220020E1060200615502005E
:100780007CB5114E0C004FF00005306015D0694665
:10079000002000F0B1F8002815D101A9012000F0D7
:1007A000ABF800280FD19DF8041009B1022003E036
:1007B0009DF8001001B10B202070706810B9FFF790
:1007C0005BFA054628467CBD4821002010B51A4C2E
:1007D0000188606810290ED011292BD1401E60605D
:1007E00028D1FFF749FA002824D02168002921D018
:1007F000BDE810400847D0B900210122084600F0AA
:10080000B3F808B107280FD107220221012000F018
:10081000ABF808B1072807D104220221002000F01C
:10082000A3F820B1072802D0216801B18847606889
:10083000401C606010BD00004821002010B503205E
:1008400000F024FA08B1062800D1002010BD0000F5
:100850002DE9F04707460024244802E0641C042CDC
:1008600041D250F82420BA42F8D1042C3BD21F4880
:10087000DFF87C901F4E0C38A9F1140841B3012910
:100880000FD002292FD104EB440030444578002DCD
:1008900029D0D8F81010002925D02846BDE8F04707
:1008A000084704EB4401755C0E44717861B1D8F8D7
:1008B00004100F4A01EB81014900133A8068FFF7E9
:1008C000E1FA08B988F80170B17809F80410DEE798
:1008D0008068FFF71BFB04EB4401314419F8040066
:1008E0008D78A842D3D0BDE8F0870000185E0200E2
:1008F000442100206023002004280CD2074A1268FB
:10090000074B13F8203001209840904300D001207D
:100910000870002070470020FAE700001005005022
:10092000185E020001460F4810B50088042907D060
:1009300007290ED00A2914D1BDE8104004F04CBBA1
:10094000132176DF0BE000280BD0BDE81040FFF745
:1009500043BAA0F57F41FF3903D1FFF781FC082896
:10096000F1D110BD2821002070B50023042810D239
:100970000D4D00EB4004012A02D101290CD00022C8
:10098000094E00EB4000304461B1012906D0022934
:1009900006D00723184670BD0D30C2B22A55F9E7BC
:1009A0004270F7E78270F5E760230020044A0146B1
:1009B0000020127AD20702D0084600F055B87047DE
:1009C0003021002070B50E462149054600200A61FD
:1009D000C1E90165A9071BD5002401221146204663
:1009E000FFF7C2FF641C042C02D20028F5D00FE0F0
:1009F00070B9720804211748FFF7A4F940B9FFF74E
:100A00008FF928B91348144A00211438FFF7F0F978
:100A1000E9070AD0114A4FF4F01111600F4B002280
:100A20001B1D1A600D4A1032116000280FD10948B1
:100A30000B4A00211C38FFF7DBF9002807D1BDE87D
:100A4000704004480121074A1838FFF7D1B970BD3A
:100A500030210020285E0200C90C02000805005069
:100A6000B123020001FD01002DE9F84F854EDFF8AA
:100A700010A24FF4E01CF16807462CEA010C00912B
:100A8000002071680AF10404251D7F4B4FF40032E9
:100A90004FF4802B01EB810E8146182F16D2DFE830
:100AA00007F00C17173A4E607083868F868FEAA086
:100AB000A0A0A0A0CAD1D8E1EAEA009A4FF4F011B0
:100AC00091432160C5F8009086F80090BDE8F88F4A
:100AD000C4F800C04846C5F80090DAF800C08CF4AD
:100AE000F01C5FEA8C3C09D522602860022F02D1FD
:100AF0004FF4E16008E04FF47A6005E02A6020607E
:100B0000022F3CD04FF4C8706422B0FBF2F0414396
:100B1000377000225EE0C4F800C04846C5F8009077
:100B2000DAF800C08CF4F01C5FEA8C3C04D522603B
:100B300028604FF44870E7E72A6020601FE0C4F89F
:100B400000C04846C5F80090DAF800C08CF4F01CEC
:100B50005FEA8C3C02D522602860CCE72A602060E6
:100B6000D0E7C4F800C04846C5F80090DAF800C0E5
:100B70008CF4F01C5FEA8C3CDED522602860C82033
:100B8000C2E7C4F800C04846C5F80090DAF800C0D3
:100B90008CF4F01C5FEA8C3C02D52260286001E0F6
:100BA0002A602060377014E0C4F800C04DE0DAF825
:100BB00000002BEA0002226000F48020286008E098
:100BC000DAF800002BEA0001216000F480202860A0
:100BD000714600221868BDE8F84FFFF753B921604D
:100BE0002EE098465868FFF791F9D7F1110100D02F
:100BF00040B1F16801F4F0112160C5F80090C6F829
:100C00000C9063E74FF40022F26001290CD9C82050
:100C100011FB00F16420B1FBF0F170680022414348
:100C2000D8F80400FFF72EF9F16801F4F0112960FB
:100C3000C4F800904AE74FF4F0112160C5F8009025
:100C4000377043E74FF4E01121604946C5F8009042
:100C500006E04FF4D01121604946C5F800905A468D
:100C60002A60BCE74FF4C01121604946C5F80090E6
:100C70004FF4C022F4E74FF4F01129604946AEE783
:100C800004050050302100200C5E020070B50021E8
:100C90000C4D012455F82120920002F1A042D2F817
:100CA000006704FA01F3034000D0032326F4403622
:100CB00046EA0343C2F80037491C0429EAD300205E
:100CC00070BD0000185E020000780221FFF7C0BD71
:100CD00005494FF0FF32082841F8202002D308448C
:100CE00080F8482070470000EC280020F0B54FF055
:100CF000FF3512B10023082601E008230C260C4C16
:100D000005E000BF54F823707F1C04D05B1CB34285
:100D1000F8D32846F0BD26185DB286F8305044F866
:100D20002310002AF5D1E11881F84800F1E700000E
:100D3000EC2800200249084490F930007047000078
:100D4000EC28002038B10549814204D80449814289
:100D500001D9012070470020704700004822002080
:100D600058220020044A0168914201D0083101E074
:100D700001493839016070476C2A002070B504467B
:100D80004FF6FF750A462846AC4208D14FF48074EE
:100D90002146104603F06EF9A04209D070BDFF2C29
:100DA000FCD82146104603F058F908B1204670BD22
:100DB000284670BD70B5084C050009D01034216874
:100DC000002907D008682060496828468847F6E768
:100DD0000834F4E770BD0000D82800202DE9F05F4A
:100DE00026484168F1B3DFF898B00E688146DBF819
:100DF000004087688078E11B21F07F45ED1CB0B989
:100E0000DFF880804FF48030C8F84403C8F804034A
:100E10001120FEF719FC1120FEF72CFC4FF0010AFF
:100E2000C8F800A02F2001F013FF89F802A0B542F6
:100E300000D23546124BE8193C3320F07F40186051
:100E4000DBF800105A46091B21F07F41001B20F0FF
:100E50007F40C91C81420FD9106818602F2001F013
:100E6000F7FE00E004E0BDE8F05F1120FEF718BCDB
:100E7000BDE8F05F03F0A4BDBDE8F09FF4210020C1
:100E800004150140001001402DE9F0411788064685
:100E9000B81D14460D46984202D90C20BDE8F081D9
:100EA0003188072206290AD34FF4486C4FF6FF73A6
:100EB000614501D9994202D17088062801D21046B5
:100EC000ECE7604501D99842F9D1994203D09842A4
:100ED00001D08142F3D80520E85520881221401C1A
:100EE00080B2208029542088401C80B22080411983
:100EF000308804F02EFD2188084480B220804119FA
:100F0000708804F026FD2188084420800020C5E771
:100F1000FEF762BFF8B5134801F02CFA114D002618
:100F2000114C0C3D30B16169B9B101208DF8000060
:100F3000684611E0287820B1616971B18DF80060D0
:100F4000F6E7687858B1A168084800220068FEF703
:100F500099FF10B1A16901B188472E70F8BD616891
:100F6000F2E700007C2100205C240020485E0200A3
:100F70002DE9FF410C4618B1012004B0BDE8F08115
:100F800020790027DFF87C80012638B141F61D5515
:100F900001281ED0022829D00F20EEE702970397E0
:100FA000E0680190694601A803F044FC68B102982A
:100FB0008188E18000882081029803F0AFFCBDF8B1
:100FC000002008EB02118E7300E00A20022121713B
:100FD000D3E70D4B6A460021A01D03F0E7FB38B1B3
:100FE000094908398F60CF600A28C6D12846C4E76E
:100FF000019803F093FC04498A8808EB02118E7370
:10100000F2E700007C2A00201C2200202DE9F0419C
:1010100000260125144C22E06068226900EBC60717
:10102000387805FA00F1114217D08A43226101F0A5
:1010300059FF02463878E36805FA00F1194002FAD0
:1010400000F3994209D17978012901D0012100E00A
:10105000002151407A6802B19047761CF6B22078A0
:101060008642D9D3BDE8F081E02100200E4910B5B9
:101070000A784C780023A24212D0521CD2B20A70D5
:10108000022A00D10B70084A0B78183252F823203C
:1010900002608868104420F07F408860012010BD05
:1010A0000360002010BD0000F42100203EB5094D72
:1010B00038CD8DE83800ADF8041007498DF80620CA
:1010C000ADF8020000220978FFF7C4FA684600F084
:1010D0008FF83EBDCC5E0200C421002010B503781D
:1010E0000022072B06D2DFE803F00504060C1C25BE
:1010F0002B000A7010BD01220A7002898A81828841
:1011000014E002220A7002898A818288CA81C26838
:101110008A60007C062802D00020087410BD0120DF
:10112000FBE703220A70C2888A810289CA81C068EB
:10113000886010BD04230B70C0888881CA8110BDEF
:101140000520087010BD000070B5064D064600244D
:1011500055F8241009B130468847641C082CF7D391
:1011600070BD00009C2900200EB5002911D0112966
:101170000FD0002200920292ADF8020001910D29D9
:1011800008D0042908D009208DF80000684600F036
:101190003DF80EBD0B20F7E70A20F5E70149096885
:1011A000084700008C21002070B5054D064600243C
:1011B000304655F824108847641C022CF8D370BDC3
:1011C000645E02002DE9F04107460024064E074DFB
:1011D00005E000BF56F8241038468847641CE878BC
:1011E0008442F7DBBDE8F0818C280020B421002088
:1011F00070B5054D06460024304655F82410884742
:10120000641C022CF8D370BD945E02000149096889
:1012100008470000D85E02007FB50446406858B118
:101220000020039020780026384D06285DD2DFE8A4
:1012300000F05C05052641690120F2E7A08900F075
:10124000B3F918B9E08903F07BFB80B3A089A0F55E
:101250004040ADF80200A07B8DF804002078012802
:10126000606806D048B104208DF8000060680390E3
:101270001AE00028F8D00320F6E70120F4E7A0895F
:1012800000F092F918B9E08903F05AFB78B1A0890F
:10129000A0F54040ADF80200A07B8DF80400606826
:1012A00030B105208DF80000A06802901AE01CE023
:1012B0000220F7E7A08900F077F9B0B1E089A0B982
:1012C000A089FF21A0F5404080B2ADF802008DF862
:1012D0000410616881B107208DF800006E70AE7057
:1012E00002F000FC684602F0D5FA6878002802D0C7
:1012F0006E7002F0F7FB7FBD06218DF8001002F042
:101300007FFCEBE708208DF80000EBE7A021002030
:1013100000B5114987B00978890702D4022007B0C7
:1013200000BDA0F57F41FF3911D005218DF80010D7
:1013300001218DF80410ADF8060000221146684620
:1013400001F008FF28B103F013FA0020E7E70420BA
:10135000E5E70820E3E700001422002000B50E486E
:1013600087B00078800702D4022007B000BD0620B5
:101370008DF8000000221146684601F0EBFE40B1F6
:101380000648017809B10121017303F0F1F9002049
:10139000EBE70820E9E70000142200209C2A002047
:1013A00000B58DB014216846FEF75FF81E4800783E
:1013B000810703D56846FFF7C7FE33E0C00731D188
:1013C000012000F015F900F085F901F05FFF70B120
:1013D00006280FD001218DF814100C281BD2DFE84D
:1013E00000F01A101A101A181A181A1216120B20D6
:1013F0000DB000BD022000F0FBF8012000F0DEF887
:10140000D8E7002000E003208DF8180003E0022058
:10141000FAE78DF818100022114605A801F09AFE8F
:1014200003F0A6F90020E3E71422002038B50400F9
:1014300011D0694603F0FEF988B10A48BDF80010E2
:1014400000EB0110818941B1A27A32B1491E81813C
:101450000020A07238BD052038BD062038BD0A2006
:1014600038BD00007C2A00201FB501A9684603F0A2
:101470009DF904B010BD07B513460A466946002021
:1014800003F094F90EBD07B513460A4600216846DD
:1014900003F08CF90EBD20B119B10068086000207E
:1014A000704705207047000038B50D46040015D080
:1014B000A5B1694603F0BEF990B10A49BDF8002014
:1014C000606801EB02129189491C91812860606873
:1014D0000C3068600120A072002038BD052038BDA6
:1014E0000A2038BD7C2A002018B10323002204F012
:1014F00051BB052070470223002204F04BBB12B100
:10150000022304F047BB052070470000064A5178CB
:10151000082906D0054B43F82100491C51700020D2
:1015200070470C2070470000142200209C290020E6
:1015300038B504460A480D460078800701D40220D9
:1015400038BD54B16946284604F034FC0028F7D170
:10155000BDF800102180658038BD052038BD000031
:101560001422002010B504460D480078800701D4ED
:10157000022010BD84B1218802290FD8094800EB50
:10158000011042896088121A032A07D404F008FC6B
:1015900000202080608010BD052010BD042010BDFB
:1015A000142200207C2A002043F6FE71A0F5404062
:1015B000884201D8012070470020704702490A780C
:1015C00082430A70704700001422002010B50446C0
:1015D0000078182802D1FFF707F8207010BD10B569
:1015E00004460078182802D1FEF7FEFF207010BDD7
:1015F00002490A7802430A70704700001422002052
:1016000070B51346002206461546042905D0112957
:1016100001D019B170BD012500E001220D4C73B15C
:101620006179FFF717F82A4621793046FFF712F85B
:10163000002261783046FFF70DF8002203E0617860
:10164000FFF708F82A4621783046BDE87040FFF7DA
:1016500001B80000C8210020F8B506461A481F4608
:10166000154600780C46C00708D03046FFF76AFBE5
:1016700030B13CB1200507D00620F8BD0120F8BDEF
:101680000220F8BD0320F8BD3068A04204D871687C
:1016900004EB0530884201D90520F8BD7DB16846CC
:1016A00002F0B4FF68B100980221C0E9006701723E
:1016B000210B8181058203F06BF80020F8BD042026
:1016C000F8BD0720F8BD00002C220020084602F0DB
:1016D000B9BF00002DE9F0472748284C4FF01021F2
:1016E000001B0209496910464B1C03D14FF0805181
:1016F00049690903DFF888A09AF80070FB0702D057
:101700000020BDE8F0870023A14607E009EB0314A1
:10171000256815B1646804B1401E5B1C9342F5D383
:10172000002422E0002504F0FF0C2B4613E000BF4C
:1017300009EB0316D6F80080B8F1000F04D0D6F8F4
:101740000480B8F1000F05D1767BAE4202D9354650
:1017500003F0FF0C5B1C9342EAD309EB0C13641CEF
:1017600059601D7BA1EB053119608442DAD347F043
:1017700001018AF80010C3E7582200204822002007
:101780002C22002020B10349496E016000207047DF
:1017900003207047AC2A00202DE9F84307461D4876
:1017A000DDF820801E46007815460C46C0070CD098
:1017B0003846FFF7C7FA50B15DB154B145EA0400AD
:1017C000800708D00620BDE8F8830120FBE702204F
:1017D000F9E70320F7E73868A04204D8786804EBFB
:1017E0008601884201D20520EDE77EB1684602F00D
:1017F0000DFF68B100980121C0E900780172C0E9CD
:101800000354868202F0C4FF0020DCE70420DAE7FC
:101810000720D8E72C22002070B5174A1749044644
:10182000106E0B7800EB400002EBC0009D0715D551
:10183000022C02D0032C1BD102E001F061FC17E066
:101840004A78521CD2B24A70032A11D900224A7037
:10185000082103F079FA02F0C3FE09E0580707D522
:1018600023F004000870526E12B140F002000870BC
:10187000BDE8704002F044BFAC2A00202C220020BA
:1018800070B508B1012070BD184C0025207B08B14F
:10189000257301E000F0A2F82078082824D2DFE8C0
:1018A00000F02304080C1023141EBDE8704000F063
:1018B0001FB8BDE8704000F07FB8BDE8704000F090
:1018C00061B8BDE8704000F037B808496088203939
:1018D00001EB00104068BDE8704001F0B7BC6560E6
:1018E000BDE8704001F0C0BC0F2070BD9C2A0020F4
:1018F0001049F0B48A1C00200346A1F120050C1801
:10190000A67A3EB1A37205EB0014A68916B9A47B92
:10191000012C0AD0401C80B20228F0D30B704B80FF
:101920004B60F0BC41F61D5070471080F0BC00F0D9
:1019300043B800009C2A002010B50F4CA4F12001F0
:10194000608801EB0010818961B1052020700B488F
:101950000221002381800168BDE81040012208486F
:10196000FFF77ABE4168002301220548FFF774FEA5
:101970000421217010BD00009C2A00202422002098
:101980004822002038B50A49084803240B684268F9
:10199000898803EB8101538804700020DB1C0090D0
:1019A0009BB20448FFF7F8FE38BD00009C2A0020D7
:1019B0002422002048220020074910B54888091D2C
:1019C00002F086FF18B1BDE81040FFF7DBBFBDE8AD
:1019D0001040FFF7B1BF00009C2A0020F0B51D4861
:1019E0001D490125067802248B88A0F12002082ECB
:1019F00018D2DFE806F00417171A212C2C160189DB
:101A0000491C01810021418080F80C1002EB011378
:101A10001B7843B100234418491C89B2A3720229E0
:101A2000F4D30570F0BD0123F5E742685288D21C5B
:101A30001A448A800470F0BD46880D6802EB0612D5
:101A400056680E60556013818C80062100E00721E6
:101A50000170F0BD9C2A002024220020F0B504462D
:101A60000088384D8DB050281ED0522802D05428FE
:101A700028D103E0A08800F0D9FE23E006208DF8ED
:101A80001400A08800F0ACFBADF81600A188ADF8FA
:101A9000181000F05DF9A0880022E978FEF7DAFD61
:101AA00005A8FFF77BFB0DE0207B01280AD1A07A77
:101AB000012807D12089A0F52451023902D1A0883C
:101AC00000F0EEFEA878FEF7A5FDC8B108A8FEF765
:101AD000D5FC142208A96846FDF7AEFC00246E462A
:101AE0000BE000BF06EB4407A978B888FEF79EFD1F
:101AF00010B1B88800F09AFE641C0098A042F1D89A
:101B00006878FEF787FDC8B108A8FEF7B7FC142275
:101B100008A96846FDF790FC00246E460BE000BF64
:101B200006EB44076978B888FEF780FD10B1B888E5
:101B300000F0B6FE641C0098A042F1D803F02AF928
:101B40000DB0F0BD842100203EB504464088ADF8BC
:101B500002002078A8B101281FD0022810D12079D6
:101B600000280DD0608800F07BFAA0F57F41FF3996
:101B700006D00F490122C978FEF76CFD03F00AF97F
:101B80003EBD00208DF800006846FFF707FB608827
:101B900000F066FA00F04AFE3EBD01208DF800001C
:101BA000A088ADF804006846FFF7F8FA3EBD0000D3
:101BB0008421002010B50446007801280FD16088E8
:101BC00000F034FE608800F089F9002807D004494D
:101BD00060880122C978BDE81040FEF73BBD10BD0A
:101BE0008421002010B5104C00202070FEF7FCFC72
:101BF0006070FEF7F9FCA070FEF7F6FCE070FEF7EF
:101C0000F3FC2071617818290BD0A178182908D02D
:101C1000E178182905D0182803D001202070002071
:101C200010BD032010BD0000842100202DE9F041EB
:101C300086B000F0A5F86846FEF720FC00246D464B
:101C40004FF6FF77DFF834800FE000BF05EB440666
:101C5000B08800F0C5FAB84205D1B088012298F8E2
:101C60000310FEF7F7FC641CA4B20098A042EDD864
:101C700003F090F806B0BDE8F08100008421002058
:101C80000178072902D1408800F00ABE70470000A1
:101C900010B504460A4841782046FEF7C7FC68B1F3
:101CA0000848002101EB410200EB82025288A24267
:101CB00001D1C8B210BD491C0829F3D3FF2010BDC3
:101CC0009C210020AC24002070B5094D094E002451
:101CD00004EB440005EB800071784088FEF7A6FC19
:101CE00020B1641C082CF3D3FF2070BDE0B270BD9E
:101CF000AC2400209C2100202DE9F041124E074623
:101D00000125BD403068FEF701F900280DD10F4CC8
:101D10002069284207D1384601F0E4F80028E0683D
:101D200005D0284304E0A8432061BDE8F081A84322
:101D3000E060206928432061A1683068BDE8F04177
:101D40000022FEF79FB80000DC5E0200E0210020C8
:101D50001CB5054AD2E90212CDE9001200226946FB
:101D600001F065FC1CBD0000505E020003484FF608
:101D7000FF718180012101700020704790210020B7
:101D800010B54FF6FF7001F089FB03498880BDE86C
:101D9000104003F02BB80000902100202DE9FC41F9
:101DA000804600F01DFA002403250127A0F57F419D
:101DB0002646FF3908D06A46082101F013FC18B9FD
:101DC0000198841D8688056832462B462146404688
:101DD000A9DF042804D0082804D00B2808D002E08A
:101DE000112000E00020002F00D10B20BDE8FC8175
:101DF0000027A80701D50125E6E73443F5D00024E4
:101E000026460325E0E72DE9FC41804600F0E8F98D
:101E10000746A0F57F40FF380ED001252A466D1CED
:101E20000026ADB26B460821384601F005FC0400DF
:101E300006D0072C24D024E043F20200BDE8FC8148
:101E4000019903230A1D0B604046891DAADF040087
:101E500004D00C2C08D0052C08D008E00821384606
:101E600001F082FC04460CE0012600E00024082179
:101E7000384601F065FC00B10324002ECED100E00D
:101E80000C242046DAE700001FB50446007801283C
:101E900015D12079012812D1608802AA012101F010
:101EA000A1FB60B902208DF800006088ADF8020047
:101EB000094901208DF804000968684688470648EA
:101EC00008388088A0F57F41FF3903D0BDE81F4066
:101ED00002F08CBF1FBD0000982100201CB500F04F
:101EE0007FF96A46012101F07DFB08B100201CBD8D
:101EF000019800781CBD00002DE9F041084C074610
:101F00004FF6FF7643F20305324661883846A7DF75
:101F1000A84203D16088401C6080F5E7BDE8F081ED
:101F2000902100208188A1F57F42FF3A03D00088EC
:101F300008B101207047002070473EB502780223A7
:101F40000C46B3EB520F17D1B0F80110ADF80010EA
:101F5000C1788DF802108188ADF8041080798DF871
:101F6000060002AA01A92046FDF7A1FE032202A94C
:101F70006846FDF785FA08B100203EBD01203EBD50
:101F800010B50C46FFF784FEFF280CD0074900EB84
:101F9000400001EB8000416821600189A180807AC6
:101FA000A071002010BD052010BD0000AC24002051
:101FB00070B5018890B010294FD1011D34226846B8
:101FC000FDF73AFA9DF804004FF6FF7603213446F8
:101FD0006D46B1EB500F2AD001F0C4FC9DF804000F
:101FE00040080ED001280CD0022820D118E00F990B
:101FF000281D1131FDF740FD18B100BFBDF8344078
:1020000015E00EAA0DA9072001F084FC0028EED1EE
:102010000DE00F99281D491CFFF78FFF0028EDD117
:102020000EAA0DA9072001F075FC0028F1D1BDF81A
:102030000000291D00F0B8FDB4420ED0BDF800002C
:10204000214600F07EF8BDF80000ADF83600012012
:102050008DF834000DA8FFF7A7F810B070BD000090
:10206000094A002101EB410332F82330834205D1B4
:1020700001EB410002EB800040887047491C0829B1
:10208000F0D34FF6FF707047AC24002010B50D4C14
:1020900018200D4A607000204FF6FF7100EB4003DE
:1020A00002EB8303401C59800828F7D3FEF79CFA03
:1020B0006070182803D001202070002010BD03207C
:1020C00010BD00009C210020AC24002070B5044607
:1020D0000D46401C00F05CF900280ED01022691C4F
:1020E000601CFDF7CDF948B15FF0000605F1110164
:1020F00004F11100FDF7C0FC304370BD0126F5E787
:10210000018811B9421892780AB101207047491C20
:102110000829F7D30020704710B50C460346FFF797
:10212000EFFF00280AD018882188884205D10822AC
:10213000A11C981CFDF7A4F908B1002010BD0120D6
:1021400010BD01F0B1BD10B50446007888B000287C
:1021500028D12079072825D1608801AA072101F01C
:1021600041FA00281ED101F0FDFB1DE06088BDF89A
:102170000010884218D004990298FFF7A7FF98B181
:102180006088FFF76DFFADF8160000208DF8140091
:102190006088ADF81800BDF80000ADF81A0005A879
:1021A000FFF702F808B010BD03AA6946072001F046
:1021B000B1FB0028DAD1F5E770B50446FFF750FF10
:1021C0000546204601F011FA4FF6FF7104468D4294
:1021D00003D014B9284601F067FD204670BD000009
:1021E00010B5FFF755FDFF2805D0044900EB40006E
:1021F00031F8200010BD4FF6FF7010BDAC24002058
:102200003EB5044601F0AEFB0EE001992046463192
:10221000FFF782FF28B9019920462A31FFF77CFF9A
:1022200010B1BDF808003EBD6A4602A9072001F0C2
:1022300071FB0028E9D14FF6FF703EBD2DE9F0415A
:102240000F4628B10120FFF7B9F90120BDE8F08160
:10225000397961B10026264D01290DD0254C4FF06A
:1022600002080229206822D003293CD128E000F08E
:10227000FBFF0121397134E05FF0000005EB001134
:10228000097802290CD0401C80B20228F6D3022023
:10229000FFF7AEF90120FFF791F941F61D50D5E7A0
:1022A00005EB0014606800F0D1FF267019E00146CC
:1022B000002301221048FFF7CFF9A4F804800FE0B3
:1022C00000F0C4FF0A4922682031498805EB01115A
:1022D0004B6823604A60A2880A81A4F804800E70CB
:1022E0003E710028B2D00120FFF768F90E20ADE75B
:1022F0007C2A00202422002048220020F8B51C4C13
:102300002078002832D0E068002658B10025607897
:1023100000282BD1684648DF052805D030B1FDF7ED
:102320005BFD0AE00125F2E7012606E0009800F0D7
:1023300009FD216909B1009888479DB96078002896
:1023400014D16088ADF800006946A06861DF0528F7
:1023500003D020B1FDF740FD04E0012502E0D4E9FF
:1023600002018847002ED2D0002DE6D0F8BD000033
:1023700030220020054940880A88904204D34988C9
:10238000884201D801207047002070477421002046
:102390000021425C0AB101207047491C1029F8D382
:1023A00000207047800701D000207047012070474F
:1023B0000348017AC90702D00078FEF755BB704781
:1023C000302100202DE9F047234D81461F46287A11
:1023D0000E469046084302D026B1002104E00520B5
:1023E000BDE8F0871C491031484602F051FF044611
:1023F000014600224846FFF703F91FB1214648462F
:10240000FEF7B2FE0D2C0DD005DC5CB1042C17D00C
:10241000082C06D106E0112C06D0A4F54050023855
:1024200000D003242046DBE73246E9784846FEF731
:1024300011F94246A9784846FEF70CF90024F1E765
:102440003246E9784846FEF705F94246A9784846FB
:10245000FEF700F9E6E70000C82100202DE9FC4165
:1024600017460C00064604D02078C00705D001208E
:1024700004E000217EDFBDE8FC8102208DF804002D
:102480003046FFF7ADFE0546A0F57F40FF3808D087
:1024900001A800902B463A462146304600F021F82C
:1024A00006E020782146C007304603D000F07DF8D2
:1024B00004460BE07EDF04004FF00000009007D0E0
:1024C000002201232946304602F004FC14B106E044
:1024D0000122F6E79DF80410304602F025FC204664
:1024E000C9E72DE9F04F85B090468946834600251F
:1024F0009A462E4601AA072118460E9F01F072F84F
:10250000040008D1029D95F84400183510F001062A
:1025100001D0029D343558EA04004FF000080FD175
:1025200075B126B905F11200FFF7EAFD40B12A4660
:1025300005F11201584685DF044687F8008021E046
:102540000CB1052C1ED199F80000C0070DD003ABCB
:1025500001220721504601F06FF804000AD107213B
:10256000504601F063F9040004D1494658467EDF25
:10257000040007D00721504601F0E2F810B1052809
:1025800000D00324CDF80080387808B1012300E0A2
:10259000002344B100225146584602F09BFB05B08F
:1025A0002046BDE8F08F0122F5E7FEB50F4606464E
:1025B00001F00EF80546A0F57F40FF381ED001ABB4
:1025C00001220721284601F037F804000AD107212B
:1025D000284601F02BF9040004D1394630467EDF4D
:1025E000040007D00721284601F0AAF810B10528F9
:1025F00000D00324012000905CB102E003240020FD
:102600000090002201232946304602F063FB204659
:10261000FEBD0122F6E700002DE9F041134D0F4603
:10262000164680462978FEF701F800281BD0404660
:10263000FFF7D6FD0446A0F57F40FF3813D0697838
:102640004046FDF7F3FF38B133463A46214640464F
:10265000BDE8F04100F096BE324639464046BDE83E
:10266000F041FEF723BDBDE8F0810000C421002049
:102670002DE9F04385B08146FDF7CCFF002820D03E
:102680006846FDF7FBFE00246E4617E006EB4405A6
:102690004946A888FDF7CAFF78B10B4FA888B978DA
:1026A000FDF7C4FF8046A888F978FDF7BFFF014613
:1026B000A88801234246FFF785FE641C0098A042CB
:1026C000E4D805B0BDE8F083C82100202DE9F0432F
:1026D000264CA4F110092278D9F8048099F8035007
:1026E000404694F801C0D9F8086031E002EB42039B
:1026F0006168521C01EBC301A378D2B2934200D1AE
:1027000000220B78022B02D0032B21D11DE00346BF
:102710004F68194603E0B94203D00B46C969B9B105
:10272000F9E7A9B18B4205D1C06918B9104E01254E
:10273000B56000260F68C969D96149B10B683B448F
:102740000B6005E00174C06900E000210028F9D1A8
:102750009445CBD1C9E9010689F80350404502D020
:102760000120BDE8F0830020FBE7000004220020E8
:10277000001001402DE9F0412A4F0446002607F1E0
:102780001005D7F804803EE002D02046E4691DE041
:102790002878696800EB4002401CC0B201EBC2011E
:1027A0002870AA78904200D12E700A784868012AD1
:1027B0002BD1027C4ABB8A684260CA6882600A697F
:1027C000C26049698161F97801B146604368BA68BD
:1027D000DFF854C0991A21F07F41614502D2826826
:1027E000114406E0D11A826821F07F418A4202D961
:1027F000511A016000E006604660012186600174A4
:10280000C66102F0FDFE002CBED1287869788842AE
:10281000BED17968414502D00120BDE8F081002099
:10282000FBE70000F4210020FFFF7F00FEB5044617
:102830000026A0F57F40FF382FD02046FFF7AEFAE4
:10284000050013D00B2D15D0112D11D0A5F540503A
:1028500002381CD009208DF800002046FFF7C0FC8C
:10286000ADF80200ADF8044002950DE0022002E050
:1028700001260CE003208DF800002046FFF7B0FC95
:10288000ADF80200ADF804406846FEF787FC034847
:10289000324681782046FDF7DDFEFEBD8421002012
:1028A000FEB504460026FFF7AEFA05460C281AD0FE
:1028B00003DCA5B1042D06D129E0112D11D0A5F519
:1028C000405002381CD009208DF800002046FFF748
:1028D00087FCADF80200ADF8044002950DE0012040
:1028E00002E001260CE007208DF80000ADF804405E
:1028F0002046FFF775FCADF802006846FEF74EFC77
:102900000448324641782046FDF7A4FEFEBD08206B
:10291000EAE7000084210020F8B5054600780C465F
:10292000002620420FD100208DF800006846FDF7F8
:10293000FDFA2878204202D12043287001269DF814
:102940000000FDF717FB3046F8BD0000002398B0EB
:102950004B4A05211846FDF75DFA08B1FDF73CFA30
:10296000484A40F6CD410320FEF72CF808B1FDF7A8
:1029700033FA69460020FDF703FF08B1FDF72CFA92
:102980009DF80000022872D05FF00004FDF7C2FE3F
:10299000204601F097F99DF808003BA120F00F00B8
:1029A000401C20F0F00010308DF808000F2202A823
:1029B0007CDF08B1FDF710FA002400945020ADF838
:1029C0000000A0200194ADF80200ADF804404FF4DF
:1029D000C870ADF8060068467ADF08B1FDF7FCF96B
:1029E000382101A8FCF741FD02208DF804000125E3
:1029F0008DF8065006208DF8070027480690ADF8A0
:102A0000145020210FA8FCF730FD4FF496708DF87C
:102A10003F501390B42000941490204B0FAA002133
:102A200001A8FDF745FB08B1FDF7D6F91C21684662
:102A3000FCF71BFD4FF42030CDE900404FF470202F
:102A4000029003208DF80C0015480590154806905B
:102A5000ADF80E408DF810406846FDF7A1FC08B1B6
:102A6000FDF7BAF90320FDF719FC03E0FFE70124A5
:102A70008CE73EDF0028FCD0FDF7AEF9F9E7000057
:102A800058220020250902004E6F726469635F546A
:102A9000656D706C617465002A21002005300200AC
:102AA000E5300200110F020070B5144682880E4610
:102AB00005462088111D0144921C994201D8FE2A26
:102AC00001D90C2070BD521C32542088FF21401CBB
:102AD00080B2208031542088401C80B2208081192F
:102AE000288802F036FF2188084480B22080AA8816
:102AF00042B1A96841B13044FCF79EFC2088A98806
:102B000008442080002070BD072070BDF8B50E4637
:102B1000017814460546012901D1687830B1208832
:102B2000821C9A422DD8012902D006E00720F8BD68
:102B300069780144891C994223D8181A801E87B2EB
:102B4000ADF800702188B01C084469467DDF00287C
:102B5000EDD12878022805D1BDF80010B94201D87E
:102B600009210AE00821012805D16878B84202D875
:102B7000ADF8000001E0ADF80070BDF80000FE28DF
:102B800001D90C20F8BD2288401CB0542088401C7C
:102B900080B2208031542088401C2080BDF8001075
:102BA000084420800020F8BD70B505460C004FF0A9
:102BB000FF0020D04FF6FF76B5421CD00E48012210
:102BC00041782846FDF746FD2846FFF761F8FF28C3
:102BD00003D1FFF779F8FF280DD0084B00EB400236
:102BE00003EB82014D8023F8226022684A60A288AC
:102BF0000A81A2798A7270BD9C210020AC24002039
:102C000070B54FF6FF750E46A84201D1002000E0D6
:102C1000401C84B208E02146304601F046FA08B173
:102C2000204670BD641CA4B2FF2CF4D9284670BDA8
:102C300000F180400068002800D00120704708B5EE
:102C400000F18040002101600068009008BD000094
:102C500000283ED01F49204A096800BF00BF00BFBE
:102C600000BF00BF00BF00BF00BF91422FD000BF18
:102C700000BF00BF00BF00BF00BF00BF00BF00BF5C
:102C800000BF00BF00BF00BF00BF00BF00BF00BF4C
:102C900000BF00BF00BF00BF00BF00BF00BF00BF3C
:102CA00000BF00BF00BF00BF00BF00BF00BF00BF2C
:102CB00000BF00BF00BF00BF00BF00BF00BF00BF1C
:102CC00000BF00BF00BF00BF00BF00BF00BF401E6D
:102CD000C3D17047442200200024F40010B50B4CEF
:102CE000207808B1852010BD0020A06060602061C0
:102CF000E060062100F02BF802F022FC012108B967
:102D0000034801602170002010BD0000D828002079
:102D10001805004038B500208DF800006846FDF722
:102D200005F9074C207808B9FFF7D8FFE068401C88
:102D3000E0600120A0709DF80000FDF71BF938BD90
:102D4000D8280020002801D1FEF734B87047490781
:102D5000090E002806DA00F00F0202F1E02282F8E4
:102D6000141D03E000F1E02282F8001400F01F02BD
:102D7000012191404009800000F1E020C0F880125C
:102D8000C0F80011704700002DE9F04788468146E1
:102D900000F0D6FF0124224E0028484618D0FDF747
:102DA000C9FF304490F848008009032802D0012868
:102DB00006D007E01B48006804FA09F4204201D15C
:102DC000022100E003214846BDE8F04700F0DDB8ED
:102DD00000F0C2FF002820D04846FDF7ABFF0546B3
:102DE000114F4FF4807007EB850100EB8500D1F89F
:102DF000102580B242F00102C1F8102500F0D4F88D
:102E0000B8F1000F09D04846FDF794FF56F82000AE
:102E1000002802D0AC40C7F80443BDE8F0870000AA
:102E2000EC28002010050050006000402DE9FC4116
:102E3000DFF8A480044608EB0400002790F9300076
:102E40001346C0170E46401C01D0082740E0F27818
:102E500019462046FDF74AFF0546401C37D0B0789A
:102E600048B1A00000F1A040D0F8001721F0020105
:102E7000C0F8001707E000217378204600910A4649
:102E8000019100F071F8F078C0B11448317800EB8E
:102E90008500D0F81025124B1A40C0F810254FF4C9
:102EA000F8524FF4403302EA042203EA01410A4394
:102EB000D0F810150A43C0F8102509E008EB05000A
:102EC000327810F8481F41EA8211017000E00427AF
:102ED0003846BDE8FC810000EC280020006000407E
:102EE000FFE0FCFF03490968C14011F0010000D078
:102EF000012070471005005070B5144D95F854002E
:102F000008B1082070BD0020411E2A18401CC0B224
:102F100082F830102028F8D300242046FDF7D8FE90
:102F2000641CE4B20C2CF8D306210846FFF70FFF0F
:102F30004FF4BE7000F038F805494FF00040C1F87A
:102F40000403012085F85400002070BDEC28002007
:102F500000600040034890F85400002800D0012091
:102F600070470000EC28002030B541EA4201DDE95D
:102F7000034541EA8301800041EA042100F1A040B9
:102F800041EA0541C0F8001730BD800000F5E0605F
:102F900000F1A040026822F440320260026842EA76
:102FA0000141016070470000034908B50844002151
:102FB00001600068009008BD006000400249405870
:102FC000012800D0002070470060004040580028D1
:102FD00000D00120704708B50022425040580090B0
:102FE00008BDD0F80403084000D0012070474058C5
:102FF000002800D00120704708B5002242504058F8
:10300000009008BD10B550B103280CD10220FDF787
:10301000CDFC002807D0BDE81040FCF7DDBEBDE8C0
:10302000104001F0D9BF10BD10B50446008888B02B
:103030003B281FD009DC022826D010280FD01128E9
:1030400016D10020FDF7B2FC17E0512820D05528FA
:1030500042D056280CD1A088132176DF0DE007203E
:10306000FDF7A4FC08B1FCF7B7FE1D49A088088055
:1030700008B010BDA088132176DF0028F8D008B072
:10308000BDE81040FCF7A8BEA088002167DFF4E788
:103090001022A11D04A8FCF7CFF99DF810100029FB
:1030A000E6D09DF81800042803D0062801D0052892
:1030B000DED102290ED001208DF800004FF4C1703E
:1030C000ADF80400A0886946A8DF0028D0D0FCF73E
:1030D00083FECDE70220EFE7A0881721ADDFCCE724
:1030E000282100200078002807D104483B210088CF
:1030F00076DF002801D0FCF76FBE70472821002042
:10310000134A10B500215170017A012912D0022909
:103110001DD18189491C8181C189491C89B2C18124
:10312000028A914213D1002101F00EFEBDE8104049
:1031300001F056BA838AC28A4FF480619C1A8C428D
:1031400000DAA1B2114489B2C1829942EBD010BD1C
:103150002C220020F8B51E4D17460E4601466A6F18
:103160000020032A33D805F17804C6F1080C636CFB
:1031700063452CD895F87000104400F00300C0EBB4
:10318000C00005EB80001C22FCF756F9686F401C5C
:103190006867DEB194F8440094F8401000230844B6
:1031A00000F0070004EBC00000900AE007EBC30248
:1031B0000098D2E90012C0E900126846FDF7D2FD7E
:1031C0005B1CB342F2D3606C304460640120F8BDF4
:1031D000BC2900200389CA1C1A4402814289511A61
:1031E000C91E4181704700002DE9F04700F5805568
:1031F000002700F10804022090460E460880DFF800
:10320000489012E02046FEF78DFED0B1A068D9F8B4
:103210000420904201D9C9F804006088318804EB89
:1032200080040844C01C30800C34AC4202D22068B8
:10323000401CE7D1B8F1000F01D088F80070BDE85C
:10324000F0870127E9E700001422002008B50021DB
:10325000009101460223024A0248FEF79DFA08BD8A
:10326000F05E02004822002008B5002000900448CB
:103270000223044A01680448FEF78EFA08BD0000E4
:1032800024220020E85E0200482200202DE9F05FA1
:103290000025374FDFF8DC80DFF8DC90DFF8DCB0AA
:1032A0002C46AA462E46386800EB06300268424596
:1032B00005D1334A4168891830D001290DD0002149
:1032C0004FF4806250F821305B1C33D009EB0411BD
:1032D00003200870641CA4B219E0BAF1000F09D0F1
:1032E000022209EB0411641C0A70DBF800304B6009
:1032F0000A81A4B200220BF10401CBF80000FFF711
:1033000073FFBBF80400022830D008200543761C68
:10331000B6B2032EC7D3E8B2BDE8F09F09EB0411A3
:10332000002201F8042B01C18A1DFFF75DFF45F063
:103330000205CFE7491C9142C4D3DBF8002059466F
:103340005AB109EB041102220A7048600A480A8146
:1033500020304480641CA4B205E008600220ABF871
:1033600004004FF0010A45F00105D0E70420CDE745
:1033700048220020DEC0ADDE7C2A0020242200206E
:1033800002FEE10E70B5184D0E46044623CD86B000
:103390008DE82300154DADF80420ADF802408DF8FE
:1033A0000630A9782046FDF741F918B13046FEF7FE
:1033B00003FF0FE00721304600F0C2F950B10528A5
:1033C00008D109218DF80C100490ADF80E4003A827
:1033D000FDF70EFF002229782046FDF73BF96846ED
:1033E000FDF706FF06B070BDC05E0200C4210020DC
:1033F000F0B585B00746FDF70DF9002814D06846F2
:10340000FDF73CF800246D460BE000BF05EB4406D9
:103410003946B088FDF70AF910B1B08801F0D6FF3F
:10342000641C0098A042F1D805B0F0BD70B5054D00
:1034300006460024304655F824108847641C052CA5
:10344000F8D370BD705E02003EB5104D002400BF81
:1034500004EB840005EB800002F076FB641C082C72
:10346000F6D30124502008210094CDE90110094928
:10347000C200074B01F5207000F0A8FC08B1032042
:103480003EBD0348447000203EBD0000AC27002034
:10349000AC2100201C25002000F038BA00F038BA1A
:1034A0002DE9FF41002604460096019602960396F8
:1034B0004088ADF8020020798DF804003746217964
:1034C000608802F018FB21783F4D0A2947D2DFE8D7
:1034D00001F005053319193537393F4468B1417C8E
:1034E000C9070AD002F040FB8DF80070207801284F
:1034F00000D000208DF808001AE001208DF80000AF
:10350000A06823E078B18168A26891420BD1417C28
:10351000CA0708D06A6821F00101521C41F0040179
:103520006A6041741BE002208DF80000E06803909F
:103530006846FFF77BFF12E003200BE0042002E067
:10354000052007E006208DF80000E0680290EFE714
:10355000012607208DF80000EAE7E068029068681D
:10356000002826D0194C002505EB850704EB8700C1
:10357000417C4A0703D4C1F3400131421FD0817816
:1035800034F8270000F0F0F8C8B105EB85010428F5
:1035900034F82110ADF8021004EB870189788DF81A
:1035A000041008D009218DF8001002906846FFF73A
:1035B0003DFFBDE8FF8108208DF80000F6E76D1C97
:1035C000082DD1D3F5E70000AC210020AC27002066
:1035D00000F054BA08B513889B0000936B4600F0C6
:1035E000C9F908BD002300F0C5B938B50546002467
:1035F000204609E08178284600F0A2F810B105289D
:1036000000D003240098401C00906946284602F030
:1036100085FA0028EED134B9284600F033FA10B10B
:10362000072802D00324204638BD0724FBE71346B1
:10363000002200F0D3B900002DE9F0475FEA03084B
:1036400015460E46824604D0072E05D0082E17D107
:1036500002E00E20BDE8F08795B1082D10D8504645
:1036600000F01BFA60B14FF000093146504602F0FD
:1036700042FA040025D0E068A84213D24F460AE07F
:103680004FF00700E6E7207C3844C1B22B4800F039
:10369000D1FB7F1CFFB2E068B842F4D8204602F0AC
:1036A00053FA0EE017D9EFB207E0207C3844C1B2DC
:1036B000224800F0BFFB7F1CFFB2E068B842F4D89C
:1036C0004CB95746FF214FF6FF7002F014FA040080
:1036D00005D00780A670207CFF2802D00CE01120C6
:1036E000B8E72946154800F043FB014620462174FF
:1036F000FF2913D04FF00109E560217C0F4800F04D
:1037000085FB02000DD0ABB23146404600F052FAC4
:10371000B9F1000F10D0082E05D00DE002F014FA18
:10372000DDE7032096E7B8F800006FF0050101EB34
:103730008000D8F80410888000208BE79C270020A8
:1037400070B5002402F0D7F905000BD0686820B1ED
:1037500000F0BCF9040000D00324284602F004FA6B
:10376000204670BD052070BD7CB50D460646072974
:1037700003D0082D01D007207CBD002000900190CF
:103780008DF802502946304602F0B5F9040004D005
:10379000607CC00703D000207CBD05207CBD217C5F
:1037A000204800F033FB020022D029466846E36837
:1037B00000F094F9684602F08CF904F108036946B8
:1037C0003046626800F00AF90146627C16485307E9
:1037D00004D5930702D543685B1E436051B111299C
:1037E0000DD0042915D0072900D0032108467CBD3F
:1037F00003207CBD22F0060040F0010010E041688B
:10380000491C416022F0020040F004006074002175
:10381000ECE743685B1C436022F0040040F00200C8
:103820006074E3E79C270020AC2100207CB50D46A6
:10383000072903D0082D01D007207CBD002602F007
:103840005AF9040002D0606810B11CE005207CBD6C
:10385000217C0F4800F0DAFA02004FF000000090DF
:1038600001908DF8025010D029466846E36800F0B8
:1038700035F9684602F02DF9211D684600F00FF970
:103880000646092801D030467CBD03207CBD0000DF
:103890009C27002001490968084700006C5E02006F
:1038A00030B587B01748FDF731FE10B1032007B0DF
:1038B00030BDFDF775FD08B10420F8E700F0CCF944
:1038C000002002904CF2070403900EE0694604A821
:1038D000FDF7EAFD00988088A0F5404085B204A875
:1038E000FDF7A4FD284600F073F902AA04A92046BA
:1038F000FDF7C1FD0028E9D0034901200870002030
:10390000D5E7000019120200A021002000F086B9BE
:1039100000F08AB970B5054686B014460E4600F52B
:10392000404080B20E4A6946FDF7A5FD20B903A9C3
:103930006846FDF7B9FD10B1002006B070BDA57056
:103940000398408820800498606003988088A0F5E0
:10395000404030806846FDF769FD0120EDE700003A
:10396000A4210020024800214160816070470000CE
:10397000A0210020F0B587B01D46144607460E462C
:10398000FF280AD8084600F005F930B103AA3146ED
:10399000384600F0E7F840B902E0072007B0F0BD74
:1039A00001A903A8FDF780FD08B10520F6E7A67080
:1039B00001984088208055B182002868904204D840
:1039C00002996068FBF738FD03E00420E6E70298FF
:1039D000606003A8FDF72AFD0020DFE77FB588B00F
:1039E0001E460D460446FF282ED8A87800F0D2F8CF
:1039F00050B3686806902888ADF81C0004F5404074
:103A0000ADF80000A87803AA00F54040ADF8020028
:103A100006A801900120ADF80800A978204600F022
:103A2000A1F8052812D00AA8FDF79CFD694603A855
:103A3000FDF75AFDB8B107281ED008281AD00E2865
:103A400018D003200CB070BD0720FBE70A9828B1FE
:103A50000AAA694603A8FDF752FDEBE7694603A8E9
:103A6000FDF749FDE6E71EB1314603A8FDF713FD5A
:103A70000020E7E71120E5E70420E3E74FF6FF70B9
:103A800000F0A6B810B5FF2801D9072010BD00F03E
:103A9000A5F800F027F8002010BD00F0F1B870B5CF
:103AA00004460D46807800F075F858B12188284604
:103AB000FDF73EFD002804D0072805D0092800D0D6
:103AC000032070BD072070BD042070BD01B568469D
:103AD000FDF748FD002800D0032008BD9BB200F090
:103AE00069B80000F0B589B000264FF6FF7704965C
:103AF0003846059603E0204600F082F8204600F0A4
:103B00008DF80446B84208D004F5404080B204AABB
:103B100006A9FDF7B8FC0A28EDD0114DA8780028B9
:103B20001AD1BC4218D0012704F54040AF7080B2D2
:103B3000FDF7EEFB082811D000280DD0AE7009214A
:103B40008DF80010CDE90260FF21ADF802408DF83C
:103B500004106846FFF79EFE09B0F0BD6F70FBE7EA
:103B6000A02100207CB5054616460C46084600F00C
:103B700011F80020009005F54045019004F54044FF
:103B8000A8B2A1B26B463246FDF76EFC002800D009
:103B900005207CBD07280BD0012809D0082807D0B4
:103BA000052805D0062803D0042801D0002070473E
:103BB0000120704710B503EB83034FF6FF7404EA4E
:103BC00003138170DB1C99084260018010BD000066
:103BD0000149FDF7D3B800004C28002010B5044679
:103BE000A0F57F40FF3807D004492046FDF7C6F80E
:103BF000A04201D1012010BD002010BD6C28002082
:103C000010B50446044900F0D3FE03492046BDE840
:103C10001040203100F0CCBE4C2800200149FEF7B6
:103C2000EFBF00006C28002070B50A49FEF7E8FFDE
:103C300004464FF6FF7507E000F02CF838B105494F
:103C40002046FEF7DDFF0446AC42F5D170BD2046AC
:103C500070BD00004C28002010B508484021FBF73B
:103C600004FC4FF480742146044800F0EFF921462B
:103C70000248BDE81040203000F0E8B94C28002090
:103C8000FF2803D80146024800F00FBA0020704711
:103C90004C280020FF2803D80146024800F005BA4E
:103CA000002070476C28002010B50C46FDF7F0FF8F
:103CB000FF2804D0024900EB400021F8204010BD4D
:103CC000AC2400201CB5044600F084F908B1FCF7D0
:103CD00083F824B100F098FB08B1FCF77DF80020D0
:103CE000009001909DF8000020F07E0040F001005F
:103CF000303020F080008DF8000007208DF80100A2
:103D000010208DF802009DF8030040F003008DF8AC
:103D100003009DF8040040F003008DF8040068469D
:103D200000F0A4FB08B1FCF757F8044800F088FB4A
:103D3000002801D0FCF750F81CBD00007D3E0200B9
:103D40000449084490F93000082801DB012070473D
:103D500000207047EC2800200449084490F9300006
:103D6000082801D20120704700207047EC2800206D
:103D70002DE9F0410F46060026D0306820B3706868
:103D800010B3FF2400251CE02946706800F065F997
:103D900048B1FF2C00D12C46281B401CB8420ED144
:103DA0002046BDE8F081FF2C06D108E021463046D0
:103DB00000F040F8641CE4B2AC42F7D3FF246D1C61
:103DC000EDB2B068A842DFD8FF20EAE72DE9F04164
:103DD0000400DDE90705069E16D0A9B1A3B100FBDA
:103DE00005F7974210D8C21DB6EBD20F0CD358B1CD
:103DF00055B1E5602160C4E9013081B2184600F098
:103E000025F90020BDE8F0810720FBE770B504002C
:103E10000D460DD0206858B1606848B1FF2D07D01D
:103E200000F043F920B1E168206805FB010070BD96
:103E3000002070BD70B504000D4611D02068002828
:103E40000ED0606800280BD0FF2D09D000F02DF9AE
:103E5000002805D029466068BDE8704000F031B9FF
:103E600070BD01F0D9B80000034A12780AB101F020
:103E700007B9082070470000B421002008B5017878
:103E80000F290FD2DFE801F0080E080F1C23330EB4
:103E90002A0E332F330E3500808800F0F9F91128EF
:103EA00000D0E0B908BD418901F6FA71B1F5005FB3
:103EB000F8D140880121FFF7D7FF0828F1D108BDCC
:103EC0000021009140886946FFF7CBFF08BDFDF750
:103ED00045FA0E28FAD00828F8D0E2E70020BDE81D
:103EE0000840FBF779BF0320FCF7D8F9D9E78068D1
:103EF000D7E7BDE8084000F09FB870B586B004462B
:103F000014216846FBF7B1FA6088ADF80400FEF7AB
:103F1000A7F8ADF802002578002008220721052324
:103F20000A2D29D2DFE805F005050C0E1017192B14
:103F30001D208DF809008DF800108DF808201BE079
:103F40000D200BE00E2009E08DF809008DF800101F
:103F50008DF8083010E00F2000E010208DF80000F0
:103F60000AE08DF8003007E006208DF80000A06818
:103F70000290A088ADF802006846FDF723F906B06C
:103F800070BD000010B50446007886B0D8B1012895
:103F900017D10F49608801224979FCF75BFB142196
:103FA0006846FBF762FA6088ADF802006088FEF7A9
:103FB00017F9ADF8040000208DF800006846FDF701
:103FC00001F906B010BDE08800F058F9F9E70000EB
:103FD000B421002070B5FFF763FC48BBFFF734FA4B
:103FE00030BB01F025F818BB01F034F900BBFDF738
:103FF000F9FDE8B9FDF7BAFED0B9FEF747F8B8B950
:104000000C4C4FF6FF700025E0801820A560207151
:104010006071FCF7E9FA2071182809D0FCF7E4FA7E
:104020006071182804D0657001202070002070BDD8
:10403000032070BDB421002003480078002801D07F
:10404000FDF7F4BD70470000B4210020002803D024
:10405000C91DC908FBF709BA7047002809D001F04B
:10406000070301229A40D2B200EBD1001146FEF7BD
:1040700053BC70472DE9F0410D46060013D00024D3
:1040800001270EE004F0070007FA00F0C1B206EBCA
:10409000D400FEF741FC10B12046BDE8F081641C5D
:1040A000A4B2AC42EED32846F7E740B100EBD10012
:1040B00001F00702007801219140084000D0012062
:1040C0007047F8B50400C1F3C70501F007014FF0D0
:1040D000010000FA01F0C6B20FD0605D30420CD092
:1040E00000208DF800006846FBF720FF605DB043BC
:1040F00060559DF80000FBF73DFFF8BD10B5044684
:104100000748007800280AD02046FDF751FF2046D6
:1041100000F076FF2046BDE81040FDF79FBC10BDC3
:10412000B4210020F0B58BB0044614216846FBF79B
:104130009CF96088ADF80400FDF792FFADF802002D
:10414000237801200822072100264B4D4FF6FF77E8
:104150000A2B6CD2DFE803F00510263C444E6C8D30
:1041600085878DF8001021798DF808108DF8096089
:1041700003968DF80A0079E08DF8001021798DF80A
:1041800008108DF80960A16803918DF80A00A868ED
:1041900000286BD0A168814268D1AE60BDF80400F0
:1041A000E88013E08DF8002020798DF808008DF864
:1041B0000960A0680390E0680490A868B0B3A168A3
:1041C000814253D1AE60E868401EE86003964DE03E
:1041D0008DF8001021798DF808108DF80900F5E7A9
:1041E0008DF8002021798DF808108DF80900A0685D
:1041F00004903BE009208DF80000A878B0B1384663
:10420000FFF74CF9B84231D13846FFF745F9B842CB
:104210002CD1AE70142105A8FBF727F90B208DF8DF
:104220001400ADF81870ADF8167016E01EE020E02E
:104230000A208DF80000A0680290A878B0B1AE7096
:10424000142105A8FBF711F90C208DF81400ADF826
:104250001870ADF81670A068079005A8FCF7B2FFBB
:1042600004E0052000E006208DF800006846FCF719
:10427000A9FF0BB0F0BD0000B4210020034909786C
:1042800009B1FDF799BF082070470000B421002054
:10429000F0B52D4C074687B0207838B12B49D1E9CD
:1042A0000201CDE90501607818B10EE0082007B0E1
:1042B000F0BD254900230C311A46881F00F048F84C
:1042C00008B1052801D1012060706078A168401E06
:1042D000084301D0112534E0E088002687421CD134
:1042E000E068D0B1002514216846FBF7BEF807202E
:1042F0008DF800003846FDF7B3FEADF80200062049
:104300008DF808008DF80960ADF8047003968DF8FB
:104310000A606846FCF756FF13E0E0680A4A401C52
:10432000E060083205A93846FFF781F9050008D09A
:10433000A660E068401EE060112D02D0042D00D080
:1043400003252846B3E70000B4210020845E020064
:104350002DE9FF4F2A4883B09946007892468B4654
:10436000B8B14FF6FF763046FFF798F88046002048
:104370000090244801AA062100680190CDF808D0D9
:104380004046FFF727F900256C1E3746072804D062
:1043900017E0082007B0BDE8F08F0520FAE70020FD
:1043A0000090A84201D305464746A04201D20446E8
:1043B00046464046FFF772F8804601AA0621FFF7FD
:1043C00009F9D8B10528EAD0A8F57F41FF3901D015
:1043D0000320DFE70399002001B10F80BBF1000F3C
:1043E00001D0CBF80050BAF1000F01D0AAF800605C
:1043F000B9F1000FCED0C9F80040CBE70098D0E764
:10440000B4210020845E020070B50C48017829B107
:10441000012181704FF6FF75284607E0082070BD26
:10442000FFF72CFF08B1032070BD2046FFF736F8D8
:104430000446A842F4D1002070BD0000B421002041
:10444000084A117821B1D178032903D30420704799
:1044500008207047044B43F82100491CD17000200C
:1044600070470000B42100208C28002003490978FF
:1044700009B100F027BE082070470000B4210020D9
:104480002DE9F04385B00446012714216846FAF768
:10449000ECFF6088ADF80200504E94F800C0002593
:1044A00007200322317973794FF00209BCF10D0F17
:1044B00076D2DFE80CF0848F071A2D3E484D576402
:1044C0006A6C800001208DF80000207908B101227B
:1044D00000E00022012806D000256088FCF7BAF829
:1044E00060882A4610E00125F7E78DF800902079D2
:1044F00008B1012000E002208DF808006088012248
:10450000FCF7A8F8227960887179FCF7A3F857E0E6
:104510008DF8002060881946FCF788F808B1012062
:1045200000E002208DF80800A0798DF80C00A0882A
:104530003EE06088FCF77AF800284BD18DF80090B7
:104540008DF808503CE08DF800208DF80850EBE71E
:104550008DF80000A1888DF80800ADF804108DF8E2
:10456000095034E008218DF80010A1888DF808006A
:10457000ADF804108DF80950A068049027E00620DB
:104580008DF80000606802901AE0052014E08DF8B4
:10459000002060881946FCF749F810B1012001E0BD
:1045A0000DE002208DF808008DF80C5041F201104A
:1045B000ADF80A0004E004208DF8000000E00027B8
:1045C0006088FDF70DFEADF80400002F02D06846AC
:1045D000FCF7F8FD05B0BDE8F0830000B421002031
:1045E0000848416E491E416604D107490A7822F005
:1045F00002020A70016E491C0166042901D10021E2
:1046000001667047AC2A00202C22002070B50C49AE
:104610000446486E042811D00A6E0244042A00D3CE
:10462000121F401C486602EB420001EBC000054629
:104630001821FAF71AFF0120256070BD002070BD17
:10464000AC2A0020F0B52D4C002785B0216F41F633
:104650001D56C1EBC10104EB81052978072919D248
:10466000DFE801F0180408080C0C10002946FDF7DB
:10467000E5FD09E0294601F01FFB05E02946FCF7AE
:1046800077FC01E0FDF7FCF8002831D0B04202D100
:10469000019710E00F2001902878022801D003280C
:1046A00009D11648AA7D7830016C11440164AA7DB5
:1046B000416C891A416469462846FCF70FFD68463B
:1046C000FCF742FD206F1C21C0EBC00004EB800012
:1046D000FAF7CBFE606F68B194F87010491C01F0D6
:1046E0000301401EC4E91C1004D00020FFF7AAFFFC
:1046F00005B0F0BD0420FCF761FFF9E7BC290020FC
:10470000194830B4016E01EB410100EBC104406E69
:10471000002827D0207A012802D0022816D10FE0E5
:10472000A18AE08A4FF48062091A914200DA8AB2C3
:10473000E168236901EB800103EB800029DF01E0E0
:10474000A08928DF112806D000280BD0204630BCD5
:10475000092100F0F9BA0549087820F0020040F07C
:104760000400087030BC7047AC2A00202C220020C6
:10477000064810B50078400707D40420FCF738FF3E
:10478000BDE810400020FFF75DBF10BD14220020DF
:104790000549087810F0060F04D140F002000870B7
:1047A000FFF7AEBF704700002C2200202DE9F04734
:1047B00007461E481C46154600780E46800702D460
:1047C0000220BDE8F08765B15CB1DFF864804FF08E
:1047D0000009A088022827D208EB00100078F8B959
:1047E00016E00520EDE720681FB181883A889142E4
:1047F0000ED11EB101883288914209D180682860AB
:10480000206868600A482030008928810020D8E7A5
:10481000A088214600F05CF80028E4D1C4F800909C
:10482000A088401CA080D4E70A20CAE714220020F8
:104830007C2A0020F8B505464068234F0C46002628
:1048400038B322490A68824223D84968814220D37A
:10485000FDF7A8FDE8B128893989884219D1D5E941
:1048600000018A68904214D10020A7F1200300BF04
:1048700003EB001252688A4205D202F580528A4246
:1048800001D9208011E0401C80B20228F0D3002022
:10489000F8BD268000960AE0009829688068884262
:1048A00005D100986860388928810120F8BD2088EA
:1048B000694600F00DF80028EED12088401C80B237
:1048C00020800228E6D3E2E79C2A0020482200202C
:1048D00070B50E460A68104901EB00151AB15088F0
:1048E00002EB80040CE06C6808340AE02046FDF717
:1048F00019FB10B10120346070BD608804EB8004A6
:104900000C34686800F58050A04202D92068401C31
:10491000ECD1002070BD00007C2A002008B50021E9
:10492000009101460123044A0448FCF735FF0028A2
:1049300000D00E2008BD0000E45E020048220020E6
:1049400043F6FE71A0F54040884201D8012070472F
:104950000020704738B5044613480025426C42B128
:10496000036C00EBC3055B1C03F00703521EC0E998
:10497000103200200090A08AAB8801EB80010B4828
:104980002A68FCF709FFA18AAA881144A182A17DA7
:10499000491E11F0FF01A17501D1012121740028E8
:1049A00000D00E2038BD0000342A0020482200200C
:1049B0000A46FF2803D801461046FFF782BB70471E
:1049C00070B5012670044FF0E0210025C1F8800188
:1049D000084C4010C4F84803C4F8080366602F2050
:1049E000FEF736F9A660044C2F20A560FEF730F9DB
:1049F000A57070BD00100140F421002070B505467F
:104A0000C87D0C4600284FF4847128460AD0FEF772
:104A1000E2FAD5F81805627EE1688854607E401C91
:104A2000607670BDFEF7D7FAD5F8180570BD1FB5D2
:104A300001238DF800308DF808100192D0E90012A2
:104A4000684690471FBD000010B50446FBF702F80A
:104A500040B1002C09DA04F00F0000F1E02090F8DA
:104A6000140D06E042F2010010BD04F1E02090F8C0
:104A700000044109082914D299B1012911D004294F
:104A80000FD005290DD00B480122816861B1610961
:104A900050F8213004F01F04A240134340F82130A5
:104AA00005E042F2020010BD2046FAF7EEFD0020BC
:104AB00010BD00008429002070B50028049D18D086
:104AC000002916D0002A14D05FF0000430F81460DA
:104AD0009E420FD100200123A34008E001EB000417
:104AE00026780DB11E4300E09E432670401C904284
:104AF000F4D370BD641C082CE8D370BD70B50546B6
:104B000000242146284600F00AF808B1204670BD6E
:104B1000641CA4B2082CF4D34FF6FF7070BD0122C0
:104B20008A40024201D0012070470020704730B413
:104B30000B4660B1002130F81140944204D130BCE2
:104B400089B21846FFF7EBBF491C0829F3D330BCE4
:104B5000002070472DE9F04186B080464FF00000FC
:104B600017460D00009012D000246E46A1B23846C0
:104B7000FFF7D5FF40B1009935F8140006EB41016D
:104B800088800098401C0090641C082CEED31422EE
:104B900069464046FAF750FC06B0BDE8F08108B51A
:104BA000009313460122FFF787FF08BD2DE9F0416E
:104BB00005460C3086B000278046FDF721FB0646EF
:104BC00028884FF6FF74ADF80600A64203D1288866
:104BD000FDF706FB0646A64212D004AA072130467E
:104BE000FEF700FD60B9059C94F844003434C0071A
:104BF00005D1414604F11200FDF78EFA00B12746B7
:104C0000002328881A46394686DF48B109210290D8
:104C10008DF8041001A8FCF7EBFA06B0BDE8F081AE
:104C200000245FB12888002100F07EF80094012262
:104C300028880023314600F04DF8EEE706208DF875
:104C4000040041F20600ADF808008DF80A4001A802
:104C5000FCF7CEFA0094002328881A46EAE70028D9
:104C600035D00278910701D411062FD4C2F3021176
:104C700004292BD8930703D5032901D1110625D583
:104C8000437881788B4221D8072B1FD310291DD858
:104C9000C1784B071AD40079430717D40B0715D4F2
:104CA000030713D4D2074FEAC17201D042B10FE01B
:104CB00062B989070AD4C10708D1800706D407E082
:104CC000890705D4C10703D1800701D400207047AC
:104CD000012070472DE9F047124D88461F461646C1
:104CE00081462978089CFBF7B5FC8EB13A46697875
:104CF0004846FBF7AFFC2246A9784846FBF7AAFCDA
:104D0000002C0CD041464846BDE8F047FDF719BAE3
:104D1000002C04D04046BDE8F047FDF74DBABDE891
:104D2000F0870000C42100203EB5064C1CCC8DE865
:104D30001C00ADF802008DF804106846FCF758FA24
:104D40003EBD00009C5E02001FB500220092019251
:104D500002920392037A012B02D0022B13D107E0B7
:104D60008DF8002002690292828AADF80C200AE0D8
:104D700001228DF800208289C389D21AADF808205B
:104D80008289ADF80A20426801920068826868460C
:104D900090471FBDF0B5144D8BB0E878FBF73AFC97
:104DA00000281ED005A8FBF769FB142205A9684658
